{
	"BookStore.sol": {
		"BookStore": {
			"abi": [
				{
					"inputs": [
						{
							"internalType": "address",
							"name": "initialOwner",
							"type": "address"
						}
					],
					"stateMutability": "nonpayable",
					"type": "constructor"
				},
				{
					"inputs": [
						{
							"internalType": "address",
							"name": "owner",
							"type": "address"
						}
					],
					"name": "OwnableInvalidOwner",
					"type": "error"
				},
				{
					"inputs": [
						{
							"internalType": "address",
							"name": "account",
							"type": "address"
						}
					],
					"name": "OwnableUnauthorizedAccount",
					"type": "error"
				},
				{
					"anonymous": false,
					"inputs": [
						{
							"indexed": true,
							"internalType": "uint256",
							"name": "bookId",
							"type": "uint256"
						},
						{
							"indexed": false,
							"internalType": "string",
							"name": "title",
							"type": "string"
						},
						{
							"indexed": false,
							"internalType": "string",
							"name": "author",
							"type": "string"
						},
						{
							"indexed": false,
							"internalType": "uint256",
							"name": "price",
							"type": "uint256"
						},
						{
							"indexed": false,
							"internalType": "uint256",
							"name": "stock",
							"type": "uint256"
						}
					],
					"name": "BookAdded",
					"type": "event"
				},
				{
					"anonymous": false,
					"inputs": [
						{
							"indexed": true,
							"internalType": "address",
							"name": "previousOwner",
							"type": "address"
						},
						{
							"indexed": true,
							"internalType": "address",
							"name": "newOwner",
							"type": "address"
						}
					],
					"name": "OwnershipTransferred",
					"type": "event"
				},
				{
					"anonymous": false,
					"inputs": [
						{
							"indexed": true,
							"internalType": "uint256",
							"name": "bookId",
							"type": "uint256"
						},
						{
							"indexed": true,
							"internalType": "address",
							"name": "buyer",
							"type": "address"
						},
						{
							"indexed": false,
							"internalType": "uint256",
							"name": "quantity",
							"type": "uint256"
						}
					],
					"name": "PurchaseConfirmed",
					"type": "event"
				},
				{
					"anonymous": false,
					"inputs": [
						{
							"indexed": true,
							"internalType": "uint256",
							"name": "bookId",
							"type": "uint256"
						},
						{
							"indexed": true,
							"internalType": "address",
							"name": "buyer",
							"type": "address"
						},
						{
							"indexed": false,
							"internalType": "uint256",
							"name": "quantity",
							"type": "uint256"
						}
					],
					"name": "PurchaseInitiated",
					"type": "event"
				},
				{
					"anonymous": false,
					"inputs": [
						{
							"indexed": true,
							"internalType": "address",
							"name": "subscriber",
							"type": "address"
						}
					],
					"name": "SubscriptionAdded",
					"type": "event"
				},
				{
					"anonymous": false,
					"inputs": [
						{
							"indexed": true,
							"internalType": "address",
							"name": "subscriber",
							"type": "address"
						}
					],
					"name": "SubscriptionRemoved",
					"type": "event"
				},
				{
					"inputs": [
						{
							"internalType": "uint256",
							"name": "_bookId",
							"type": "uint256"
						},
						{
							"internalType": "string",
							"name": "_title",
							"type": "string"
						},
						{
							"internalType": "string",
							"name": "_author",
							"type": "string"
						},
						{
							"internalType": "uint256",
							"name": "_price",
							"type": "uint256"
						},
						{
							"internalType": "uint256",
							"name": "_stock",
							"type": "uint256"
						}
					],
					"name": "addBook",
					"outputs": [],
					"stateMutability": "nonpayable",
					"type": "function"
				},
				{
					"inputs": [
						{
							"internalType": "uint256",
							"name": "",
							"type": "uint256"
						}
					],
					"name": "bookIds",
					"outputs": [
						{
							"internalType": "uint256",
							"name": "",
							"type": "uint256"
						}
					],
					"stateMutability": "view",
					"type": "function"
				},
				{
					"inputs": [
						{
							"internalType": "uint256",
							"name": "",
							"type": "uint256"
						}
					],
					"name": "books",
					"outputs": [
						{
							"internalType": "string",
							"name": "title",
							"type": "string"
						},
						{
							"internalType": "string",
							"name": "author",
							"type": "string"
						},
						{
							"internalType": "uint256",
							"name": "price",
							"type": "uint256"
						},
						{
							"internalType": "uint256",
							"name": "stock",
							"type": "uint256"
						},
						{
							"internalType": "bool",
							"name": "isAvailable",
							"type": "bool"
						}
					],
					"stateMutability": "view",
					"type": "function"
				},
				{
					"inputs": [
						{
							"internalType": "uint256",
							"name": "_bookId",
							"type": "uint256"
						},
						{
							"internalType": "uint256",
							"name": "_quantity",
							"type": "uint256"
						}
					],
					"name": "buyBook",
					"outputs": [],
					"stateMutability": "payable",
					"type": "function"
				},
				{
					"inputs": [
						{
							"internalType": "uint256",
							"name": "_bookId",
							"type": "uint256"
						},
						{
							"internalType": "uint256",
							"name": "_quantity",
							"type": "uint256"
						}
					],
					"name": "confirmPurchase",
					"outputs": [],
					"stateMutability": "nonpayable",
					"type": "function"
				},
				{
					"inputs": [
						{
							"internalType": "uint256",
							"name": "_bookId",
							"type": "uint256"
						}
					],
					"name": "getBooks",
					"outputs": [
						{
							"internalType": "string",
							"name": "",
							"type": "string"
						},
						{
							"internalType": "string",
							"name": "",
							"type": "string"
						},
						{
							"internalType": "uint256",
							"name": "",
							"type": "uint256"
						},
						{
							"internalType": "uint256",
							"name": "",
							"type": "uint256"
						},
						{
							"internalType": "bool",
							"name": "",
							"type": "bool"
						}
					],
					"stateMutability": "view",
					"type": "function"
				},
				{
					"inputs": [],
					"name": "owner",
					"outputs": [
						{
							"internalType": "address",
							"name": "",
							"type": "address"
						}
					],
					"stateMutability": "view",
					"type": "function"
				},
				{
					"inputs": [],
					"name": "renounceOwnership",
					"outputs": [],
					"stateMutability": "nonpayable",
					"type": "function"
				},
				{
					"inputs": [
						{
							"internalType": "uint256",
							"name": "",
							"type": "uint256"
						}
					],
					"name": "subscriberList",
					"outputs": [
						{
							"internalType": "address",
							"name": "",
							"type": "address"
						}
					],
					"stateMutability": "view",
					"type": "function"
				},
				{
					"inputs": [
						{
							"internalType": "address",
							"name": "",
							"type": "address"
						}
					],
					"name": "subscribers",
					"outputs": [
						{
							"internalType": "bool",
							"name": "",
							"type": "bool"
						}
					],
					"stateMutability": "view",
					"type": "function"
				},
				{
					"inputs": [
						{
							"internalType": "address",
							"name": "newOwner",
							"type": "address"
						}
					],
					"name": "transferOwnership",
					"outputs": [],
					"stateMutability": "nonpayable",
					"type": "function"
				}
			],
			"devdoc": {
				"errors": {
					"OwnableInvalidOwner(address)": [
						{
							"details": "The owner is not a valid owner account. (eg. `address(0)`)"
						}
					],
					"OwnableUnauthorizedAccount(address)": [
						{
							"details": "The caller account is not authorized to perform an operation."
						}
					]
				},
				"kind": "dev",
				"methods": {
					"owner()": {
						"details": "Returns the address of the current owner."
					},
					"renounceOwnership()": {
						"details": "Leaves the contract without owner. It will not be possible to call `onlyOwner` functions. Can only be called by the current owner. NOTE: Renouncing ownership will leave the contract without an owner, thereby disabling any functionality that is only available to the owner."
					},
					"transferOwnership(address)": {
						"details": "Transfers ownership of the contract to a new account (`newOwner`). Can only be called by the current owner."
					}
				},
				"version": 1
			},
			"evm": {
				"assembly": "    /* \"BookStore.sol\":1689:4401  contract BookStore  is Ownable{... */\n  mstore(0x40, 0x80)\n    /* \"BookStore.sol\":2442:2509  constructor(address initialOwner) Ownable(initialOwner) {... */\n  callvalue\n  dup1\n  iszero\n  tag_1\n  jumpi\n  0x00\n  dup1\n  revert\ntag_1:\n  pop\n  mload(0x40)\n  sub(codesize, bytecodeSize)\n  dup1\n  bytecodeSize\n  dup4\n  codecopy\n  dup2\n  dup2\n  add\n  0x40\n  mstore\n  dup2\n  add\n  swap1\n  tag_2\n  swap2\n  swap1\n  tag_3\n  jump\t// in\ntag_2:\n    /* \"BookStore.sol\":2484:2496  initialOwner */\n  dup1\n    /* \"@openzeppelin/contracts/access/Ownable.sol\":1297:1298  0 */\n  0x00\n    /* \"@openzeppelin/contracts/access/Ownable.sol\":1273:1299  initialOwner == address(0) */\n  0xffffffffffffffffffffffffffffffffffffffff\n  and\n    /* \"@openzeppelin/contracts/access/Ownable.sol\":1273:1285  initialOwner */\n  dup2\n    /* \"@openzeppelin/contracts/access/Ownable.sol\":1273:1299  initialOwner == address(0) */\n  0xffffffffffffffffffffffffffffffffffffffff\n  and\n  sub\n    /* \"@openzeppelin/contracts/access/Ownable.sol\":1269:1364  if (initialOwner == address(0)) {... */\n  tag_7\n  jumpi\n    /* \"@openzeppelin/contracts/access/Ownable.sol\":1350:1351  0 */\n  0x00\n    /* \"@openzeppelin/contracts/access/Ownable.sol\":1322:1353  OwnableInvalidOwner(address(0)) */\n  mload(0x40)\n  0x1e4fbdf700000000000000000000000000000000000000000000000000000000\n  dup2\n  mstore\n  0x04\n  add\n  tag_8\n  swap2\n  swap1\n  tag_9\n  jump\t// in\ntag_8:\n  mload(0x40)\n  dup1\n  swap2\n  sub\n  swap1\n  revert\n    /* \"@openzeppelin/contracts/access/Ownable.sol\":1269:1364  if (initialOwner == address(0)) {... */\ntag_7:\n    /* \"@openzeppelin/contracts/access/Ownable.sol\":1373:1405  _transferOwnership(initialOwner) */\n  tag_10\n    /* \"@openzeppelin/contracts/access/Ownable.sol\":1392:1404  initialOwner */\n  dup2\n    /* \"@openzeppelin/contracts/access/Ownable.sol\":1373:1391  _transferOwnership */\n  shl(0x20, tag_11)\n    /* \"@openzeppelin/contracts/access/Ownable.sol\":1373:1405  _transferOwnership(initialOwner) */\n  0x20\n  shr\n  jump\t// in\ntag_10:\n    /* \"@openzeppelin/contracts/access/Ownable.sol\":1225:1412  constructor(address initialOwner) {... */\n  pop\n    /* \"BookStore.sol\":2442:2509  constructor(address initialOwner) Ownable(initialOwner) {... */\n  pop\n    /* \"BookStore.sol\":1689:4401  contract BookStore  is Ownable{... */\n  jump(tag_13)\n    /* \"@openzeppelin/contracts/access/Ownable.sol\":2912:3099  function _transferOwnership(address newOwner) internal virtual {... */\ntag_11:\n    /* \"@openzeppelin/contracts/access/Ownable.sol\":2985:3001  address oldOwner */\n  0x00\n    /* \"@openzeppelin/contracts/access/Ownable.sol\":3004:3010  _owner */\n  dup1\n  0x00\n  swap1\n  sload\n  swap1\n  0x0100\n  exp\n  swap1\n  div\n  0xffffffffffffffffffffffffffffffffffffffff\n  and\n    /* \"@openzeppelin/contracts/access/Ownable.sol\":2985:3010  address oldOwner = _owner */\n  swap1\n  pop\n    /* \"@openzeppelin/contracts/access/Ownable.sol\":3029:3037  newOwner */\n  dup2\n    /* \"@openzeppelin/contracts/access/Ownable.sol\":3020:3026  _owner */\n  0x00\n  dup1\n    /* \"@openzeppelin/contracts/access/Ownable.sol\":3020:3037  _owner = newOwner */\n  0x0100\n  exp\n  dup2\n  sload\n  dup2\n  0xffffffffffffffffffffffffffffffffffffffff\n  mul\n  not\n  and\n  swap1\n  dup4\n  0xffffffffffffffffffffffffffffffffffffffff\n  and\n  mul\n  or\n  swap1\n  sstore\n  pop\n    /* \"@openzeppelin/contracts/access/Ownable.sol\":3083:3091  newOwner */\n  dup2\n    /* \"@openzeppelin/contracts/access/Ownable.sol\":3052:3092  OwnershipTransferred(oldOwner, newOwner) */\n  0xffffffffffffffffffffffffffffffffffffffff\n  and\n    /* \"@openzeppelin/contracts/access/Ownable.sol\":3073:3081  oldOwner */\n  dup2\n    /* \"@openzeppelin/contracts/access/Ownable.sol\":3052:3092  OwnershipTransferred(oldOwner, newOwner) */\n  0xffffffffffffffffffffffffffffffffffffffff\n  and\n  0x8be0079c531659141344cd1fd0a4f28419497f9722a3daafe3b4186f6b6457e0\n  mload(0x40)\n  mload(0x40)\n  dup1\n  swap2\n  sub\n  swap1\n  log3\n    /* \"@openzeppelin/contracts/access/Ownable.sol\":2975:3099  {... */\n  pop\n    /* \"@openzeppelin/contracts/access/Ownable.sol\":2912:3099  function _transferOwnership(address newOwner) internal virtual {... */\n  pop\n  jump\t// out\n    /* \"#utility.yul\":88:205   */\ntag_16:\n    /* \"#utility.yul\":197:198   */\n  0x00\n    /* \"#utility.yul\":194:195   */\n  dup1\n    /* \"#utility.yul\":187:199   */\n  revert\n    /* \"#utility.yul\":334:460   */\ntag_18:\n    /* \"#utility.yul\":371:378   */\n  0x00\n    /* \"#utility.yul\":411:453   */\n  0xffffffffffffffffffffffffffffffffffffffff\n    /* \"#utility.yul\":404:409   */\n  dup3\n    /* \"#utility.yul\":400:454   */\n  and\n    /* \"#utility.yul\":389:454   */\n  swap1\n  pop\n    /* \"#utility.yul\":334:460   */\n  swap2\n  swap1\n  pop\n  jump\t// out\n    /* \"#utility.yul\":466:562   */\ntag_19:\n    /* \"#utility.yul\":503:510   */\n  0x00\n    /* \"#utility.yul\":532:556   */\n  tag_29\n    /* \"#utility.yul\":550:555   */\n  dup3\n    /* \"#utility.yul\":532:556   */\n  tag_18\n  jump\t// in\ntag_29:\n    /* \"#utility.yul\":521:556   */\n  swap1\n  pop\n    /* \"#utility.yul\":466:562   */\n  swap2\n  swap1\n  pop\n  jump\t// out\n    /* \"#utility.yul\":568:690   */\ntag_20:\n    /* \"#utility.yul\":641:665   */\n  tag_31\n    /* \"#utility.yul\":659:664   */\n  dup2\n    /* \"#utility.yul\":641:665   */\n  tag_19\n  jump\t// in\ntag_31:\n    /* \"#utility.yul\":634:639   */\n  dup2\n    /* \"#utility.yul\":631:666   */\n  eq\n    /* \"#utility.yul\":621:684   */\n  tag_32\n  jumpi\n    /* \"#utility.yul\":680:681   */\n  0x00\n    /* \"#utility.yul\":677:678   */\n  dup1\n    /* \"#utility.yul\":670:682   */\n  revert\n    /* \"#utility.yul\":621:684   */\ntag_32:\n    /* \"#utility.yul\":568:690   */\n  pop\n  jump\t// out\n    /* \"#utility.yul\":696:839   */\ntag_21:\n    /* \"#utility.yul\":753:758   */\n  0x00\n    /* \"#utility.yul\":784:790   */\n  dup2\n    /* \"#utility.yul\":778:791   */\n  mload\n    /* \"#utility.yul\":769:791   */\n  swap1\n  pop\n    /* \"#utility.yul\":800:833   */\n  tag_34\n    /* \"#utility.yul\":827:832   */\n  dup2\n    /* \"#utility.yul\":800:833   */\n  tag_20\n  jump\t// in\ntag_34:\n    /* \"#utility.yul\":696:839   */\n  swap3\n  swap2\n  pop\n  pop\n  jump\t// out\n    /* \"#utility.yul\":845:1196   */\ntag_3:\n    /* \"#utility.yul\":915:921   */\n  0x00\n    /* \"#utility.yul\":964:966   */\n  0x20\n    /* \"#utility.yul\":952:961   */\n  dup3\n    /* \"#utility.yul\":943:950   */\n  dup5\n    /* \"#utility.yul\":939:962   */\n  sub\n    /* \"#utility.yul\":935:967   */\n  slt\n    /* \"#utility.yul\":932:1051   */\n  iszero\n  tag_36\n  jumpi\n    /* \"#utility.yul\":970:1049   */\n  tag_37\n  tag_16\n  jump\t// in\ntag_37:\n    /* \"#utility.yul\":932:1051   */\ntag_36:\n    /* \"#utility.yul\":1090:1091   */\n  0x00\n    /* \"#utility.yul\":1115:1179   */\n  tag_38\n    /* \"#utility.yul\":1171:1178   */\n  dup5\n    /* \"#utility.yul\":1162:1168   */\n  dup3\n    /* \"#utility.yul\":1151:1160   */\n  dup6\n    /* \"#utility.yul\":1147:1169   */\n  add\n    /* \"#utility.yul\":1115:1179   */\n  tag_21\n  jump\t// in\ntag_38:\n    /* \"#utility.yul\":1105:1179   */\n  swap2\n  pop\n    /* \"#utility.yul\":1061:1189   */\n  pop\n    /* \"#utility.yul\":845:1196   */\n  swap3\n  swap2\n  pop\n  pop\n  jump\t// out\n    /* \"#utility.yul\":1202:1320   */\ntag_22:\n    /* \"#utility.yul\":1289:1313   */\n  tag_40\n    /* \"#utility.yul\":1307:1312   */\n  dup2\n    /* \"#utility.yul\":1289:1313   */\n  tag_19\n  jump\t// in\ntag_40:\n    /* \"#utility.yul\":1284:1287   */\n  dup3\n    /* \"#utility.yul\":1277:1314   */\n  mstore\n    /* \"#utility.yul\":1202:1320   */\n  pop\n  pop\n  jump\t// out\n    /* \"#utility.yul\":1326:1548   */\ntag_9:\n    /* \"#utility.yul\":1419:1423   */\n  0x00\n    /* \"#utility.yul\":1457:1459   */\n  0x20\n    /* \"#utility.yul\":1446:1455   */\n  dup3\n    /* \"#utility.yul\":1442:1460   */\n  add\n    /* \"#utility.yul\":1434:1460   */\n  swap1\n  pop\n    /* \"#utility.yul\":1470:1541   */\n  tag_42\n    /* \"#utility.yul\":1538:1539   */\n  0x00\n    /* \"#utility.yul\":1527:1536   */\n  dup4\n    /* \"#utility.yul\":1523:1540   */\n  add\n    /* \"#utility.yul\":1514:1520   */\n  dup5\n    /* \"#utility.yul\":1470:1541   */\n  tag_22\n  jump\t// in\ntag_42:\n    /* \"#utility.yul\":1326:1548   */\n  swap3\n  swap2\n  pop\n  pop\n  jump\t// out\n    /* \"BookStore.sol\":1689:4401  contract BookStore  is Ownable{... */\ntag_13:\n  dataSize(sub_0)\n  dup1\n  dataOffset(sub_0)\n  0x00\n  codecopy\n  0x00\n  return\nstop\n\nsub_0: assembly {\n        /* \"BookStore.sol\":1689:4401  contract BookStore  is Ownable{... */\n      mstore(0x40, 0x80)\n      jumpi(tag_1, lt(calldatasize, 0x04))\n      shr(0xe0, calldataload(0x00))\n      dup1\n      0x715018a6\n      gt\n      tag_13\n      jumpi\n      dup1\n      0x715018a6\n      eq\n      tag_7\n      jumpi\n      dup1\n      0x83c2eaba\n      eq\n      tag_8\n      jumpi\n      dup1\n      0x8c1af2e0\n      eq\n      tag_9\n      jumpi\n      dup1\n      0x8da5cb5b\n      eq\n      tag_10\n      jumpi\n      dup1\n      0xf2fde38b\n      eq\n      tag_11\n      jumpi\n      dup1\n      0xf733719c\n      eq\n      tag_12\n      jumpi\n      jump(tag_1)\n    tag_13:\n      dup1\n      0x3af8c2d5\n      eq\n      tag_2\n      jumpi\n      dup1\n      0x513073b8\n      eq\n      tag_3\n      jumpi\n      dup1\n      0x5745ae28\n      eq\n      tag_4\n      jumpi\n      dup1\n      0x5ac3e19e\n      eq\n      tag_5\n      jumpi\n      dup1\n      0x68744046\n      eq\n      tag_6\n      jumpi\n    tag_1:\n      0x00\n      dup1\n      revert\n        /* \"BookStore.sol\":3349:4002  function buyBook(uint256 _bookId, uint256 _quantity) public payable{... */\n    tag_2:\n      tag_14\n      0x04\n      dup1\n      calldatasize\n      sub\n      dup2\n      add\n      swap1\n      tag_15\n      swap2\n      swap1\n      tag_16\n      jump\t// in\n    tag_15:\n      tag_17\n      jump\t// in\n    tag_14:\n      stop\n        /* \"BookStore.sol\":1961:1985  uint256[] public bookIds */\n    tag_3:\n      callvalue\n      dup1\n      iszero\n      tag_18\n      jumpi\n      0x00\n      dup1\n      revert\n    tag_18:\n      pop\n      tag_19\n      0x04\n      dup1\n      calldatasize\n      sub\n      dup2\n      add\n      swap1\n      tag_20\n      swap2\n      swap1\n      tag_21\n      jump\t// in\n    tag_20:\n      tag_22\n      jump\t// in\n    tag_19:\n      mload(0x40)\n      tag_23\n      swap2\n      swap1\n      tag_24\n      jump\t// in\n    tag_23:\n      mload(0x40)\n      dup1\n      swap2\n      sub\n      swap1\n      return\n        /* \"BookStore.sol\":1908:1953  mapping (address => bool ) public subscribers */\n    tag_4:\n      callvalue\n      dup1\n      iszero\n      tag_25\n      jumpi\n      0x00\n      dup1\n      revert\n    tag_25:\n      pop\n      tag_26\n      0x04\n      dup1\n      calldatasize\n      sub\n      dup2\n      add\n      swap1\n      tag_27\n      swap2\n      swap1\n      tag_28\n      jump\t// in\n    tag_27:\n      tag_29\n      jump\t// in\n    tag_26:\n      mload(0x40)\n      tag_30\n      swap2\n      swap1\n      tag_31\n      jump\t// in\n    tag_30:\n      mload(0x40)\n      dup1\n      swap2\n      sub\n      swap1\n      return\n        /* \"BookStore.sol\":3057:3301  function getBooks(uint256 _bookId) public view returns (string memory, string memory, uint256, uint256, bool) {... */\n    tag_5:\n      callvalue\n      dup1\n      iszero\n      tag_32\n      jumpi\n      0x00\n      dup1\n      revert\n    tag_32:\n      pop\n      tag_33\n      0x04\n      dup1\n      calldatasize\n      sub\n      dup2\n      add\n      swap1\n      tag_34\n      swap2\n      swap1\n      tag_21\n      jump\t// in\n    tag_34:\n      tag_35\n      jump\t// in\n    tag_33:\n      mload(0x40)\n      tag_36\n      swap6\n      swap5\n      swap4\n      swap3\n      swap2\n      swap1\n      tag_37\n      jump\t// in\n    tag_36:\n      mload(0x40)\n      dup1\n      swap2\n      sub\n      swap1\n      return\n        /* \"BookStore.sol\":1865:1902  mapping(uint256 => Book) public books */\n    tag_6:\n      callvalue\n      dup1\n      iszero\n      tag_38\n      jumpi\n      0x00\n      dup1\n      revert\n    tag_38:\n      pop\n      tag_39\n      0x04\n      dup1\n      calldatasize\n      sub\n      dup2\n      add\n      swap1\n      tag_40\n      swap2\n      swap1\n      tag_21\n      jump\t// in\n    tag_40:\n      tag_41\n      jump\t// in\n    tag_39:\n      mload(0x40)\n      tag_42\n      swap6\n      swap5\n      swap4\n      swap3\n      swap2\n      swap1\n      tag_37\n      jump\t// in\n    tag_42:\n      mload(0x40)\n      dup1\n      swap2\n      sub\n      swap1\n      return\n        /* \"@openzeppelin/contracts/access/Ownable.sol\":2293:2394  function renounceOwnership() public virtual onlyOwner {... */\n    tag_7:\n      callvalue\n      dup1\n      iszero\n      tag_43\n      jumpi\n      0x00\n      dup1\n      revert\n    tag_43:\n      pop\n      tag_44\n      tag_45\n      jump\t// in\n    tag_44:\n      stop\n        /* \"BookStore.sol\":1991:2023  address[] public  subscriberList */\n    tag_8:\n      callvalue\n      dup1\n      iszero\n      tag_46\n      jumpi\n      0x00\n      dup1\n      revert\n    tag_46:\n      pop\n      tag_47\n      0x04\n      dup1\n      calldatasize\n      sub\n      dup2\n      add\n      swap1\n      tag_48\n      swap2\n      swap1\n      tag_21\n      jump\t// in\n    tag_48:\n      tag_49\n      jump\t// in\n    tag_47:\n      mload(0x40)\n      tag_50\n      swap2\n      swap1\n      tag_51\n      jump\t// in\n    tag_50:\n      mload(0x40)\n      dup1\n      swap2\n      sub\n      swap1\n      return\n        /* \"BookStore.sol\":4007:4398  function confirmPurchase(uint256 _bookId, uint256 _quantity)public onlyOwner{... */\n    tag_9:\n      callvalue\n      dup1\n      iszero\n      tag_52\n      jumpi\n      0x00\n      dup1\n      revert\n    tag_52:\n      pop\n      tag_53\n      0x04\n      dup1\n      calldatasize\n      sub\n      dup2\n      add\n      swap1\n      tag_54\n      swap2\n      swap1\n      tag_16\n      jump\t// in\n    tag_54:\n      tag_55\n      jump\t// in\n    tag_53:\n      stop\n        /* \"@openzeppelin/contracts/access/Ownable.sol\":1638:1723  function owner() public view virtual returns (address) {... */\n    tag_10:\n      callvalue\n      dup1\n      iszero\n      tag_56\n      jumpi\n      0x00\n      dup1\n      revert\n    tag_56:\n      pop\n      tag_57\n      tag_58\n      jump\t// in\n    tag_57:\n      mload(0x40)\n      tag_59\n      swap2\n      swap1\n      tag_51\n      jump\t// in\n    tag_59:\n      mload(0x40)\n      dup1\n      swap2\n      sub\n      swap1\n      return\n        /* \"@openzeppelin/contracts/access/Ownable.sol\":2543:2758  function transferOwnership(address newOwner) public virtual onlyOwner {... */\n    tag_11:\n      callvalue\n      dup1\n      iszero\n      tag_60\n      jumpi\n      0x00\n      dup1\n      revert\n    tag_60:\n      pop\n      tag_61\n      0x04\n      dup1\n      calldatasize\n      sub\n      dup2\n      add\n      swap1\n      tag_62\n      swap2\n      swap1\n      tag_28\n      jump\t// in\n    tag_62:\n      tag_63\n      jump\t// in\n    tag_61:\n      stop\n        /* \"BookStore.sol\":2515:3048  function addBook(uint256 _bookId, string memory _title, string memory _author, uint256 _price, uint256 _stock) public  onlyOwner{... */\n    tag_12:\n      callvalue\n      dup1\n      iszero\n      tag_64\n      jumpi\n      0x00\n      dup1\n      revert\n    tag_64:\n      pop\n      tag_65\n      0x04\n      dup1\n      calldatasize\n      sub\n      dup2\n      add\n      swap1\n      tag_66\n      swap2\n      swap1\n      tag_67\n      jump\t// in\n    tag_66:\n      tag_68\n      jump\t// in\n    tag_65:\n      stop\n        /* \"BookStore.sol\":3349:4002  function buyBook(uint256 _bookId, uint256 _quantity) public payable{... */\n    tag_17:\n        /* \"BookStore.sol\":3426:3443  Book storage book */\n      0x00\n        /* \"BookStore.sol\":3446:3451  books */\n      0x01\n        /* \"BookStore.sol\":3446:3460  books[_bookId] */\n      0x00\n        /* \"BookStore.sol\":3452:3459  _bookId */\n      dup5\n        /* \"BookStore.sol\":3446:3460  books[_bookId] */\n      dup2\n      mstore\n      0x20\n      add\n      swap1\n      dup2\n      mstore\n      0x20\n      add\n      0x00\n      keccak256\n        /* \"BookStore.sol\":3426:3460  Book storage book = books[_bookId] */\n      swap1\n      pop\n        /* \"BookStore.sol\":3478:3482  book */\n      dup1\n        /* \"BookStore.sol\":3478:3494  book.isAvailable */\n      0x04\n      add\n      0x00\n      swap1\n      sload\n      swap1\n      0x0100\n      exp\n      swap1\n      div\n      0xff\n      and\n        /* \"BookStore.sol\":3470:3526  require(book.isAvailable, \"This book is not available.\") */\n      tag_70\n      jumpi\n      mload(0x40)\n      0x08c379a000000000000000000000000000000000000000000000000000000000\n      dup2\n      mstore\n      0x04\n      add\n      tag_71\n      swap1\n      tag_72\n      jump\t// in\n    tag_71:\n      mload(0x40)\n      dup1\n      swap2\n      sub\n      swap1\n      revert\n    tag_70:\n        /* \"BookStore.sol\":3558:3567  _quantity */\n      dup2\n        /* \"BookStore.sol\":3544:3548  book */\n      dup2\n        /* \"BookStore.sol\":3544:3554  book.stock */\n      0x03\n      add\n      sload\n        /* \"BookStore.sol\":3544:3567  book.stock >= _quantity */\n      lt\n      iszero\n        /* \"BookStore.sol\":3536:3599  require(book.stock >= _quantity, \"Not enough stock available.\") */\n      tag_73\n      jumpi\n      mload(0x40)\n      0x08c379a000000000000000000000000000000000000000000000000000000000\n      dup2\n      mstore\n      0x04\n      add\n      tag_74\n      swap1\n      tag_75\n      jump\t// in\n    tag_74:\n      mload(0x40)\n      dup1\n      swap2\n      sub\n      swap1\n      revert\n    tag_73:\n        /* \"BookStore.sol\":3610:3625  uint totalPrice */\n      0x00\n        /* \"BookStore.sol\":3655:3661  10**18 */\n      0x0de0b6b3a7640000\n        /* \"BookStore.sol\":3643:3652  _quantity */\n      dup4\n        /* \"BookStore.sol\":3643:3661  _quantity / 10**18 */\n      tag_76\n      swap2\n      swap1\n      tag_77\n      jump\t// in\n    tag_76:\n        /* \"BookStore.sol\":3628:3632  book */\n      dup3\n        /* \"BookStore.sol\":3628:3638  book.price */\n      0x02\n      add\n      sload\n        /* \"BookStore.sol\":3628:3662  book.price  * (_quantity / 10**18) */\n      tag_78\n      swap2\n      swap1\n      tag_79\n      jump\t// in\n    tag_78:\n        /* \"BookStore.sol\":3610:3662  uint totalPrice = book.price  * (_quantity / 10**18) */\n      swap1\n      pop\n        /* \"BookStore.sol\":3694:3704  totalPrice */\n      dup1\n        /* \"BookStore.sol\":3681:3690  msg.value */\n      callvalue\n        /* \"BookStore.sol\":3681:3704  msg.value == totalPrice */\n      eq\n        /* \"BookStore.sol\":3673:3735  require(msg.value == totalPrice , \" Incorrect payment amount\") */\n      tag_80\n      jumpi\n      mload(0x40)\n      0x08c379a000000000000000000000000000000000000000000000000000000000\n      dup2\n      mstore\n      0x04\n      add\n      tag_81\n      swap1\n      tag_82\n      jump\t// in\n    tag_81:\n      mload(0x40)\n      dup1\n      swap2\n      sub\n      swap1\n      revert\n    tag_80:\n        /* \"BookStore.sol\":3926:3936  msg.sender */\n      caller\n        /* \"BookStore.sol\":3899:3948  PurchaseInitiated(_bookId, msg.sender, _quantity) */\n      0xffffffffffffffffffffffffffffffffffffffff\n      and\n        /* \"BookStore.sol\":3917:3924  _bookId */\n      dup5\n        /* \"BookStore.sol\":3899:3948  PurchaseInitiated(_bookId, msg.sender, _quantity) */\n      0x6c8d68b838f247ed7bcb21ea277e2e9304099fc25d2a89d666fb64482971e0fc\n        /* \"BookStore.sol\":3938:3947  _quantity */\n      dup6\n        /* \"BookStore.sol\":3899:3948  PurchaseInitiated(_bookId, msg.sender, _quantity) */\n      mload(0x40)\n      tag_83\n      swap2\n      swap1\n      tag_24\n      jump\t// in\n    tag_83:\n      mload(0x40)\n      dup1\n      swap2\n      sub\n      swap1\n      log3\n        /* \"BookStore.sol\":3967:3974  owner() */\n      tag_84\n        /* \"BookStore.sol\":3967:3972  owner */\n      tag_58\n        /* \"BookStore.sol\":3967:3974  owner() */\n      jump\t// in\n    tag_84:\n        /* \"BookStore.sol\":3958:3984  payable (owner()).transfer */\n      0xffffffffffffffffffffffffffffffffffffffff\n      and\n        /* \"BookStore.sol\":3958:3995  payable (owner()).transfer(msg.value) */\n      0x08fc\n        /* \"BookStore.sol\":3985:3994  msg.value */\n      callvalue\n        /* \"BookStore.sol\":3958:3995  payable (owner()).transfer(msg.value) */\n      swap1\n      dup2\n      iszero\n      mul\n      swap1\n      mload(0x40)\n      0x00\n      mload(0x40)\n      dup1\n      dup4\n      sub\n      dup2\n      dup6\n      dup9\n      dup9\n      call\n      swap4\n      pop\n      pop\n      pop\n      pop\n      iszero\n      dup1\n      iszero\n      tag_86\n      jumpi\n      returndatasize\n      0x00\n      dup1\n      returndatacopy\n      revert(0x00, returndatasize)\n    tag_86:\n      pop\n        /* \"BookStore.sol\":3416:4002  {... */\n      pop\n      pop\n        /* \"BookStore.sol\":3349:4002  function buyBook(uint256 _bookId, uint256 _quantity) public payable{... */\n      pop\n      pop\n      jump\t// out\n        /* \"BookStore.sol\":1961:1985  uint256[] public bookIds */\n    tag_22:\n      0x03\n      dup2\n      dup2\n      sload\n      dup2\n      lt\n      tag_87\n      jumpi\n      0x00\n      dup1\n      revert\n    tag_87:\n      swap1\n      0x00\n      mstore\n      keccak256(0x00, 0x20)\n      add\n      0x00\n      swap2\n      pop\n      swap1\n      pop\n      sload\n      dup2\n      jump\t// out\n        /* \"BookStore.sol\":1908:1953  mapping (address => bool ) public subscribers */\n    tag_29:\n      mstore(0x20, 0x02)\n      dup1\n      0x00\n      mstore\n      keccak256(0x00, 0x40)\n      0x00\n      swap2\n      pop\n      sload\n      swap1\n      0x0100\n      exp\n      swap1\n      div\n      0xff\n      and\n      dup2\n      jump\t// out\n        /* \"BookStore.sol\":3057:3301  function getBooks(uint256 _bookId) public view returns (string memory, string memory, uint256, uint256, bool) {... */\n    tag_35:\n        /* \"BookStore.sol\":3113:3126  string memory */\n      0x60\n        /* \"BookStore.sol\":3128:3141  string memory */\n      dup1\n        /* \"BookStore.sol\":3143:3150  uint256 */\n      0x00\n        /* \"BookStore.sol\":3152:3159  uint256 */\n      dup1\n        /* \"BookStore.sol\":3161:3165  bool */\n      0x00\n        /* \"BookStore.sol\":3177:3193  Book memory book */\n      dup1\n        /* \"BookStore.sol\":3196:3201  books */\n      0x01\n        /* \"BookStore.sol\":3196:3210  books[_bookId] */\n      0x00\n        /* \"BookStore.sol\":3202:3209  _bookId */\n      dup9\n        /* \"BookStore.sol\":3196:3210  books[_bookId] */\n      dup2\n      mstore\n      0x20\n      add\n      swap1\n      dup2\n      mstore\n      0x20\n      add\n      0x00\n      keccak256\n        /* \"BookStore.sol\":3177:3210  Book memory book = books[_bookId] */\n      mload(0x40)\n      dup1\n      0xa0\n      add\n      0x40\n      mstore\n      swap1\n      dup2\n      0x00\n      dup3\n      add\n      dup1\n      sload\n      tag_90\n      swap1\n      tag_91\n      jump\t// in\n    tag_90:\n      dup1\n      0x1f\n      add\n      0x20\n      dup1\n      swap2\n      div\n      mul\n      0x20\n      add\n      mload(0x40)\n      swap1\n      dup2\n      add\n      0x40\n      mstore\n      dup1\n      swap3\n      swap2\n      swap1\n      dup2\n      dup2\n      mstore\n      0x20\n      add\n      dup3\n      dup1\n      sload\n      tag_92\n      swap1\n      tag_91\n      jump\t// in\n    tag_92:\n      dup1\n      iszero\n      tag_93\n      jumpi\n      dup1\n      0x1f\n      lt\n      tag_94\n      jumpi\n      0x0100\n      dup1\n      dup4\n      sload\n      div\n      mul\n      dup4\n      mstore\n      swap2\n      0x20\n      add\n      swap2\n      jump(tag_93)\n    tag_94:\n      dup3\n      add\n      swap2\n      swap1\n      0x00\n      mstore\n      keccak256(0x00, 0x20)\n      swap1\n    tag_95:\n      dup2\n      sload\n      dup2\n      mstore\n      swap1\n      0x01\n      add\n      swap1\n      0x20\n      add\n      dup1\n      dup4\n      gt\n      tag_95\n      jumpi\n      dup3\n      swap1\n      sub\n      0x1f\n      and\n      dup3\n      add\n      swap2\n    tag_93:\n      pop\n      pop\n      pop\n      pop\n      pop\n      dup2\n      mstore\n      0x20\n      add\n      0x01\n      dup3\n      add\n      dup1\n      sload\n      tag_96\n      swap1\n      tag_91\n      jump\t// in\n    tag_96:\n      dup1\n      0x1f\n      add\n      0x20\n      dup1\n      swap2\n      div\n      mul\n      0x20\n      add\n      mload(0x40)\n      swap1\n      dup2\n      add\n      0x40\n      mstore\n      dup1\n      swap3\n      swap2\n      swap1\n      dup2\n      dup2\n      mstore\n      0x20\n      add\n      dup3\n      dup1\n      sload\n      tag_97\n      swap1\n      tag_91\n      jump\t// in\n    tag_97:\n      dup1\n      iszero\n      tag_98\n      jumpi\n      dup1\n      0x1f\n      lt\n      tag_99\n      jumpi\n      0x0100\n      dup1\n      dup4\n      sload\n      div\n      mul\n      dup4\n      mstore\n      swap2\n      0x20\n      add\n      swap2\n      jump(tag_98)\n    tag_99:\n      dup3\n      add\n      swap2\n      swap1\n      0x00\n      mstore\n      keccak256(0x00, 0x20)\n      swap1\n    tag_100:\n      dup2\n      sload\n      dup2\n      mstore\n      swap1\n      0x01\n      add\n      swap1\n      0x20\n      add\n      dup1\n      dup4\n      gt\n      tag_100\n      jumpi\n      dup3\n      swap1\n      sub\n      0x1f\n      and\n      dup3\n      add\n      swap2\n    tag_98:\n      pop\n      pop\n      pop\n      pop\n      pop\n      dup2\n      mstore\n      0x20\n      add\n      0x02\n      dup3\n      add\n      sload\n      dup2\n      mstore\n      0x20\n      add\n      0x03\n      dup3\n      add\n      sload\n      dup2\n      mstore\n      0x20\n      add\n      0x04\n      dup3\n      add\n      0x00\n      swap1\n      sload\n      swap1\n      0x0100\n      exp\n      swap1\n      div\n      0xff\n      and\n      iszero\n      iszero\n      iszero\n      iszero\n      dup2\n      mstore\n      pop\n      pop\n      swap1\n      pop\n        /* \"BookStore.sol\":3228:3232  book */\n      dup1\n        /* \"BookStore.sol\":3228:3238  book.title */\n      0x00\n      add\n      mload\n        /* \"BookStore.sol\":3240:3244  book */\n      dup2\n        /* \"BookStore.sol\":3240:3251  book.author */\n      0x20\n      add\n      mload\n        /* \"BookStore.sol\":3253:3257  book */\n      dup3\n        /* \"BookStore.sol\":3253:3263  book.price */\n      0x40\n      add\n      mload\n        /* \"BookStore.sol\":3265:3269  book */\n      dup4\n        /* \"BookStore.sol\":3265:3275  book.stock */\n      0x60\n      add\n      mload\n        /* \"BookStore.sol\":3277:3281  book */\n      dup5\n        /* \"BookStore.sol\":3277:3293  book.isAvailable */\n      0x80\n      add\n      mload\n        /* \"BookStore.sol\":3220:3294  return (book.title, book.author, book.price, book.stock, book.isAvailable) */\n      swap6\n      pop\n      swap6\n      pop\n      swap6\n      pop\n      swap6\n      pop\n      swap6\n      pop\n      pop\n        /* \"BookStore.sol\":3057:3301  function getBooks(uint256 _bookId) public view returns (string memory, string memory, uint256, uint256, bool) {... */\n      swap2\n      swap4\n      swap6\n      swap1\n      swap3\n      swap5\n      pop\n      jump\t// out\n        /* \"BookStore.sol\":1865:1902  mapping(uint256 => Book) public books */\n    tag_41:\n      mstore(0x20, 0x01)\n      dup1\n      0x00\n      mstore\n      keccak256(0x00, 0x40)\n      0x00\n      swap2\n      pop\n      swap1\n      pop\n      dup1\n      0x00\n      add\n      dup1\n      sload\n      tag_101\n      swap1\n      tag_91\n      jump\t// in\n    tag_101:\n      dup1\n      0x1f\n      add\n      0x20\n      dup1\n      swap2\n      div\n      mul\n      0x20\n      add\n      mload(0x40)\n      swap1\n      dup2\n      add\n      0x40\n      mstore\n      dup1\n      swap3\n      swap2\n      swap1\n      dup2\n      dup2\n      mstore\n      0x20\n      add\n      dup3\n      dup1\n      sload\n      tag_102\n      swap1\n      tag_91\n      jump\t// in\n    tag_102:\n      dup1\n      iszero\n      tag_103\n      jumpi\n      dup1\n      0x1f\n      lt\n      tag_104\n      jumpi\n      0x0100\n      dup1\n      dup4\n      sload\n      div\n      mul\n      dup4\n      mstore\n      swap2\n      0x20\n      add\n      swap2\n      jump(tag_103)\n    tag_104:\n      dup3\n      add\n      swap2\n      swap1\n      0x00\n      mstore\n      keccak256(0x00, 0x20)\n      swap1\n    tag_105:\n      dup2\n      sload\n      dup2\n      mstore\n      swap1\n      0x01\n      add\n      swap1\n      0x20\n      add\n      dup1\n      dup4\n      gt\n      tag_105\n      jumpi\n      dup3\n      swap1\n      sub\n      0x1f\n      and\n      dup3\n      add\n      swap2\n    tag_103:\n      pop\n      pop\n      pop\n      pop\n      pop\n      swap1\n      dup1\n      0x01\n      add\n      dup1\n      sload\n      tag_106\n      swap1\n      tag_91\n      jump\t// in\n    tag_106:\n      dup1\n      0x1f\n      add\n      0x20\n      dup1\n      swap2\n      div\n      mul\n      0x20\n      add\n      mload(0x40)\n      swap1\n      dup2\n      add\n      0x40\n      mstore\n      dup1\n      swap3\n      swap2\n      swap1\n      dup2\n      dup2\n      mstore\n      0x20\n      add\n      dup3\n      dup1\n      sload\n      tag_107\n      swap1\n      tag_91\n      jump\t// in\n    tag_107:\n      dup1\n      iszero\n      tag_108\n      jumpi\n      dup1\n      0x1f\n      lt\n      tag_109\n      jumpi\n      0x0100\n      dup1\n      dup4\n      sload\n      div\n      mul\n      dup4\n      mstore\n      swap2\n      0x20\n      add\n      swap2\n      jump(tag_108)\n    tag_109:\n      dup3\n      add\n      swap2\n      swap1\n      0x00\n      mstore\n      keccak256(0x00, 0x20)\n      swap1\n    tag_110:\n      dup2\n      sload\n      dup2\n      mstore\n      swap1\n      0x01\n      add\n      swap1\n      0x20\n      add\n      dup1\n      dup4\n      gt\n      tag_110\n      jumpi\n      dup3\n      swap1\n      sub\n      0x1f\n      and\n      dup3\n      add\n      swap2\n    tag_108:\n      pop\n      pop\n      pop\n      pop\n      pop\n      swap1\n      dup1\n      0x02\n      add\n      sload\n      swap1\n      dup1\n      0x03\n      add\n      sload\n      swap1\n      dup1\n      0x04\n      add\n      0x00\n      swap1\n      sload\n      swap1\n      0x0100\n      exp\n      swap1\n      div\n      0xff\n      and\n      swap1\n      pop\n      dup6\n      jump\t// out\n        /* \"@openzeppelin/contracts/access/Ownable.sol\":2293:2394  function renounceOwnership() public virtual onlyOwner {... */\n    tag_45:\n        /* \"@openzeppelin/contracts/access/Ownable.sol\":1531:1544  _checkOwner() */\n      tag_112\n        /* \"@openzeppelin/contracts/access/Ownable.sol\":1531:1542  _checkOwner */\n      tag_113\n        /* \"@openzeppelin/contracts/access/Ownable.sol\":1531:1544  _checkOwner() */\n      jump\t// in\n    tag_112:\n        /* \"@openzeppelin/contracts/access/Ownable.sol\":2357:2387  _transferOwnership(address(0)) */\n      tag_115\n        /* \"@openzeppelin/contracts/access/Ownable.sol\":2384:2385  0 */\n      0x00\n        /* \"@openzeppelin/contracts/access/Ownable.sol\":2357:2375  _transferOwnership */\n      tag_116\n        /* \"@openzeppelin/contracts/access/Ownable.sol\":2357:2387  _transferOwnership(address(0)) */\n      jump\t// in\n    tag_115:\n        /* \"@openzeppelin/contracts/access/Ownable.sol\":2293:2394  function renounceOwnership() public virtual onlyOwner {... */\n      jump\t// out\n        /* \"BookStore.sol\":1991:2023  address[] public  subscriberList */\n    tag_49:\n      0x04\n      dup2\n      dup2\n      sload\n      dup2\n      lt\n      tag_117\n      jumpi\n      0x00\n      dup1\n      revert\n    tag_117:\n      swap1\n      0x00\n      mstore\n      keccak256(0x00, 0x20)\n      add\n      0x00\n      swap2\n      pop\n      sload\n      swap1\n      0x0100\n      exp\n      swap1\n      div\n      0xffffffffffffffffffffffffffffffffffffffff\n      and\n      dup2\n      jump\t// out\n        /* \"BookStore.sol\":4007:4398  function confirmPurchase(uint256 _bookId, uint256 _quantity)public onlyOwner{... */\n    tag_55:\n        /* \"@openzeppelin/contracts/access/Ownable.sol\":1531:1544  _checkOwner() */\n      tag_120\n        /* \"@openzeppelin/contracts/access/Ownable.sol\":1531:1542  _checkOwner */\n      tag_113\n        /* \"@openzeppelin/contracts/access/Ownable.sol\":1531:1544  _checkOwner() */\n      jump\t// in\n    tag_120:\n        /* \"BookStore.sol\":4093:4110  Book storage book */\n      0x00\n        /* \"BookStore.sol\":4113:4118  books */\n      0x01\n        /* \"BookStore.sol\":4113:4127  books[_bookId] */\n      0x00\n        /* \"BookStore.sol\":4119:4126  _bookId */\n      dup5\n        /* \"BookStore.sol\":4113:4127  books[_bookId] */\n      dup2\n      mstore\n      0x20\n      add\n      swap1\n      dup2\n      mstore\n      0x20\n      add\n      0x00\n      keccak256\n        /* \"BookStore.sol\":4093:4127  Book storage book = books[_bookId] */\n      swap1\n      pop\n        /* \"BookStore.sol\":4159:4168  _quantity */\n      dup2\n        /* \"BookStore.sol\":4145:4149  book */\n      dup2\n        /* \"BookStore.sol\":4145:4155  book.stock */\n      0x03\n      add\n      sload\n        /* \"BookStore.sol\":4145:4168  book.stock >= _quantity */\n      lt\n      iszero\n        /* \"BookStore.sol\":4137:4209  require(book.stock >= _quantity,\"not enought stock to confirm purchase\") */\n      tag_122\n      jumpi\n      mload(0x40)\n      0x08c379a000000000000000000000000000000000000000000000000000000000\n      dup2\n      mstore\n      0x04\n      add\n      tag_123\n      swap1\n      tag_124\n      jump\t// in\n    tag_123:\n      mload(0x40)\n      dup1\n      swap2\n      sub\n      swap1\n      revert\n    tag_122:\n        /* \"BookStore.sol\":4240:4249  _quantity */\n      dup2\n        /* \"BookStore.sol\":4227:4231  book */\n      dup2\n        /* \"BookStore.sol\":4227:4237  book.stock */\n      0x03\n      add\n      0x00\n        /* \"BookStore.sol\":4227:4249  book.stock -=_quantity */\n      dup3\n      dup3\n      sload\n      tag_125\n      swap2\n      swap1\n      tag_126\n      jump\t// in\n    tag_125:\n      swap3\n      pop\n      pop\n      dup2\n      swap1\n      sstore\n      pop\n        /* \"BookStore.sol\":4277:4278  0 */\n      0x00\n        /* \"BookStore.sol\":4263:4267  book */\n      dup2\n        /* \"BookStore.sol\":4263:4273  book.stock */\n      0x03\n      add\n      sload\n        /* \"BookStore.sol\":4263:4278  book.stock == 0 */\n      sub\n        /* \"BookStore.sol\":4259:4328  if (book.stock == 0){... */\n      tag_127\n      jumpi\n        /* \"BookStore.sol\":4312:4317  false */\n      0x00\n        /* \"BookStore.sol\":4293:4297  book */\n      dup2\n        /* \"BookStore.sol\":4293:4309  book.isAvailable */\n      0x04\n      add\n      0x00\n        /* \"BookStore.sol\":4293:4317  book.isAvailable = false */\n      0x0100\n      exp\n      dup2\n      sload\n      dup2\n      0xff\n      mul\n      not\n      and\n      swap1\n      dup4\n      iszero\n      iszero\n      mul\n      or\n      swap1\n      sstore\n      pop\n        /* \"BookStore.sol\":4259:4328  if (book.stock == 0){... */\n    tag_127:\n        /* \"BookStore.sol\":4369:4379  msg.sender */\n      caller\n        /* \"BookStore.sol\":4342:4391  PurchaseConfirmed(_bookId, msg.sender, _quantity) */\n      0xffffffffffffffffffffffffffffffffffffffff\n      and\n        /* \"BookStore.sol\":4360:4367  _bookId */\n      dup4\n        /* \"BookStore.sol\":4342:4391  PurchaseConfirmed(_bookId, msg.sender, _quantity) */\n      0x64d3c1cd49b6dedf0828bb9ccdeddcb5c406529c38385a4255e1938cdb77cbbb\n        /* \"BookStore.sol\":4381:4390  _quantity */\n      dup5\n        /* \"BookStore.sol\":4342:4391  PurchaseConfirmed(_bookId, msg.sender, _quantity) */\n      mload(0x40)\n      tag_128\n      swap2\n      swap1\n      tag_24\n      jump\t// in\n    tag_128:\n      mload(0x40)\n      dup1\n      swap2\n      sub\n      swap1\n      log3\n        /* \"BookStore.sol\":4083:4398  {... */\n      pop\n        /* \"BookStore.sol\":4007:4398  function confirmPurchase(uint256 _bookId, uint256 _quantity)public onlyOwner{... */\n      pop\n      pop\n      jump\t// out\n        /* \"@openzeppelin/contracts/access/Ownable.sol\":1638:1723  function owner() public view virtual returns (address) {... */\n    tag_58:\n        /* \"@openzeppelin/contracts/access/Ownable.sol\":1684:1691  address */\n      0x00\n        /* \"@openzeppelin/contracts/access/Ownable.sol\":1710:1716  _owner */\n      dup1\n      0x00\n      swap1\n      sload\n      swap1\n      0x0100\n      exp\n      swap1\n      div\n      0xffffffffffffffffffffffffffffffffffffffff\n      and\n        /* \"@openzeppelin/contracts/access/Ownable.sol\":1703:1716  return _owner */\n      swap1\n      pop\n        /* \"@openzeppelin/contracts/access/Ownable.sol\":1638:1723  function owner() public view virtual returns (address) {... */\n      swap1\n      jump\t// out\n        /* \"@openzeppelin/contracts/access/Ownable.sol\":2543:2758  function transferOwnership(address newOwner) public virtual onlyOwner {... */\n    tag_63:\n        /* \"@openzeppelin/contracts/access/Ownable.sol\":1531:1544  _checkOwner() */\n      tag_131\n        /* \"@openzeppelin/contracts/access/Ownable.sol\":1531:1542  _checkOwner */\n      tag_113\n        /* \"@openzeppelin/contracts/access/Ownable.sol\":1531:1544  _checkOwner() */\n      jump\t// in\n    tag_131:\n        /* \"@openzeppelin/contracts/access/Ownable.sol\":2647:2648  0 */\n      0x00\n        /* \"@openzeppelin/contracts/access/Ownable.sol\":2627:2649  newOwner == address(0) */\n      0xffffffffffffffffffffffffffffffffffffffff\n      and\n        /* \"@openzeppelin/contracts/access/Ownable.sol\":2627:2635  newOwner */\n      dup2\n        /* \"@openzeppelin/contracts/access/Ownable.sol\":2627:2649  newOwner == address(0) */\n      0xffffffffffffffffffffffffffffffffffffffff\n      and\n      sub\n        /* \"@openzeppelin/contracts/access/Ownable.sol\":2623:2714  if (newOwner == address(0)) {... */\n      tag_133\n      jumpi\n        /* \"@openzeppelin/contracts/access/Ownable.sol\":2700:2701  0 */\n      0x00\n        /* \"@openzeppelin/contracts/access/Ownable.sol\":2672:2703  OwnableInvalidOwner(address(0)) */\n      mload(0x40)\n      0x1e4fbdf700000000000000000000000000000000000000000000000000000000\n      dup2\n      mstore\n      0x04\n      add\n      tag_134\n      swap2\n      swap1\n      tag_51\n      jump\t// in\n    tag_134:\n      mload(0x40)\n      dup1\n      swap2\n      sub\n      swap1\n      revert\n        /* \"@openzeppelin/contracts/access/Ownable.sol\":2623:2714  if (newOwner == address(0)) {... */\n    tag_133:\n        /* \"@openzeppelin/contracts/access/Ownable.sol\":2723:2751  _transferOwnership(newOwner) */\n      tag_135\n        /* \"@openzeppelin/contracts/access/Ownable.sol\":2742:2750  newOwner */\n      dup2\n        /* \"@openzeppelin/contracts/access/Ownable.sol\":2723:2741  _transferOwnership */\n      tag_116\n        /* \"@openzeppelin/contracts/access/Ownable.sol\":2723:2751  _transferOwnership(newOwner) */\n      jump\t// in\n    tag_135:\n        /* \"@openzeppelin/contracts/access/Ownable.sol\":2543:2758  function transferOwnership(address newOwner) public virtual onlyOwner {... */\n      pop\n      jump\t// out\n        /* \"BookStore.sol\":2515:3048  function addBook(uint256 _bookId, string memory _title, string memory _author, uint256 _price, uint256 _stock) public  onlyOwner{... */\n    tag_68:\n        /* \"@openzeppelin/contracts/access/Ownable.sol\":1531:1544  _checkOwner() */\n      tag_137\n        /* \"@openzeppelin/contracts/access/Ownable.sol\":1531:1542  _checkOwner */\n      tag_113\n        /* \"@openzeppelin/contracts/access/Ownable.sol\":1531:1544  _checkOwner() */\n      jump\t// in\n    tag_137:\n        /* \"BookStore.sol\":2685:2686  0 */\n      0x00\n        /* \"BookStore.sol\":2661:2666  books */\n      0x01\n        /* \"BookStore.sol\":2661:2675  books[_bookId] */\n      0x00\n        /* \"BookStore.sol\":2667:2674  _bookId */\n      dup8\n        /* \"BookStore.sol\":2661:2675  books[_bookId] */\n      dup2\n      mstore\n      0x20\n      add\n      swap1\n      dup2\n      mstore\n      0x20\n      add\n      0x00\n      keccak256\n        /* \"BookStore.sol\":2661:2681  books[_bookId].price */\n      0x02\n      add\n      sload\n        /* \"BookStore.sol\":2661:2686  books[_bookId].price == 0 */\n      eq\n        /* \"BookStore.sol\":2653:2724  require(books[_bookId].price == 0, \"Book already exists with this ID.\") */\n      tag_139\n      jumpi\n      mload(0x40)\n      0x08c379a000000000000000000000000000000000000000000000000000000000\n      dup2\n      mstore\n      0x04\n      add\n      tag_140\n      swap1\n      tag_141\n      jump\t// in\n    tag_140:\n      mload(0x40)\n      dup1\n      swap2\n      sub\n      swap1\n      revert\n    tag_139:\n        /* \"BookStore.sol\":2751:2914  Book({... */\n      mload(0x40)\n      dup1\n      0xa0\n      add\n      0x40\n      mstore\n      dup1\n        /* \"BookStore.sol\":2777:2783  _title */\n      dup6\n        /* \"BookStore.sol\":2751:2914  Book({... */\n      dup2\n      mstore\n      0x20\n      add\n        /* \"BookStore.sol\":2805:2812  _author */\n      dup5\n        /* \"BookStore.sol\":2751:2914  Book({... */\n      dup2\n      mstore\n      0x20\n      add\n        /* \"BookStore.sol\":2833:2839  _price */\n      dup4\n        /* \"BookStore.sol\":2751:2914  Book({... */\n      dup2\n      mstore\n      0x20\n      add\n        /* \"BookStore.sol\":2860:2866  _stock */\n      dup3\n        /* \"BookStore.sol\":2751:2914  Book({... */\n      dup2\n      mstore\n      0x20\n      add\n        /* \"BookStore.sol\":2902:2903  0 */\n      0x00\n        /* \"BookStore.sol\":2893:2899  _stock */\n      dup4\n        /* \"BookStore.sol\":2893:2903  _stock > 0 */\n      gt\n        /* \"BookStore.sol\":2751:2914  Book({... */\n      iszero\n      iszero\n      dup2\n      mstore\n      pop\n        /* \"BookStore.sol\":2734:2739  books */\n      0x01\n        /* \"BookStore.sol\":2734:2748  books[_bookId] */\n      0x00\n        /* \"BookStore.sol\":2740:2747  _bookId */\n      dup8\n        /* \"BookStore.sol\":2734:2748  books[_bookId] */\n      dup2\n      mstore\n      0x20\n      add\n      swap1\n      dup2\n      mstore\n      0x20\n      add\n      0x00\n      keccak256\n        /* \"BookStore.sol\":2734:2914  books[_bookId] = Book({... */\n      0x00\n      dup3\n      add\n      mload\n      dup2\n      0x00\n      add\n      swap1\n      dup2\n      tag_142\n      swap2\n      swap1\n      tag_143\n      jump\t// in\n    tag_142:\n      pop\n      0x20\n      dup3\n      add\n      mload\n      dup2\n      0x01\n      add\n      swap1\n      dup2\n      tag_144\n      swap2\n      swap1\n      tag_143\n      jump\t// in\n    tag_144:\n      pop\n      0x40\n      dup3\n      add\n      mload\n      dup2\n      0x02\n      add\n      sstore\n      0x60\n      dup3\n      add\n      mload\n      dup2\n      0x03\n      add\n      sstore\n      0x80\n      dup3\n      add\n      mload\n      dup2\n      0x04\n      add\n      exp(0x0100, 0x00)\n      dup2\n      sload\n      dup2\n      0xff\n      mul\n      not\n      and\n      swap1\n      dup4\n      iszero\n      iszero\n      mul\n      or\n      swap1\n      sstore\n      pop\n      swap1\n      pop\n      pop\n        /* \"BookStore.sol\":2924:2931  bookIds */\n      0x03\n        /* \"BookStore.sol\":2937:2944  _bookId */\n      dup6\n        /* \"BookStore.sol\":2924:2945  bookIds.push(_bookId) */\n      swap1\n      dup1\n      0x01\n      dup2\n      sload\n      add\n      dup1\n      dup3\n      sstore\n      dup1\n      swap2\n      pop\n      pop\n      0x01\n      swap1\n      sub\n      swap1\n      0x00\n      mstore\n      keccak256(0x00, 0x20)\n      add\n      0x00\n      swap1\n      swap2\n      swap1\n      swap2\n      swap1\n      swap2\n      pop\n      sstore\n        /* \"BookStore.sol\":2991:2998  _bookId */\n      dup5\n        /* \"BookStore.sol\":2981:3041  BookAdded(_bookId, _title, _author, _price*(10**18), _stock) */\n      0x722c04650224f771c04ec5712c74689980b3ddb4eaa233cd8f9c72d7da7fbe29\n        /* \"BookStore.sol\":3000:3006  _title */\n      dup6\n        /* \"BookStore.sol\":3008:3015  _author */\n      dup6\n        /* \"BookStore.sol\":3025:3031  10**18 */\n      0x0de0b6b3a7640000\n        /* \"BookStore.sol\":3017:3023  _price */\n      dup7\n        /* \"BookStore.sol\":3017:3032  _price*(10**18) */\n      tag_146\n      swap2\n      swap1\n      tag_79\n      jump\t// in\n    tag_146:\n        /* \"BookStore.sol\":3034:3040  _stock */\n      dup6\n        /* \"BookStore.sol\":2981:3041  BookAdded(_bookId, _title, _author, _price*(10**18), _stock) */\n      mload(0x40)\n      tag_147\n      swap5\n      swap4\n      swap3\n      swap2\n      swap1\n      tag_148\n      jump\t// in\n    tag_147:\n      mload(0x40)\n      dup1\n      swap2\n      sub\n      swap1\n      log2\n        /* \"BookStore.sol\":2515:3048  function addBook(uint256 _bookId, string memory _title, string memory _author, uint256 _price, uint256 _stock) public  onlyOwner{... */\n      pop\n      pop\n      pop\n      pop\n      pop\n      jump\t// out\n        /* \"@openzeppelin/contracts/access/Ownable.sol\":1796:1958  function _checkOwner() internal view virtual {... */\n    tag_113:\n        /* \"@openzeppelin/contracts/access/Ownable.sol\":1866:1878  _msgSender() */\n      tag_150\n        /* \"@openzeppelin/contracts/access/Ownable.sol\":1866:1876  _msgSender */\n      tag_151\n        /* \"@openzeppelin/contracts/access/Ownable.sol\":1866:1878  _msgSender() */\n      jump\t// in\n    tag_150:\n        /* \"@openzeppelin/contracts/access/Ownable.sol\":1855:1878  owner() != _msgSender() */\n      0xffffffffffffffffffffffffffffffffffffffff\n      and\n        /* \"@openzeppelin/contracts/access/Ownable.sol\":1855:1862  owner() */\n      tag_152\n        /* \"@openzeppelin/contracts/access/Ownable.sol\":1855:1860  owner */\n      tag_58\n        /* \"@openzeppelin/contracts/access/Ownable.sol\":1855:1862  owner() */\n      jump\t// in\n    tag_152:\n        /* \"@openzeppelin/contracts/access/Ownable.sol\":1855:1878  owner() != _msgSender() */\n      0xffffffffffffffffffffffffffffffffffffffff\n      and\n      eq\n        /* \"@openzeppelin/contracts/access/Ownable.sol\":1851:1952  if (owner() != _msgSender()) {... */\n      tag_153\n      jumpi\n        /* \"@openzeppelin/contracts/access/Ownable.sol\":1928:1940  _msgSender() */\n      tag_154\n        /* \"@openzeppelin/contracts/access/Ownable.sol\":1928:1938  _msgSender */\n      tag_151\n        /* \"@openzeppelin/contracts/access/Ownable.sol\":1928:1940  _msgSender() */\n      jump\t// in\n    tag_154:\n        /* \"@openzeppelin/contracts/access/Ownable.sol\":1901:1941  OwnableUnauthorizedAccount(_msgSender()) */\n      mload(0x40)\n      0x118cdaa700000000000000000000000000000000000000000000000000000000\n      dup2\n      mstore\n      0x04\n      add\n      tag_155\n      swap2\n      swap1\n      tag_51\n      jump\t// in\n    tag_155:\n      mload(0x40)\n      dup1\n      swap2\n      sub\n      swap1\n      revert\n        /* \"@openzeppelin/contracts/access/Ownable.sol\":1851:1952  if (owner() != _msgSender()) {... */\n    tag_153:\n        /* \"@openzeppelin/contracts/access/Ownable.sol\":1796:1958  function _checkOwner() internal view virtual {... */\n      jump\t// out\n        /* \"@openzeppelin/contracts/access/Ownable.sol\":2912:3099  function _transferOwnership(address newOwner) internal virtual {... */\n    tag_116:\n        /* \"@openzeppelin/contracts/access/Ownable.sol\":2985:3001  address oldOwner */\n      0x00\n        /* \"@openzeppelin/contracts/access/Ownable.sol\":3004:3010  _owner */\n      dup1\n      0x00\n      swap1\n      sload\n      swap1\n      0x0100\n      exp\n      swap1\n      div\n      0xffffffffffffffffffffffffffffffffffffffff\n      and\n        /* \"@openzeppelin/contracts/access/Ownable.sol\":2985:3010  address oldOwner = _owner */\n      swap1\n      pop\n        /* \"@openzeppelin/contracts/access/Ownable.sol\":3029:3037  newOwner */\n      dup2\n        /* \"@openzeppelin/contracts/access/Ownable.sol\":3020:3026  _owner */\n      0x00\n      dup1\n        /* \"@openzeppelin/contracts/access/Ownable.sol\":3020:3037  _owner = newOwner */\n      0x0100\n      exp\n      dup2\n      sload\n      dup2\n      0xffffffffffffffffffffffffffffffffffffffff\n      mul\n      not\n      and\n      swap1\n      dup4\n      0xffffffffffffffffffffffffffffffffffffffff\n      and\n      mul\n      or\n      swap1\n      sstore\n      pop\n        /* \"@openzeppelin/contracts/access/Ownable.sol\":3083:3091  newOwner */\n      dup2\n        /* \"@openzeppelin/contracts/access/Ownable.sol\":3052:3092  OwnershipTransferred(oldOwner, newOwner) */\n      0xffffffffffffffffffffffffffffffffffffffff\n      and\n        /* \"@openzeppelin/contracts/access/Ownable.sol\":3073:3081  oldOwner */\n      dup2\n        /* \"@openzeppelin/contracts/access/Ownable.sol\":3052:3092  OwnershipTransferred(oldOwner, newOwner) */\n      0xffffffffffffffffffffffffffffffffffffffff\n      and\n      0x8be0079c531659141344cd1fd0a4f28419497f9722a3daafe3b4186f6b6457e0\n      mload(0x40)\n      mload(0x40)\n      dup1\n      swap2\n      sub\n      swap1\n      log3\n        /* \"@openzeppelin/contracts/access/Ownable.sol\":2975:3099  {... */\n      pop\n        /* \"@openzeppelin/contracts/access/Ownable.sol\":2912:3099  function _transferOwnership(address newOwner) internal virtual {... */\n      pop\n      jump\t// out\n        /* \"@openzeppelin/contracts/utils/Context.sol\":656:752  function _msgSender() internal view virtual returns (address) {... */\n    tag_151:\n        /* \"@openzeppelin/contracts/utils/Context.sol\":709:716  address */\n      0x00\n        /* \"@openzeppelin/contracts/utils/Context.sol\":735:745  msg.sender */\n      caller\n        /* \"@openzeppelin/contracts/utils/Context.sol\":728:745  return msg.sender */\n      swap1\n      pop\n        /* \"@openzeppelin/contracts/utils/Context.sol\":656:752  function _msgSender() internal view virtual returns (address) {... */\n      swap1\n      jump\t// out\n        /* \"#utility.yul\":7:82   */\n    tag_158:\n        /* \"#utility.yul\":40:46   */\n      0x00\n        /* \"#utility.yul\":73:75   */\n      0x40\n        /* \"#utility.yul\":67:76   */\n      mload\n        /* \"#utility.yul\":57:76   */\n      swap1\n      pop\n        /* \"#utility.yul\":7:82   */\n      swap1\n      jump\t// out\n        /* \"#utility.yul\":88:205   */\n    tag_159:\n        /* \"#utility.yul\":197:198   */\n      0x00\n        /* \"#utility.yul\":194:195   */\n      dup1\n        /* \"#utility.yul\":187:199   */\n      revert\n        /* \"#utility.yul\":211:328   */\n    tag_160:\n        /* \"#utility.yul\":320:321   */\n      0x00\n        /* \"#utility.yul\":317:318   */\n      dup1\n        /* \"#utility.yul\":310:322   */\n      revert\n        /* \"#utility.yul\":334:411   */\n    tag_161:\n        /* \"#utility.yul\":371:378   */\n      0x00\n        /* \"#utility.yul\":400:405   */\n      dup2\n        /* \"#utility.yul\":389:405   */\n      swap1\n      pop\n        /* \"#utility.yul\":334:411   */\n      swap2\n      swap1\n      pop\n      jump\t// out\n        /* \"#utility.yul\":417:539   */\n    tag_162:\n        /* \"#utility.yul\":490:514   */\n      tag_220\n        /* \"#utility.yul\":508:513   */\n      dup2\n        /* \"#utility.yul\":490:514   */\n      tag_161\n      jump\t// in\n    tag_220:\n        /* \"#utility.yul\":483:488   */\n      dup2\n        /* \"#utility.yul\":480:515   */\n      eq\n        /* \"#utility.yul\":470:533   */\n      tag_221\n      jumpi\n        /* \"#utility.yul\":529:530   */\n      0x00\n        /* \"#utility.yul\":526:527   */\n      dup1\n        /* \"#utility.yul\":519:531   */\n      revert\n        /* \"#utility.yul\":470:533   */\n    tag_221:\n        /* \"#utility.yul\":417:539   */\n      pop\n      jump\t// out\n        /* \"#utility.yul\":545:684   */\n    tag_163:\n        /* \"#utility.yul\":591:596   */\n      0x00\n        /* \"#utility.yul\":629:635   */\n      dup2\n        /* \"#utility.yul\":616:636   */\n      calldataload\n        /* \"#utility.yul\":607:636   */\n      swap1\n      pop\n        /* \"#utility.yul\":645:678   */\n      tag_223\n        /* \"#utility.yul\":672:677   */\n      dup2\n        /* \"#utility.yul\":645:678   */\n      tag_162\n      jump\t// in\n    tag_223:\n        /* \"#utility.yul\":545:684   */\n      swap3\n      swap2\n      pop\n      pop\n      jump\t// out\n        /* \"#utility.yul\":690:1164   */\n    tag_16:\n        /* \"#utility.yul\":758:764   */\n      0x00\n        /* \"#utility.yul\":766:772   */\n      dup1\n        /* \"#utility.yul\":815:817   */\n      0x40\n        /* \"#utility.yul\":803:812   */\n      dup4\n        /* \"#utility.yul\":794:801   */\n      dup6\n        /* \"#utility.yul\":790:813   */\n      sub\n        /* \"#utility.yul\":786:818   */\n      slt\n        /* \"#utility.yul\":783:902   */\n      iszero\n      tag_225\n      jumpi\n        /* \"#utility.yul\":821:900   */\n      tag_226\n      tag_159\n      jump\t// in\n    tag_226:\n        /* \"#utility.yul\":783:902   */\n    tag_225:\n        /* \"#utility.yul\":941:942   */\n      0x00\n        /* \"#utility.yul\":966:1019   */\n      tag_227\n        /* \"#utility.yul\":1011:1018   */\n      dup6\n        /* \"#utility.yul\":1002:1008   */\n      dup3\n        /* \"#utility.yul\":991:1000   */\n      dup7\n        /* \"#utility.yul\":987:1009   */\n      add\n        /* \"#utility.yul\":966:1019   */\n      tag_163\n      jump\t// in\n    tag_227:\n        /* \"#utility.yul\":956:1019   */\n      swap3\n      pop\n        /* \"#utility.yul\":912:1029   */\n      pop\n        /* \"#utility.yul\":1068:1070   */\n      0x20\n        /* \"#utility.yul\":1094:1147   */\n      tag_228\n        /* \"#utility.yul\":1139:1146   */\n      dup6\n        /* \"#utility.yul\":1130:1136   */\n      dup3\n        /* \"#utility.yul\":1119:1128   */\n      dup7\n        /* \"#utility.yul\":1115:1137   */\n      add\n        /* \"#utility.yul\":1094:1147   */\n      tag_163\n      jump\t// in\n    tag_228:\n        /* \"#utility.yul\":1084:1147   */\n      swap2\n      pop\n        /* \"#utility.yul\":1039:1157   */\n      pop\n        /* \"#utility.yul\":690:1164   */\n      swap3\n      pop\n      swap3\n      swap1\n      pop\n      jump\t// out\n        /* \"#utility.yul\":1170:1499   */\n    tag_21:\n        /* \"#utility.yul\":1229:1235   */\n      0x00\n        /* \"#utility.yul\":1278:1280   */\n      0x20\n        /* \"#utility.yul\":1266:1275   */\n      dup3\n        /* \"#utility.yul\":1257:1264   */\n      dup5\n        /* \"#utility.yul\":1253:1276   */\n      sub\n        /* \"#utility.yul\":1249:1281   */\n      slt\n        /* \"#utility.yul\":1246:1365   */\n      iszero\n      tag_230\n      jumpi\n        /* \"#utility.yul\":1284:1363   */\n      tag_231\n      tag_159\n      jump\t// in\n    tag_231:\n        /* \"#utility.yul\":1246:1365   */\n    tag_230:\n        /* \"#utility.yul\":1404:1405   */\n      0x00\n        /* \"#utility.yul\":1429:1482   */\n      tag_232\n        /* \"#utility.yul\":1474:1481   */\n      dup5\n        /* \"#utility.yul\":1465:1471   */\n      dup3\n        /* \"#utility.yul\":1454:1463   */\n      dup6\n        /* \"#utility.yul\":1450:1472   */\n      add\n        /* \"#utility.yul\":1429:1482   */\n      tag_163\n      jump\t// in\n    tag_232:\n        /* \"#utility.yul\":1419:1482   */\n      swap2\n      pop\n        /* \"#utility.yul\":1375:1492   */\n      pop\n        /* \"#utility.yul\":1170:1499   */\n      swap3\n      swap2\n      pop\n      pop\n      jump\t// out\n        /* \"#utility.yul\":1505:1623   */\n    tag_164:\n        /* \"#utility.yul\":1592:1616   */\n      tag_234\n        /* \"#utility.yul\":1610:1615   */\n      dup2\n        /* \"#utility.yul\":1592:1616   */\n      tag_161\n      jump\t// in\n    tag_234:\n        /* \"#utility.yul\":1587:1590   */\n      dup3\n        /* \"#utility.yul\":1580:1617   */\n      mstore\n        /* \"#utility.yul\":1505:1623   */\n      pop\n      pop\n      jump\t// out\n        /* \"#utility.yul\":1629:1851   */\n    tag_24:\n        /* \"#utility.yul\":1722:1726   */\n      0x00\n        /* \"#utility.yul\":1760:1762   */\n      0x20\n        /* \"#utility.yul\":1749:1758   */\n      dup3\n        /* \"#utility.yul\":1745:1763   */\n      add\n        /* \"#utility.yul\":1737:1763   */\n      swap1\n      pop\n        /* \"#utility.yul\":1773:1844   */\n      tag_236\n        /* \"#utility.yul\":1841:1842   */\n      0x00\n        /* \"#utility.yul\":1830:1839   */\n      dup4\n        /* \"#utility.yul\":1826:1843   */\n      add\n        /* \"#utility.yul\":1817:1823   */\n      dup5\n        /* \"#utility.yul\":1773:1844   */\n      tag_164\n      jump\t// in\n    tag_236:\n        /* \"#utility.yul\":1629:1851   */\n      swap3\n      swap2\n      pop\n      pop\n      jump\t// out\n        /* \"#utility.yul\":1857:1983   */\n    tag_165:\n        /* \"#utility.yul\":1894:1901   */\n      0x00\n        /* \"#utility.yul\":1934:1976   */\n      0xffffffffffffffffffffffffffffffffffffffff\n        /* \"#utility.yul\":1927:1932   */\n      dup3\n        /* \"#utility.yul\":1923:1977   */\n      and\n        /* \"#utility.yul\":1912:1977   */\n      swap1\n      pop\n        /* \"#utility.yul\":1857:1983   */\n      swap2\n      swap1\n      pop\n      jump\t// out\n        /* \"#utility.yul\":1989:2085   */\n    tag_166:\n        /* \"#utility.yul\":2026:2033   */\n      0x00\n        /* \"#utility.yul\":2055:2079   */\n      tag_239\n        /* \"#utility.yul\":2073:2078   */\n      dup3\n        /* \"#utility.yul\":2055:2079   */\n      tag_165\n      jump\t// in\n    tag_239:\n        /* \"#utility.yul\":2044:2079   */\n      swap1\n      pop\n        /* \"#utility.yul\":1989:2085   */\n      swap2\n      swap1\n      pop\n      jump\t// out\n        /* \"#utility.yul\":2091:2213   */\n    tag_167:\n        /* \"#utility.yul\":2164:2188   */\n      tag_241\n        /* \"#utility.yul\":2182:2187   */\n      dup2\n        /* \"#utility.yul\":2164:2188   */\n      tag_166\n      jump\t// in\n    tag_241:\n        /* \"#utility.yul\":2157:2162   */\n      dup2\n        /* \"#utility.yul\":2154:2189   */\n      eq\n        /* \"#utility.yul\":2144:2207   */\n      tag_242\n      jumpi\n        /* \"#utility.yul\":2203:2204   */\n      0x00\n        /* \"#utility.yul\":2200:2201   */\n      dup1\n        /* \"#utility.yul\":2193:2205   */\n      revert\n        /* \"#utility.yul\":2144:2207   */\n    tag_242:\n        /* \"#utility.yul\":2091:2213   */\n      pop\n      jump\t// out\n        /* \"#utility.yul\":2219:2358   */\n    tag_168:\n        /* \"#utility.yul\":2265:2270   */\n      0x00\n        /* \"#utility.yul\":2303:2309   */\n      dup2\n        /* \"#utility.yul\":2290:2310   */\n      calldataload\n        /* \"#utility.yul\":2281:2310   */\n      swap1\n      pop\n        /* \"#utility.yul\":2319:2352   */\n      tag_244\n        /* \"#utility.yul\":2346:2351   */\n      dup2\n        /* \"#utility.yul\":2319:2352   */\n      tag_167\n      jump\t// in\n    tag_244:\n        /* \"#utility.yul\":2219:2358   */\n      swap3\n      swap2\n      pop\n      pop\n      jump\t// out\n        /* \"#utility.yul\":2364:2693   */\n    tag_28:\n        /* \"#utility.yul\":2423:2429   */\n      0x00\n        /* \"#utility.yul\":2472:2474   */\n      0x20\n        /* \"#utility.yul\":2460:2469   */\n      dup3\n        /* \"#utility.yul\":2451:2458   */\n      dup5\n        /* \"#utility.yul\":2447:2470   */\n      sub\n        /* \"#utility.yul\":2443:2475   */\n      slt\n        /* \"#utility.yul\":2440:2559   */\n      iszero\n      tag_246\n      jumpi\n        /* \"#utility.yul\":2478:2557   */\n      tag_247\n      tag_159\n      jump\t// in\n    tag_247:\n        /* \"#utility.yul\":2440:2559   */\n    tag_246:\n        /* \"#utility.yul\":2598:2599   */\n      0x00\n        /* \"#utility.yul\":2623:2676   */\n      tag_248\n        /* \"#utility.yul\":2668:2675   */\n      dup5\n        /* \"#utility.yul\":2659:2665   */\n      dup3\n        /* \"#utility.yul\":2648:2657   */\n      dup6\n        /* \"#utility.yul\":2644:2666   */\n      add\n        /* \"#utility.yul\":2623:2676   */\n      tag_168\n      jump\t// in\n    tag_248:\n        /* \"#utility.yul\":2613:2676   */\n      swap2\n      pop\n        /* \"#utility.yul\":2569:2686   */\n      pop\n        /* \"#utility.yul\":2364:2693   */\n      swap3\n      swap2\n      pop\n      pop\n      jump\t// out\n        /* \"#utility.yul\":2699:2789   */\n    tag_169:\n        /* \"#utility.yul\":2733:2740   */\n      0x00\n        /* \"#utility.yul\":2776:2781   */\n      dup2\n        /* \"#utility.yul\":2769:2782   */\n      iszero\n        /* \"#utility.yul\":2762:2783   */\n      iszero\n        /* \"#utility.yul\":2751:2783   */\n      swap1\n      pop\n        /* \"#utility.yul\":2699:2789   */\n      swap2\n      swap1\n      pop\n      jump\t// out\n        /* \"#utility.yul\":2795:2904   */\n    tag_170:\n        /* \"#utility.yul\":2876:2897   */\n      tag_251\n        /* \"#utility.yul\":2891:2896   */\n      dup2\n        /* \"#utility.yul\":2876:2897   */\n      tag_169\n      jump\t// in\n    tag_251:\n        /* \"#utility.yul\":2871:2874   */\n      dup3\n        /* \"#utility.yul\":2864:2898   */\n      mstore\n        /* \"#utility.yul\":2795:2904   */\n      pop\n      pop\n      jump\t// out\n        /* \"#utility.yul\":2910:3120   */\n    tag_31:\n        /* \"#utility.yul\":2997:3001   */\n      0x00\n        /* \"#utility.yul\":3035:3037   */\n      0x20\n        /* \"#utility.yul\":3024:3033   */\n      dup3\n        /* \"#utility.yul\":3020:3038   */\n      add\n        /* \"#utility.yul\":3012:3038   */\n      swap1\n      pop\n        /* \"#utility.yul\":3048:3113   */\n      tag_253\n        /* \"#utility.yul\":3110:3111   */\n      0x00\n        /* \"#utility.yul\":3099:3108   */\n      dup4\n        /* \"#utility.yul\":3095:3112   */\n      add\n        /* \"#utility.yul\":3086:3092   */\n      dup5\n        /* \"#utility.yul\":3048:3113   */\n      tag_170\n      jump\t// in\n    tag_253:\n        /* \"#utility.yul\":2910:3120   */\n      swap3\n      swap2\n      pop\n      pop\n      jump\t// out\n        /* \"#utility.yul\":3126:3225   */\n    tag_171:\n        /* \"#utility.yul\":3178:3184   */\n      0x00\n        /* \"#utility.yul\":3212:3217   */\n      dup2\n        /* \"#utility.yul\":3206:3218   */\n      mload\n        /* \"#utility.yul\":3196:3218   */\n      swap1\n      pop\n        /* \"#utility.yul\":3126:3225   */\n      swap2\n      swap1\n      pop\n      jump\t// out\n        /* \"#utility.yul\":3231:3400   */\n    tag_172:\n        /* \"#utility.yul\":3315:3326   */\n      0x00\n        /* \"#utility.yul\":3349:3355   */\n      dup3\n        /* \"#utility.yul\":3344:3347   */\n      dup3\n        /* \"#utility.yul\":3337:3356   */\n      mstore\n        /* \"#utility.yul\":3389:3393   */\n      0x20\n        /* \"#utility.yul\":3384:3387   */\n      dup3\n        /* \"#utility.yul\":3380:3394   */\n      add\n        /* \"#utility.yul\":3365:3394   */\n      swap1\n      pop\n        /* \"#utility.yul\":3231:3400   */\n      swap3\n      swap2\n      pop\n      pop\n      jump\t// out\n        /* \"#utility.yul\":3406:3545   */\n    tag_173:\n        /* \"#utility.yul\":3495:3501   */\n      dup3\n        /* \"#utility.yul\":3490:3493   */\n      dup2\n        /* \"#utility.yul\":3485:3488   */\n      dup4\n        /* \"#utility.yul\":3479:3502   */\n      mcopy\n        /* \"#utility.yul\":3536:3537   */\n      0x00\n        /* \"#utility.yul\":3527:3533   */\n      dup4\n        /* \"#utility.yul\":3522:3525   */\n      dup4\n        /* \"#utility.yul\":3518:3534   */\n      add\n        /* \"#utility.yul\":3511:3538   */\n      mstore\n        /* \"#utility.yul\":3406:3545   */\n      pop\n      pop\n      pop\n      jump\t// out\n        /* \"#utility.yul\":3551:3653   */\n    tag_174:\n        /* \"#utility.yul\":3592:3598   */\n      0x00\n        /* \"#utility.yul\":3643:3645   */\n      0x1f\n        /* \"#utility.yul\":3639:3646   */\n      not\n        /* \"#utility.yul\":3634:3636   */\n      0x1f\n        /* \"#utility.yul\":3627:3632   */\n      dup4\n        /* \"#utility.yul\":3623:3637   */\n      add\n        /* \"#utility.yul\":3619:3647   */\n      and\n        /* \"#utility.yul\":3609:3647   */\n      swap1\n      pop\n        /* \"#utility.yul\":3551:3653   */\n      swap2\n      swap1\n      pop\n      jump\t// out\n        /* \"#utility.yul\":3659:4036   */\n    tag_175:\n        /* \"#utility.yul\":3747:3750   */\n      0x00\n        /* \"#utility.yul\":3775:3814   */\n      tag_259\n        /* \"#utility.yul\":3808:3813   */\n      dup3\n        /* \"#utility.yul\":3775:3814   */\n      tag_171\n      jump\t// in\n    tag_259:\n        /* \"#utility.yul\":3830:3901   */\n      tag_260\n        /* \"#utility.yul\":3894:3900   */\n      dup2\n        /* \"#utility.yul\":3889:3892   */\n      dup6\n        /* \"#utility.yul\":3830:3901   */\n      tag_172\n      jump\t// in\n    tag_260:\n        /* \"#utility.yul\":3823:3901   */\n      swap4\n      pop\n        /* \"#utility.yul\":3910:3975   */\n      tag_261\n        /* \"#utility.yul\":3968:3974   */\n      dup2\n        /* \"#utility.yul\":3963:3966   */\n      dup6\n        /* \"#utility.yul\":3956:3960   */\n      0x20\n        /* \"#utility.yul\":3949:3954   */\n      dup7\n        /* \"#utility.yul\":3945:3961   */\n      add\n        /* \"#utility.yul\":3910:3975   */\n      tag_173\n      jump\t// in\n    tag_261:\n        /* \"#utility.yul\":4000:4029   */\n      tag_262\n        /* \"#utility.yul\":4022:4028   */\n      dup2\n        /* \"#utility.yul\":4000:4029   */\n      tag_174\n      jump\t// in\n    tag_262:\n        /* \"#utility.yul\":3995:3998   */\n      dup5\n        /* \"#utility.yul\":3991:4030   */\n      add\n        /* \"#utility.yul\":3984:4030   */\n      swap2\n      pop\n        /* \"#utility.yul\":3751:4036   */\n      pop\n        /* \"#utility.yul\":3659:4036   */\n      swap3\n      swap2\n      pop\n      pop\n      jump\t// out\n        /* \"#utility.yul\":4042:4876   */\n    tag_37:\n        /* \"#utility.yul\":4281:4285   */\n      0x00\n        /* \"#utility.yul\":4319:4322   */\n      0xa0\n        /* \"#utility.yul\":4308:4317   */\n      dup3\n        /* \"#utility.yul\":4304:4323   */\n      add\n        /* \"#utility.yul\":4296:4323   */\n      swap1\n      pop\n        /* \"#utility.yul\":4369:4378   */\n      dup2\n        /* \"#utility.yul\":4363:4367   */\n      dup2\n        /* \"#utility.yul\":4359:4379   */\n      sub\n        /* \"#utility.yul\":4355:4356   */\n      0x00\n        /* \"#utility.yul\":4344:4353   */\n      dup4\n        /* \"#utility.yul\":4340:4357   */\n      add\n        /* \"#utility.yul\":4333:4380   */\n      mstore\n        /* \"#utility.yul\":4397:4475   */\n      tag_264\n        /* \"#utility.yul\":4470:4474   */\n      dup2\n        /* \"#utility.yul\":4461:4467   */\n      dup9\n        /* \"#utility.yul\":4397:4475   */\n      tag_175\n      jump\t// in\n    tag_264:\n        /* \"#utility.yul\":4389:4475   */\n      swap1\n      pop\n        /* \"#utility.yul\":4522:4531   */\n      dup2\n        /* \"#utility.yul\":4516:4520   */\n      dup2\n        /* \"#utility.yul\":4512:4532   */\n      sub\n        /* \"#utility.yul\":4507:4509   */\n      0x20\n        /* \"#utility.yul\":4496:4505   */\n      dup4\n        /* \"#utility.yul\":4492:4510   */\n      add\n        /* \"#utility.yul\":4485:4533   */\n      mstore\n        /* \"#utility.yul\":4550:4628   */\n      tag_265\n        /* \"#utility.yul\":4623:4627   */\n      dup2\n        /* \"#utility.yul\":4614:4620   */\n      dup8\n        /* \"#utility.yul\":4550:4628   */\n      tag_175\n      jump\t// in\n    tag_265:\n        /* \"#utility.yul\":4542:4628   */\n      swap1\n      pop\n        /* \"#utility.yul\":4638:4710   */\n      tag_266\n        /* \"#utility.yul\":4706:4708   */\n      0x40\n        /* \"#utility.yul\":4695:4704   */\n      dup4\n        /* \"#utility.yul\":4691:4709   */\n      add\n        /* \"#utility.yul\":4682:4688   */\n      dup7\n        /* \"#utility.yul\":4638:4710   */\n      tag_164\n      jump\t// in\n    tag_266:\n        /* \"#utility.yul\":4720:4792   */\n      tag_267\n        /* \"#utility.yul\":4788:4790   */\n      0x60\n        /* \"#utility.yul\":4777:4786   */\n      dup4\n        /* \"#utility.yul\":4773:4791   */\n      add\n        /* \"#utility.yul\":4764:4770   */\n      dup6\n        /* \"#utility.yul\":4720:4792   */\n      tag_164\n      jump\t// in\n    tag_267:\n        /* \"#utility.yul\":4802:4869   */\n      tag_268\n        /* \"#utility.yul\":4864:4867   */\n      0x80\n        /* \"#utility.yul\":4853:4862   */\n      dup4\n        /* \"#utility.yul\":4849:4868   */\n      add\n        /* \"#utility.yul\":4840:4846   */\n      dup5\n        /* \"#utility.yul\":4802:4869   */\n      tag_170\n      jump\t// in\n    tag_268:\n        /* \"#utility.yul\":4042:4876   */\n      swap7\n      swap6\n      pop\n      pop\n      pop\n      pop\n      pop\n      pop\n      jump\t// out\n        /* \"#utility.yul\":4882:5000   */\n    tag_176:\n        /* \"#utility.yul\":4969:4993   */\n      tag_270\n        /* \"#utility.yul\":4987:4992   */\n      dup2\n        /* \"#utility.yul\":4969:4993   */\n      tag_166\n      jump\t// in\n    tag_270:\n        /* \"#utility.yul\":4964:4967   */\n      dup3\n        /* \"#utility.yul\":4957:4994   */\n      mstore\n        /* \"#utility.yul\":4882:5000   */\n      pop\n      pop\n      jump\t// out\n        /* \"#utility.yul\":5006:5228   */\n    tag_51:\n        /* \"#utility.yul\":5099:5103   */\n      0x00\n        /* \"#utility.yul\":5137:5139   */\n      0x20\n        /* \"#utility.yul\":5126:5135   */\n      dup3\n        /* \"#utility.yul\":5122:5140   */\n      add\n        /* \"#utility.yul\":5114:5140   */\n      swap1\n      pop\n        /* \"#utility.yul\":5150:5221   */\n      tag_272\n        /* \"#utility.yul\":5218:5219   */\n      0x00\n        /* \"#utility.yul\":5207:5216   */\n      dup4\n        /* \"#utility.yul\":5203:5220   */\n      add\n        /* \"#utility.yul\":5194:5200   */\n      dup5\n        /* \"#utility.yul\":5150:5221   */\n      tag_176\n      jump\t// in\n    tag_272:\n        /* \"#utility.yul\":5006:5228   */\n      swap3\n      swap2\n      pop\n      pop\n      jump\t// out\n        /* \"#utility.yul\":5234:5351   */\n    tag_177:\n        /* \"#utility.yul\":5343:5344   */\n      0x00\n        /* \"#utility.yul\":5340:5341   */\n      dup1\n        /* \"#utility.yul\":5333:5345   */\n      revert\n        /* \"#utility.yul\":5357:5474   */\n    tag_178:\n        /* \"#utility.yul\":5466:5467   */\n      0x00\n        /* \"#utility.yul\":5463:5464   */\n      dup1\n        /* \"#utility.yul\":5456:5468   */\n      revert\n        /* \"#utility.yul\":5480:5660   */\n    tag_179:\n        /* \"#utility.yul\":5528:5605   */\n      0x4e487b7100000000000000000000000000000000000000000000000000000000\n        /* \"#utility.yul\":5525:5526   */\n      0x00\n        /* \"#utility.yul\":5518:5606   */\n      mstore\n        /* \"#utility.yul\":5625:5629   */\n      0x41\n        /* \"#utility.yul\":5622:5623   */\n      0x04\n        /* \"#utility.yul\":5615:5630   */\n      mstore\n        /* \"#utility.yul\":5649:5653   */\n      0x24\n        /* \"#utility.yul\":5646:5647   */\n      0x00\n        /* \"#utility.yul\":5639:5654   */\n      revert\n        /* \"#utility.yul\":5666:5947   */\n    tag_180:\n        /* \"#utility.yul\":5749:5776   */\n      tag_277\n        /* \"#utility.yul\":5771:5775   */\n      dup3\n        /* \"#utility.yul\":5749:5776   */\n      tag_174\n      jump\t// in\n    tag_277:\n        /* \"#utility.yul\":5741:5747   */\n      dup2\n        /* \"#utility.yul\":5737:5777   */\n      add\n        /* \"#utility.yul\":5879:5885   */\n      dup2\n        /* \"#utility.yul\":5867:5877   */\n      dup2\n        /* \"#utility.yul\":5864:5886   */\n      lt\n        /* \"#utility.yul\":5843:5861   */\n      0xffffffffffffffff\n        /* \"#utility.yul\":5831:5841   */\n      dup3\n        /* \"#utility.yul\":5828:5862   */\n      gt\n        /* \"#utility.yul\":5825:5887   */\n      or\n        /* \"#utility.yul\":5822:5910   */\n      iszero\n      tag_278\n      jumpi\n        /* \"#utility.yul\":5890:5908   */\n      tag_279\n      tag_179\n      jump\t// in\n    tag_279:\n        /* \"#utility.yul\":5822:5910   */\n    tag_278:\n        /* \"#utility.yul\":5930:5940   */\n      dup1\n        /* \"#utility.yul\":5926:5928   */\n      0x40\n        /* \"#utility.yul\":5919:5941   */\n      mstore\n        /* \"#utility.yul\":5709:5947   */\n      pop\n        /* \"#utility.yul\":5666:5947   */\n      pop\n      pop\n      jump\t// out\n        /* \"#utility.yul\":5953:6082   */\n    tag_181:\n        /* \"#utility.yul\":5987:5993   */\n      0x00\n        /* \"#utility.yul\":6014:6034   */\n      tag_281\n      tag_158\n      jump\t// in\n    tag_281:\n        /* \"#utility.yul\":6004:6034   */\n      swap1\n      pop\n        /* \"#utility.yul\":6043:6076   */\n      tag_282\n        /* \"#utility.yul\":6071:6075   */\n      dup3\n        /* \"#utility.yul\":6063:6069   */\n      dup3\n        /* \"#utility.yul\":6043:6076   */\n      tag_180\n      jump\t// in\n    tag_282:\n        /* \"#utility.yul\":5953:6082   */\n      swap2\n      swap1\n      pop\n      jump\t// out\n        /* \"#utility.yul\":6088:6396   */\n    tag_182:\n        /* \"#utility.yul\":6150:6154   */\n      0x00\n        /* \"#utility.yul\":6240:6258   */\n      0xffffffffffffffff\n        /* \"#utility.yul\":6232:6238   */\n      dup3\n        /* \"#utility.yul\":6229:6259   */\n      gt\n        /* \"#utility.yul\":6226:6282   */\n      iszero\n      tag_284\n      jumpi\n        /* \"#utility.yul\":6262:6280   */\n      tag_285\n      tag_179\n      jump\t// in\n    tag_285:\n        /* \"#utility.yul\":6226:6282   */\n    tag_284:\n        /* \"#utility.yul\":6300:6329   */\n      tag_286\n        /* \"#utility.yul\":6322:6328   */\n      dup3\n        /* \"#utility.yul\":6300:6329   */\n      tag_174\n      jump\t// in\n    tag_286:\n        /* \"#utility.yul\":6292:6329   */\n      swap1\n      pop\n        /* \"#utility.yul\":6384:6388   */\n      0x20\n        /* \"#utility.yul\":6378:6382   */\n      dup2\n        /* \"#utility.yul\":6374:6389   */\n      add\n        /* \"#utility.yul\":6366:6389   */\n      swap1\n      pop\n        /* \"#utility.yul\":6088:6396   */\n      swap2\n      swap1\n      pop\n      jump\t// out\n        /* \"#utility.yul\":6402:6550   */\n    tag_183:\n        /* \"#utility.yul\":6500:6506   */\n      dup3\n        /* \"#utility.yul\":6495:6498   */\n      dup2\n        /* \"#utility.yul\":6490:6493   */\n      dup4\n        /* \"#utility.yul\":6477:6507   */\n      calldatacopy\n        /* \"#utility.yul\":6541:6542   */\n      0x00\n        /* \"#utility.yul\":6532:6538   */\n      dup4\n        /* \"#utility.yul\":6527:6530   */\n      dup4\n        /* \"#utility.yul\":6523:6539   */\n      add\n        /* \"#utility.yul\":6516:6543   */\n      mstore\n        /* \"#utility.yul\":6402:6550   */\n      pop\n      pop\n      pop\n      jump\t// out\n        /* \"#utility.yul\":6556:6981   */\n    tag_184:\n        /* \"#utility.yul\":6634:6639   */\n      0x00\n        /* \"#utility.yul\":6659:6725   */\n      tag_289\n        /* \"#utility.yul\":6675:6724   */\n      tag_290\n        /* \"#utility.yul\":6717:6723   */\n      dup5\n        /* \"#utility.yul\":6675:6724   */\n      tag_182\n      jump\t// in\n    tag_290:\n        /* \"#utility.yul\":6659:6725   */\n      tag_181\n      jump\t// in\n    tag_289:\n        /* \"#utility.yul\":6650:6725   */\n      swap1\n      pop\n        /* \"#utility.yul\":6748:6754   */\n      dup3\n        /* \"#utility.yul\":6741:6746   */\n      dup2\n        /* \"#utility.yul\":6734:6755   */\n      mstore\n        /* \"#utility.yul\":6786:6790   */\n      0x20\n        /* \"#utility.yul\":6779:6784   */\n      dup2\n        /* \"#utility.yul\":6775:6791   */\n      add\n        /* \"#utility.yul\":6824:6827   */\n      dup5\n        /* \"#utility.yul\":6815:6821   */\n      dup5\n        /* \"#utility.yul\":6810:6813   */\n      dup5\n        /* \"#utility.yul\":6806:6822   */\n      add\n        /* \"#utility.yul\":6803:6828   */\n      gt\n        /* \"#utility.yul\":6800:6912   */\n      iszero\n      tag_291\n      jumpi\n        /* \"#utility.yul\":6831:6910   */\n      tag_292\n      tag_178\n      jump\t// in\n    tag_292:\n        /* \"#utility.yul\":6800:6912   */\n    tag_291:\n        /* \"#utility.yul\":6921:6975   */\n      tag_293\n        /* \"#utility.yul\":6968:6974   */\n      dup5\n        /* \"#utility.yul\":6963:6966   */\n      dup3\n        /* \"#utility.yul\":6958:6961   */\n      dup6\n        /* \"#utility.yul\":6921:6975   */\n      tag_183\n      jump\t// in\n    tag_293:\n        /* \"#utility.yul\":6640:6981   */\n      pop\n        /* \"#utility.yul\":6556:6981   */\n      swap4\n      swap3\n      pop\n      pop\n      pop\n      jump\t// out\n        /* \"#utility.yul\":7001:7341   */\n    tag_185:\n        /* \"#utility.yul\":7057:7062   */\n      0x00\n        /* \"#utility.yul\":7106:7109   */\n      dup3\n        /* \"#utility.yul\":7099:7103   */\n      0x1f\n        /* \"#utility.yul\":7091:7097   */\n      dup4\n        /* \"#utility.yul\":7087:7104   */\n      add\n        /* \"#utility.yul\":7083:7110   */\n      slt\n        /* \"#utility.yul\":7073:7195   */\n      tag_295\n      jumpi\n        /* \"#utility.yul\":7114:7193   */\n      tag_296\n      tag_177\n      jump\t// in\n    tag_296:\n        /* \"#utility.yul\":7073:7195   */\n    tag_295:\n        /* \"#utility.yul\":7231:7237   */\n      dup2\n        /* \"#utility.yul\":7218:7238   */\n      calldataload\n        /* \"#utility.yul\":7256:7335   */\n      tag_297\n        /* \"#utility.yul\":7331:7334   */\n      dup5\n        /* \"#utility.yul\":7323:7329   */\n      dup3\n        /* \"#utility.yul\":7316:7320   */\n      0x20\n        /* \"#utility.yul\":7308:7314   */\n      dup7\n        /* \"#utility.yul\":7304:7321   */\n      add\n        /* \"#utility.yul\":7256:7335   */\n      tag_184\n      jump\t// in\n    tag_297:\n        /* \"#utility.yul\":7247:7335   */\n      swap2\n      pop\n        /* \"#utility.yul\":7063:7341   */\n      pop\n        /* \"#utility.yul\":7001:7341   */\n      swap3\n      swap2\n      pop\n      pop\n      jump\t// out\n        /* \"#utility.yul\":7347:8618   */\n    tag_67:\n        /* \"#utility.yul\":7462:7468   */\n      0x00\n        /* \"#utility.yul\":7470:7476   */\n      dup1\n        /* \"#utility.yul\":7478:7484   */\n      0x00\n        /* \"#utility.yul\":7486:7492   */\n      dup1\n        /* \"#utility.yul\":7494:7500   */\n      0x00\n        /* \"#utility.yul\":7543:7546   */\n      0xa0\n        /* \"#utility.yul\":7531:7540   */\n      dup7\n        /* \"#utility.yul\":7522:7529   */\n      dup9\n        /* \"#utility.yul\":7518:7541   */\n      sub\n        /* \"#utility.yul\":7514:7547   */\n      slt\n        /* \"#utility.yul\":7511:7631   */\n      iszero\n      tag_299\n      jumpi\n        /* \"#utility.yul\":7550:7629   */\n      tag_300\n      tag_159\n      jump\t// in\n    tag_300:\n        /* \"#utility.yul\":7511:7631   */\n    tag_299:\n        /* \"#utility.yul\":7670:7671   */\n      0x00\n        /* \"#utility.yul\":7695:7748   */\n      tag_301\n        /* \"#utility.yul\":7740:7747   */\n      dup9\n        /* \"#utility.yul\":7731:7737   */\n      dup3\n        /* \"#utility.yul\":7720:7729   */\n      dup10\n        /* \"#utility.yul\":7716:7738   */\n      add\n        /* \"#utility.yul\":7695:7748   */\n      tag_163\n      jump\t// in\n    tag_301:\n        /* \"#utility.yul\":7685:7748   */\n      swap6\n      pop\n        /* \"#utility.yul\":7641:7758   */\n      pop\n        /* \"#utility.yul\":7825:7827   */\n      0x20\n        /* \"#utility.yul\":7814:7823   */\n      dup7\n        /* \"#utility.yul\":7810:7828   */\n      add\n        /* \"#utility.yul\":7797:7829   */\n      calldataload\n        /* \"#utility.yul\":7856:7874   */\n      0xffffffffffffffff\n        /* \"#utility.yul\":7848:7854   */\n      dup2\n        /* \"#utility.yul\":7845:7875   */\n      gt\n        /* \"#utility.yul\":7842:7959   */\n      iszero\n      tag_302\n      jumpi\n        /* \"#utility.yul\":7878:7957   */\n      tag_303\n      tag_160\n      jump\t// in\n    tag_303:\n        /* \"#utility.yul\":7842:7959   */\n    tag_302:\n        /* \"#utility.yul\":7983:8046   */\n      tag_304\n        /* \"#utility.yul\":8038:8045   */\n      dup9\n        /* \"#utility.yul\":8029:8035   */\n      dup3\n        /* \"#utility.yul\":8018:8027   */\n      dup10\n        /* \"#utility.yul\":8014:8036   */\n      add\n        /* \"#utility.yul\":7983:8046   */\n      tag_185\n      jump\t// in\n    tag_304:\n        /* \"#utility.yul\":7973:8046   */\n      swap5\n      pop\n        /* \"#utility.yul\":7768:8056   */\n      pop\n        /* \"#utility.yul\":8123:8125   */\n      0x40\n        /* \"#utility.yul\":8112:8121   */\n      dup7\n        /* \"#utility.yul\":8108:8126   */\n      add\n        /* \"#utility.yul\":8095:8127   */\n      calldataload\n        /* \"#utility.yul\":8154:8172   */\n      0xffffffffffffffff\n        /* \"#utility.yul\":8146:8152   */\n      dup2\n        /* \"#utility.yul\":8143:8173   */\n      gt\n        /* \"#utility.yul\":8140:8257   */\n      iszero\n      tag_305\n      jumpi\n        /* \"#utility.yul\":8176:8255   */\n      tag_306\n      tag_160\n      jump\t// in\n    tag_306:\n        /* \"#utility.yul\":8140:8257   */\n    tag_305:\n        /* \"#utility.yul\":8281:8344   */\n      tag_307\n        /* \"#utility.yul\":8336:8343   */\n      dup9\n        /* \"#utility.yul\":8327:8333   */\n      dup3\n        /* \"#utility.yul\":8316:8325   */\n      dup10\n        /* \"#utility.yul\":8312:8334   */\n      add\n        /* \"#utility.yul\":8281:8344   */\n      tag_185\n      jump\t// in\n    tag_307:\n        /* \"#utility.yul\":8271:8344   */\n      swap4\n      pop\n        /* \"#utility.yul\":8066:8354   */\n      pop\n        /* \"#utility.yul\":8393:8395   */\n      0x60\n        /* \"#utility.yul\":8419:8472   */\n      tag_308\n        /* \"#utility.yul\":8464:8471   */\n      dup9\n        /* \"#utility.yul\":8455:8461   */\n      dup3\n        /* \"#utility.yul\":8444:8453   */\n      dup10\n        /* \"#utility.yul\":8440:8462   */\n      add\n        /* \"#utility.yul\":8419:8472   */\n      tag_163\n      jump\t// in\n    tag_308:\n        /* \"#utility.yul\":8409:8472   */\n      swap3\n      pop\n        /* \"#utility.yul\":8364:8482   */\n      pop\n        /* \"#utility.yul\":8521:8524   */\n      0x80\n        /* \"#utility.yul\":8548:8601   */\n      tag_309\n        /* \"#utility.yul\":8593:8600   */\n      dup9\n        /* \"#utility.yul\":8584:8590   */\n      dup3\n        /* \"#utility.yul\":8573:8582   */\n      dup10\n        /* \"#utility.yul\":8569:8591   */\n      add\n        /* \"#utility.yul\":8548:8601   */\n      tag_163\n      jump\t// in\n    tag_309:\n        /* \"#utility.yul\":8538:8601   */\n      swap2\n      pop\n        /* \"#utility.yul\":8492:8611   */\n      pop\n        /* \"#utility.yul\":7347:8618   */\n      swap3\n      swap6\n      pop\n      swap3\n      swap6\n      swap1\n      swap4\n      pop\n      jump\t// out\n        /* \"#utility.yul\":8624:8801   */\n    tag_186:\n        /* \"#utility.yul\":8764:8793   */\n      0x5468697320626f6f6b206973206e6f7420617661696c61626c652e0000000000\n        /* \"#utility.yul\":8760:8761   */\n      0x00\n        /* \"#utility.yul\":8752:8758   */\n      dup3\n        /* \"#utility.yul\":8748:8762   */\n      add\n        /* \"#utility.yul\":8741:8794   */\n      mstore\n        /* \"#utility.yul\":8624:8801   */\n      pop\n      jump\t// out\n        /* \"#utility.yul\":8807:9173   */\n    tag_187:\n        /* \"#utility.yul\":8949:8952   */\n      0x00\n        /* \"#utility.yul\":8970:9037   */\n      tag_312\n        /* \"#utility.yul\":9034:9036   */\n      0x1b\n        /* \"#utility.yul\":9029:9032   */\n      dup4\n        /* \"#utility.yul\":8970:9037   */\n      tag_172\n      jump\t// in\n    tag_312:\n        /* \"#utility.yul\":8963:9037   */\n      swap2\n      pop\n        /* \"#utility.yul\":9046:9139   */\n      tag_313\n        /* \"#utility.yul\":9135:9138   */\n      dup3\n        /* \"#utility.yul\":9046:9139   */\n      tag_186\n      jump\t// in\n    tag_313:\n        /* \"#utility.yul\":9164:9166   */\n      0x20\n        /* \"#utility.yul\":9159:9162   */\n      dup3\n        /* \"#utility.yul\":9155:9167   */\n      add\n        /* \"#utility.yul\":9148:9167   */\n      swap1\n      pop\n        /* \"#utility.yul\":8807:9173   */\n      swap2\n      swap1\n      pop\n      jump\t// out\n        /* \"#utility.yul\":9179:9598   */\n    tag_72:\n        /* \"#utility.yul\":9345:9349   */\n      0x00\n        /* \"#utility.yul\":9383:9385   */\n      0x20\n        /* \"#utility.yul\":9372:9381   */\n      dup3\n        /* \"#utility.yul\":9368:9386   */\n      add\n        /* \"#utility.yul\":9360:9386   */\n      swap1\n      pop\n        /* \"#utility.yul\":9432:9441   */\n      dup2\n        /* \"#utility.yul\":9426:9430   */\n      dup2\n        /* \"#utility.yul\":9422:9442   */\n      sub\n        /* \"#utility.yul\":9418:9419   */\n      0x00\n        /* \"#utility.yul\":9407:9416   */\n      dup4\n        /* \"#utility.yul\":9403:9420   */\n      add\n        /* \"#utility.yul\":9396:9443   */\n      mstore\n        /* \"#utility.yul\":9460:9591   */\n      tag_315\n        /* \"#utility.yul\":9586:9590   */\n      dup2\n        /* \"#utility.yul\":9460:9591   */\n      tag_187\n      jump\t// in\n    tag_315:\n        /* \"#utility.yul\":9452:9591   */\n      swap1\n      pop\n        /* \"#utility.yul\":9179:9598   */\n      swap2\n      swap1\n      pop\n      jump\t// out\n        /* \"#utility.yul\":9604:9781   */\n    tag_188:\n        /* \"#utility.yul\":9744:9773   */\n      0x4e6f7420656e6f7567682073746f636b20617661696c61626c652e0000000000\n        /* \"#utility.yul\":9740:9741   */\n      0x00\n        /* \"#utility.yul\":9732:9738   */\n      dup3\n        /* \"#utility.yul\":9728:9742   */\n      add\n        /* \"#utility.yul\":9721:9774   */\n      mstore\n        /* \"#utility.yul\":9604:9781   */\n      pop\n      jump\t// out\n        /* \"#utility.yul\":9787:10153   */\n    tag_189:\n        /* \"#utility.yul\":9929:9932   */\n      0x00\n        /* \"#utility.yul\":9950:10017   */\n      tag_318\n        /* \"#utility.yul\":10014:10016   */\n      0x1b\n        /* \"#utility.yul\":10009:10012   */\n      dup4\n        /* \"#utility.yul\":9950:10017   */\n      tag_172\n      jump\t// in\n    tag_318:\n        /* \"#utility.yul\":9943:10017   */\n      swap2\n      pop\n        /* \"#utility.yul\":10026:10119   */\n      tag_319\n        /* \"#utility.yul\":10115:10118   */\n      dup3\n        /* \"#utility.yul\":10026:10119   */\n      tag_188\n      jump\t// in\n    tag_319:\n        /* \"#utility.yul\":10144:10146   */\n      0x20\n        /* \"#utility.yul\":10139:10142   */\n      dup3\n        /* \"#utility.yul\":10135:10147   */\n      add\n        /* \"#utility.yul\":10128:10147   */\n      swap1\n      pop\n        /* \"#utility.yul\":9787:10153   */\n      swap2\n      swap1\n      pop\n      jump\t// out\n        /* \"#utility.yul\":10159:10578   */\n    tag_75:\n        /* \"#utility.yul\":10325:10329   */\n      0x00\n        /* \"#utility.yul\":10363:10365   */\n      0x20\n        /* \"#utility.yul\":10352:10361   */\n      dup3\n        /* \"#utility.yul\":10348:10366   */\n      add\n        /* \"#utility.yul\":10340:10366   */\n      swap1\n      pop\n        /* \"#utility.yul\":10412:10421   */\n      dup2\n        /* \"#utility.yul\":10406:10410   */\n      dup2\n        /* \"#utility.yul\":10402:10422   */\n      sub\n        /* \"#utility.yul\":10398:10399   */\n      0x00\n        /* \"#utility.yul\":10387:10396   */\n      dup4\n        /* \"#utility.yul\":10383:10400   */\n      add\n        /* \"#utility.yul\":10376:10423   */\n      mstore\n        /* \"#utility.yul\":10440:10571   */\n      tag_321\n        /* \"#utility.yul\":10566:10570   */\n      dup2\n        /* \"#utility.yul\":10440:10571   */\n      tag_189\n      jump\t// in\n    tag_321:\n        /* \"#utility.yul\":10432:10571   */\n      swap1\n      pop\n        /* \"#utility.yul\":10159:10578   */\n      swap2\n      swap1\n      pop\n      jump\t// out\n        /* \"#utility.yul\":10584:10764   */\n    tag_190:\n        /* \"#utility.yul\":10632:10709   */\n      0x4e487b7100000000000000000000000000000000000000000000000000000000\n        /* \"#utility.yul\":10629:10630   */\n      0x00\n        /* \"#utility.yul\":10622:10710   */\n      mstore\n        /* \"#utility.yul\":10729:10733   */\n      0x12\n        /* \"#utility.yul\":10726:10727   */\n      0x04\n        /* \"#utility.yul\":10719:10734   */\n      mstore\n        /* \"#utility.yul\":10753:10757   */\n      0x24\n        /* \"#utility.yul\":10750:10751   */\n      0x00\n        /* \"#utility.yul\":10743:10758   */\n      revert\n        /* \"#utility.yul\":10770:10950   */\n    tag_191:\n        /* \"#utility.yul\":10818:10895   */\n      0x4e487b7100000000000000000000000000000000000000000000000000000000\n        /* \"#utility.yul\":10815:10816   */\n      0x00\n        /* \"#utility.yul\":10808:10896   */\n      mstore\n        /* \"#utility.yul\":10915:10919   */\n      0x11\n        /* \"#utility.yul\":10912:10913   */\n      0x04\n        /* \"#utility.yul\":10905:10920   */\n      mstore\n        /* \"#utility.yul\":10939:10943   */\n      0x24\n        /* \"#utility.yul\":10936:10937   */\n      0x00\n        /* \"#utility.yul\":10929:10944   */\n      revert\n        /* \"#utility.yul\":10956:11141   */\n    tag_77:\n        /* \"#utility.yul\":10996:10997   */\n      0x00\n        /* \"#utility.yul\":11013:11033   */\n      tag_325\n        /* \"#utility.yul\":11031:11032   */\n      dup3\n        /* \"#utility.yul\":11013:11033   */\n      tag_161\n      jump\t// in\n    tag_325:\n        /* \"#utility.yul\":11008:11033   */\n      swap2\n      pop\n        /* \"#utility.yul\":11047:11067   */\n      tag_326\n        /* \"#utility.yul\":11065:11066   */\n      dup4\n        /* \"#utility.yul\":11047:11067   */\n      tag_161\n      jump\t// in\n    tag_326:\n        /* \"#utility.yul\":11042:11067   */\n      swap3\n      pop\n        /* \"#utility.yul\":11086:11087   */\n      dup3\n        /* \"#utility.yul\":11076:11111   */\n      tag_327\n      jumpi\n        /* \"#utility.yul\":11091:11109   */\n      tag_328\n      tag_190\n      jump\t// in\n    tag_328:\n        /* \"#utility.yul\":11076:11111   */\n    tag_327:\n        /* \"#utility.yul\":11133:11134   */\n      dup3\n        /* \"#utility.yul\":11130:11131   */\n      dup3\n        /* \"#utility.yul\":11126:11135   */\n      div\n        /* \"#utility.yul\":11121:11135   */\n      swap1\n      pop\n        /* \"#utility.yul\":10956:11141   */\n      swap3\n      swap2\n      pop\n      pop\n      jump\t// out\n        /* \"#utility.yul\":11147:11557   */\n    tag_79:\n        /* \"#utility.yul\":11187:11194   */\n      0x00\n        /* \"#utility.yul\":11210:11230   */\n      tag_330\n        /* \"#utility.yul\":11228:11229   */\n      dup3\n        /* \"#utility.yul\":11210:11230   */\n      tag_161\n      jump\t// in\n    tag_330:\n        /* \"#utility.yul\":11205:11230   */\n      swap2\n      pop\n        /* \"#utility.yul\":11244:11264   */\n      tag_331\n        /* \"#utility.yul\":11262:11263   */\n      dup4\n        /* \"#utility.yul\":11244:11264   */\n      tag_161\n      jump\t// in\n    tag_331:\n        /* \"#utility.yul\":11239:11264   */\n      swap3\n      pop\n        /* \"#utility.yul\":11299:11300   */\n      dup3\n        /* \"#utility.yul\":11296:11297   */\n      dup3\n        /* \"#utility.yul\":11292:11301   */\n      mul\n        /* \"#utility.yul\":11321:11351   */\n      tag_332\n        /* \"#utility.yul\":11339:11350   */\n      dup2\n        /* \"#utility.yul\":11321:11351   */\n      tag_161\n      jump\t// in\n    tag_332:\n        /* \"#utility.yul\":11310:11351   */\n      swap2\n      pop\n        /* \"#utility.yul\":11500:11501   */\n      dup3\n        /* \"#utility.yul\":11491:11498   */\n      dup3\n        /* \"#utility.yul\":11487:11502   */\n      div\n        /* \"#utility.yul\":11484:11485   */\n      dup5\n        /* \"#utility.yul\":11481:11503   */\n      eq\n        /* \"#utility.yul\":11461:11462   */\n      dup4\n        /* \"#utility.yul\":11454:11463   */\n      iszero\n        /* \"#utility.yul\":11434:11517   */\n      or\n        /* \"#utility.yul\":11411:11550   */\n      tag_333\n      jumpi\n        /* \"#utility.yul\":11530:11548   */\n      tag_334\n      tag_191\n      jump\t// in\n    tag_334:\n        /* \"#utility.yul\":11411:11550   */\n    tag_333:\n        /* \"#utility.yul\":11195:11557   */\n      pop\n        /* \"#utility.yul\":11147:11557   */\n      swap3\n      swap2\n      pop\n      pop\n      jump\t// out\n        /* \"#utility.yul\":11563:11738   */\n    tag_192:\n        /* \"#utility.yul\":11703:11730   */\n      0x20496e636f7272656374207061796d656e7420616d6f756e7400000000000000\n        /* \"#utility.yul\":11699:11700   */\n      0x00\n        /* \"#utility.yul\":11691:11697   */\n      dup3\n        /* \"#utility.yul\":11687:11701   */\n      add\n        /* \"#utility.yul\":11680:11731   */\n      mstore\n        /* \"#utility.yul\":11563:11738   */\n      pop\n      jump\t// out\n        /* \"#utility.yul\":11744:12110   */\n    tag_193:\n        /* \"#utility.yul\":11886:11889   */\n      0x00\n        /* \"#utility.yul\":11907:11974   */\n      tag_337\n        /* \"#utility.yul\":11971:11973   */\n      0x19\n        /* \"#utility.yul\":11966:11969   */\n      dup4\n        /* \"#utility.yul\":11907:11974   */\n      tag_172\n      jump\t// in\n    tag_337:\n        /* \"#utility.yul\":11900:11974   */\n      swap2\n      pop\n        /* \"#utility.yul\":11983:12076   */\n      tag_338\n        /* \"#utility.yul\":12072:12075   */\n      dup3\n        /* \"#utility.yul\":11983:12076   */\n      tag_192\n      jump\t// in\n    tag_338:\n        /* \"#utility.yul\":12101:12103   */\n      0x20\n        /* \"#utility.yul\":12096:12099   */\n      dup3\n        /* \"#utility.yul\":12092:12104   */\n      add\n        /* \"#utility.yul\":12085:12104   */\n      swap1\n      pop\n        /* \"#utility.yul\":11744:12110   */\n      swap2\n      swap1\n      pop\n      jump\t// out\n        /* \"#utility.yul\":12116:12535   */\n    tag_82:\n        /* \"#utility.yul\":12282:12286   */\n      0x00\n        /* \"#utility.yul\":12320:12322   */\n      0x20\n        /* \"#utility.yul\":12309:12318   */\n      dup3\n        /* \"#utility.yul\":12305:12323   */\n      add\n        /* \"#utility.yul\":12297:12323   */\n      swap1\n      pop\n        /* \"#utility.yul\":12369:12378   */\n      dup2\n        /* \"#utility.yul\":12363:12367   */\n      dup2\n        /* \"#utility.yul\":12359:12379   */\n      sub\n        /* \"#utility.yul\":12355:12356   */\n      0x00\n        /* \"#utility.yul\":12344:12353   */\n      dup4\n        /* \"#utility.yul\":12340:12357   */\n      add\n        /* \"#utility.yul\":12333:12380   */\n      mstore\n        /* \"#utility.yul\":12397:12528   */\n      tag_340\n        /* \"#utility.yul\":12523:12527   */\n      dup2\n        /* \"#utility.yul\":12397:12528   */\n      tag_193\n      jump\t// in\n    tag_340:\n        /* \"#utility.yul\":12389:12528   */\n      swap1\n      pop\n        /* \"#utility.yul\":12116:12535   */\n      swap2\n      swap1\n      pop\n      jump\t// out\n        /* \"#utility.yul\":12541:12721   */\n    tag_194:\n        /* \"#utility.yul\":12589:12666   */\n      0x4e487b7100000000000000000000000000000000000000000000000000000000\n        /* \"#utility.yul\":12586:12587   */\n      0x00\n        /* \"#utility.yul\":12579:12667   */\n      mstore\n        /* \"#utility.yul\":12686:12690   */\n      0x22\n        /* \"#utility.yul\":12683:12684   */\n      0x04\n        /* \"#utility.yul\":12676:12691   */\n      mstore\n        /* \"#utility.yul\":12710:12714   */\n      0x24\n        /* \"#utility.yul\":12707:12708   */\n      0x00\n        /* \"#utility.yul\":12700:12715   */\n      revert\n        /* \"#utility.yul\":12727:13047   */\n    tag_91:\n        /* \"#utility.yul\":12771:12777   */\n      0x00\n        /* \"#utility.yul\":12808:12809   */\n      0x02\n        /* \"#utility.yul\":12802:12806   */\n      dup3\n        /* \"#utility.yul\":12798:12810   */\n      div\n        /* \"#utility.yul\":12788:12810   */\n      swap1\n      pop\n        /* \"#utility.yul\":12855:12856   */\n      0x01\n        /* \"#utility.yul\":12849:12853   */\n      dup3\n        /* \"#utility.yul\":12845:12857   */\n      and\n        /* \"#utility.yul\":12876:12894   */\n      dup1\n        /* \"#utility.yul\":12866:12947   */\n      tag_343\n      jumpi\n        /* \"#utility.yul\":12932:12936   */\n      0x7f\n        /* \"#utility.yul\":12924:12930   */\n      dup3\n        /* \"#utility.yul\":12920:12937   */\n      and\n        /* \"#utility.yul\":12910:12937   */\n      swap2\n      pop\n        /* \"#utility.yul\":12866:12947   */\n    tag_343:\n        /* \"#utility.yul\":12994:12996   */\n      0x20\n        /* \"#utility.yul\":12986:12992   */\n      dup3\n        /* \"#utility.yul\":12983:12997   */\n      lt\n        /* \"#utility.yul\":12963:12981   */\n      dup2\n        /* \"#utility.yul\":12960:12998   */\n      sub\n        /* \"#utility.yul\":12957:13041   */\n      tag_344\n      jumpi\n        /* \"#utility.yul\":13013:13031   */\n      tag_345\n      tag_194\n      jump\t// in\n    tag_345:\n        /* \"#utility.yul\":12957:13041   */\n    tag_344:\n        /* \"#utility.yul\":12778:13047   */\n      pop\n        /* \"#utility.yul\":12727:13047   */\n      swap2\n      swap1\n      pop\n      jump\t// out\n        /* \"#utility.yul\":13053:13277   */\n    tag_195:\n        /* \"#utility.yul\":13193:13227   */\n      0x6e6f7420656e6f756768742073746f636b20746f20636f6e6669726d20707572\n        /* \"#utility.yul\":13189:13190   */\n      0x00\n        /* \"#utility.yul\":13181:13187   */\n      dup3\n        /* \"#utility.yul\":13177:13191   */\n      add\n        /* \"#utility.yul\":13170:13228   */\n      mstore\n        /* \"#utility.yul\":13262:13269   */\n      0x6368617365000000000000000000000000000000000000000000000000000000\n        /* \"#utility.yul\":13257:13259   */\n      0x20\n        /* \"#utility.yul\":13249:13255   */\n      dup3\n        /* \"#utility.yul\":13245:13260   */\n      add\n        /* \"#utility.yul\":13238:13270   */\n      mstore\n        /* \"#utility.yul\":13053:13277   */\n      pop\n      jump\t// out\n        /* \"#utility.yul\":13283:13649   */\n    tag_196:\n        /* \"#utility.yul\":13425:13428   */\n      0x00\n        /* \"#utility.yul\":13446:13513   */\n      tag_348\n        /* \"#utility.yul\":13510:13512   */\n      0x25\n        /* \"#utility.yul\":13505:13508   */\n      dup4\n        /* \"#utility.yul\":13446:13513   */\n      tag_172\n      jump\t// in\n    tag_348:\n        /* \"#utility.yul\":13439:13513   */\n      swap2\n      pop\n        /* \"#utility.yul\":13522:13615   */\n      tag_349\n        /* \"#utility.yul\":13611:13614   */\n      dup3\n        /* \"#utility.yul\":13522:13615   */\n      tag_195\n      jump\t// in\n    tag_349:\n        /* \"#utility.yul\":13640:13642   */\n      0x40\n        /* \"#utility.yul\":13635:13638   */\n      dup3\n        /* \"#utility.yul\":13631:13643   */\n      add\n        /* \"#utility.yul\":13624:13643   */\n      swap1\n      pop\n        /* \"#utility.yul\":13283:13649   */\n      swap2\n      swap1\n      pop\n      jump\t// out\n        /* \"#utility.yul\":13655:14074   */\n    tag_124:\n        /* \"#utility.yul\":13821:13825   */\n      0x00\n        /* \"#utility.yul\":13859:13861   */\n      0x20\n        /* \"#utility.yul\":13848:13857   */\n      dup3\n        /* \"#utility.yul\":13844:13862   */\n      add\n        /* \"#utility.yul\":13836:13862   */\n      swap1\n      pop\n        /* \"#utility.yul\":13908:13917   */\n      dup2\n        /* \"#utility.yul\":13902:13906   */\n      dup2\n        /* \"#utility.yul\":13898:13918   */\n      sub\n        /* \"#utility.yul\":13894:13895   */\n      0x00\n        /* \"#utility.yul\":13883:13892   */\n      dup4\n        /* \"#utility.yul\":13879:13896   */\n      add\n        /* \"#utility.yul\":13872:13919   */\n      mstore\n        /* \"#utility.yul\":13936:14067   */\n      tag_351\n        /* \"#utility.yul\":14062:14066   */\n      dup2\n        /* \"#utility.yul\":13936:14067   */\n      tag_196\n      jump\t// in\n    tag_351:\n        /* \"#utility.yul\":13928:14067   */\n      swap1\n      pop\n        /* \"#utility.yul\":13655:14074   */\n      swap2\n      swap1\n      pop\n      jump\t// out\n        /* \"#utility.yul\":14080:14274   */\n    tag_126:\n        /* \"#utility.yul\":14120:14124   */\n      0x00\n        /* \"#utility.yul\":14140:14160   */\n      tag_353\n        /* \"#utility.yul\":14158:14159   */\n      dup3\n        /* \"#utility.yul\":14140:14160   */\n      tag_161\n      jump\t// in\n    tag_353:\n        /* \"#utility.yul\":14135:14160   */\n      swap2\n      pop\n        /* \"#utility.yul\":14174:14194   */\n      tag_354\n        /* \"#utility.yul\":14192:14193   */\n      dup4\n        /* \"#utility.yul\":14174:14194   */\n      tag_161\n      jump\t// in\n    tag_354:\n        /* \"#utility.yul\":14169:14194   */\n      swap3\n      pop\n        /* \"#utility.yul\":14218:14219   */\n      dup3\n        /* \"#utility.yul\":14215:14216   */\n      dup3\n        /* \"#utility.yul\":14211:14220   */\n      sub\n        /* \"#utility.yul\":14203:14220   */\n      swap1\n      pop\n        /* \"#utility.yul\":14242:14243   */\n      dup2\n        /* \"#utility.yul\":14236:14240   */\n      dup2\n        /* \"#utility.yul\":14233:14244   */\n      gt\n        /* \"#utility.yul\":14230:14267   */\n      iszero\n      tag_355\n      jumpi\n        /* \"#utility.yul\":14247:14265   */\n      tag_356\n      tag_191\n      jump\t// in\n    tag_356:\n        /* \"#utility.yul\":14230:14267   */\n    tag_355:\n        /* \"#utility.yul\":14080:14274   */\n      swap3\n      swap2\n      pop\n      pop\n      jump\t// out\n        /* \"#utility.yul\":14280:14500   */\n    tag_197:\n        /* \"#utility.yul\":14420:14454   */\n      0x426f6f6b20616c72656164792065786973747320776974682074686973204944\n        /* \"#utility.yul\":14416:14417   */\n      0x00\n        /* \"#utility.yul\":14408:14414   */\n      dup3\n        /* \"#utility.yul\":14404:14418   */\n      add\n        /* \"#utility.yul\":14397:14455   */\n      mstore\n        /* \"#utility.yul\":14489:14492   */\n      0x2e00000000000000000000000000000000000000000000000000000000000000\n        /* \"#utility.yul\":14484:14486   */\n      0x20\n        /* \"#utility.yul\":14476:14482   */\n      dup3\n        /* \"#utility.yul\":14472:14487   */\n      add\n        /* \"#utility.yul\":14465:14493   */\n      mstore\n        /* \"#utility.yul\":14280:14500   */\n      pop\n      jump\t// out\n        /* \"#utility.yul\":14506:14872   */\n    tag_198:\n        /* \"#utility.yul\":14648:14651   */\n      0x00\n        /* \"#utility.yul\":14669:14736   */\n      tag_359\n        /* \"#utility.yul\":14733:14735   */\n      0x21\n        /* \"#utility.yul\":14728:14731   */\n      dup4\n        /* \"#utility.yul\":14669:14736   */\n      tag_172\n      jump\t// in\n    tag_359:\n        /* \"#utility.yul\":14662:14736   */\n      swap2\n      pop\n        /* \"#utility.yul\":14745:14838   */\n      tag_360\n        /* \"#utility.yul\":14834:14837   */\n      dup3\n        /* \"#utility.yul\":14745:14838   */\n      tag_197\n      jump\t// in\n    tag_360:\n        /* \"#utility.yul\":14863:14865   */\n      0x40\n        /* \"#utility.yul\":14858:14861   */\n      dup3\n        /* \"#utility.yul\":14854:14866   */\n      add\n        /* \"#utility.yul\":14847:14866   */\n      swap1\n      pop\n        /* \"#utility.yul\":14506:14872   */\n      swap2\n      swap1\n      pop\n      jump\t// out\n        /* \"#utility.yul\":14878:15297   */\n    tag_141:\n        /* \"#utility.yul\":15044:15048   */\n      0x00\n        /* \"#utility.yul\":15082:15084   */\n      0x20\n        /* \"#utility.yul\":15071:15080   */\n      dup3\n        /* \"#utility.yul\":15067:15085   */\n      add\n        /* \"#utility.yul\":15059:15085   */\n      swap1\n      pop\n        /* \"#utility.yul\":15131:15140   */\n      dup2\n        /* \"#utility.yul\":15125:15129   */\n      dup2\n        /* \"#utility.yul\":15121:15141   */\n      sub\n        /* \"#utility.yul\":15117:15118   */\n      0x00\n        /* \"#utility.yul\":15106:15115   */\n      dup4\n        /* \"#utility.yul\":15102:15119   */\n      add\n        /* \"#utility.yul\":15095:15142   */\n      mstore\n        /* \"#utility.yul\":15159:15290   */\n      tag_362\n        /* \"#utility.yul\":15285:15289   */\n      dup2\n        /* \"#utility.yul\":15159:15290   */\n      tag_198\n      jump\t// in\n    tag_362:\n        /* \"#utility.yul\":15151:15290   */\n      swap1\n      pop\n        /* \"#utility.yul\":14878:15297   */\n      swap2\n      swap1\n      pop\n      jump\t// out\n        /* \"#utility.yul\":15303:15444   */\n    tag_199:\n        /* \"#utility.yul\":15352:15356   */\n      0x00\n        /* \"#utility.yul\":15375:15378   */\n      dup2\n        /* \"#utility.yul\":15367:15378   */\n      swap1\n      pop\n        /* \"#utility.yul\":15398:15401   */\n      dup2\n        /* \"#utility.yul\":15395:15396   */\n      0x00\n        /* \"#utility.yul\":15388:15402   */\n      mstore\n        /* \"#utility.yul\":15432:15436   */\n      0x20\n        /* \"#utility.yul\":15429:15430   */\n      0x00\n        /* \"#utility.yul\":15419:15437   */\n      keccak256\n        /* \"#utility.yul\":15411:15437   */\n      swap1\n      pop\n        /* \"#utility.yul\":15303:15444   */\n      swap2\n      swap1\n      pop\n      jump\t// out\n        /* \"#utility.yul\":15450:15543   */\n    tag_200:\n        /* \"#utility.yul\":15487:15493   */\n      0x00\n        /* \"#utility.yul\":15534:15536   */\n      0x20\n        /* \"#utility.yul\":15529:15531   */\n      0x1f\n        /* \"#utility.yul\":15522:15527   */\n      dup4\n        /* \"#utility.yul\":15518:15532   */\n      add\n        /* \"#utility.yul\":15514:15537   */\n      div\n        /* \"#utility.yul\":15504:15537   */\n      swap1\n      pop\n        /* \"#utility.yul\":15450:15543   */\n      swap2\n      swap1\n      pop\n      jump\t// out\n        /* \"#utility.yul\":15549:15656   */\n    tag_201:\n        /* \"#utility.yul\":15593:15601   */\n      0x00\n        /* \"#utility.yul\":15643:15648   */\n      dup3\n        /* \"#utility.yul\":15637:15641   */\n      dup3\n        /* \"#utility.yul\":15633:15649   */\n      shl\n        /* \"#utility.yul\":15612:15649   */\n      swap1\n      pop\n        /* \"#utility.yul\":15549:15656   */\n      swap3\n      swap2\n      pop\n      pop\n      jump\t// out\n        /* \"#utility.yul\":15662:16055   */\n    tag_202:\n        /* \"#utility.yul\":15731:15737   */\n      0x00\n        /* \"#utility.yul\":15781:15782   */\n      0x08\n        /* \"#utility.yul\":15769:15779   */\n      dup4\n        /* \"#utility.yul\":15765:15783   */\n      mul\n        /* \"#utility.yul\":15804:15901   */\n      tag_367\n        /* \"#utility.yul\":15834:15900   */\n      0xffffffffffffffffffffffffffffffffffffffffffffffffffffffffffffffff\n        /* \"#utility.yul\":15823:15832   */\n      dup3\n        /* \"#utility.yul\":15804:15901   */\n      tag_201\n      jump\t// in\n    tag_367:\n        /* \"#utility.yul\":15922:15961   */\n      tag_368\n        /* \"#utility.yul\":15952:15960   */\n      dup7\n        /* \"#utility.yul\":15941:15950   */\n      dup4\n        /* \"#utility.yul\":15922:15961   */\n      tag_201\n      jump\t// in\n    tag_368:\n        /* \"#utility.yul\":15910:15961   */\n      swap6\n      pop\n        /* \"#utility.yul\":15994:15998   */\n      dup1\n        /* \"#utility.yul\":15990:15999   */\n      not\n        /* \"#utility.yul\":15983:15988   */\n      dup5\n        /* \"#utility.yul\":15979:16000   */\n      and\n        /* \"#utility.yul\":15970:16000   */\n      swap4\n      pop\n        /* \"#utility.yul\":16043:16047   */\n      dup1\n        /* \"#utility.yul\":16033:16041   */\n      dup7\n        /* \"#utility.yul\":16029:16048   */\n      and\n        /* \"#utility.yul\":16022:16027   */\n      dup5\n        /* \"#utility.yul\":16019:16049   */\n      or\n        /* \"#utility.yul\":16009:16049   */\n      swap3\n      pop\n        /* \"#utility.yul\":15738:16055   */\n      pop\n      pop\n        /* \"#utility.yul\":15662:16055   */\n      swap4\n      swap3\n      pop\n      pop\n      pop\n      jump\t// out\n        /* \"#utility.yul\":16061:16121   */\n    tag_203:\n        /* \"#utility.yul\":16089:16092   */\n      0x00\n        /* \"#utility.yul\":16110:16115   */\n      dup2\n        /* \"#utility.yul\":16103:16115   */\n      swap1\n      pop\n        /* \"#utility.yul\":16061:16121   */\n      swap2\n      swap1\n      pop\n      jump\t// out\n        /* \"#utility.yul\":16127:16269   */\n    tag_204:\n        /* \"#utility.yul\":16177:16186   */\n      0x00\n        /* \"#utility.yul\":16210:16263   */\n      tag_371\n        /* \"#utility.yul\":16228:16262   */\n      tag_372\n        /* \"#utility.yul\":16237:16261   */\n      tag_373\n        /* \"#utility.yul\":16255:16260   */\n      dup5\n        /* \"#utility.yul\":16237:16261   */\n      tag_161\n      jump\t// in\n    tag_373:\n        /* \"#utility.yul\":16228:16262   */\n      tag_203\n      jump\t// in\n    tag_372:\n        /* \"#utility.yul\":16210:16263   */\n      tag_161\n      jump\t// in\n    tag_371:\n        /* \"#utility.yul\":16197:16263   */\n      swap1\n      pop\n        /* \"#utility.yul\":16127:16269   */\n      swap2\n      swap1\n      pop\n      jump\t// out\n        /* \"#utility.yul\":16275:16350   */\n    tag_205:\n        /* \"#utility.yul\":16318:16321   */\n      0x00\n        /* \"#utility.yul\":16339:16344   */\n      dup2\n        /* \"#utility.yul\":16332:16344   */\n      swap1\n      pop\n        /* \"#utility.yul\":16275:16350   */\n      swap2\n      swap1\n      pop\n      jump\t// out\n        /* \"#utility.yul\":16356:16625   */\n    tag_206:\n        /* \"#utility.yul\":16466:16505   */\n      tag_376\n        /* \"#utility.yul\":16497:16504   */\n      dup4\n        /* \"#utility.yul\":16466:16505   */\n      tag_204\n      jump\t// in\n    tag_376:\n        /* \"#utility.yul\":16527:16618   */\n      tag_377\n        /* \"#utility.yul\":16576:16617   */\n      tag_378\n        /* \"#utility.yul\":16600:16616   */\n      dup3\n        /* \"#utility.yul\":16576:16617   */\n      tag_205\n      jump\t// in\n    tag_378:\n        /* \"#utility.yul\":16568:16574   */\n      dup5\n        /* \"#utility.yul\":16561:16565   */\n      dup5\n        /* \"#utility.yul\":16555:16566   */\n      sload\n        /* \"#utility.yul\":16527:16618   */\n      tag_202\n      jump\t// in\n    tag_377:\n        /* \"#utility.yul\":16521:16525   */\n      dup3\n        /* \"#utility.yul\":16514:16619   */\n      sstore\n        /* \"#utility.yul\":16432:16625   */\n      pop\n        /* \"#utility.yul\":16356:16625   */\n      pop\n      pop\n      pop\n      jump\t// out\n        /* \"#utility.yul\":16631:16704   */\n    tag_207:\n        /* \"#utility.yul\":16676:16679   */\n      0x00\n        /* \"#utility.yul\":16631:16704   */\n      swap1\n      jump\t// out\n        /* \"#utility.yul\":16710:16899   */\n    tag_208:\n        /* \"#utility.yul\":16787:16819   */\n      tag_381\n      tag_207\n      jump\t// in\n    tag_381:\n        /* \"#utility.yul\":16828:16893   */\n      tag_382\n        /* \"#utility.yul\":16886:16892   */\n      dup2\n        /* \"#utility.yul\":16878:16884   */\n      dup5\n        /* \"#utility.yul\":16872:16876   */\n      dup5\n        /* \"#utility.yul\":16828:16893   */\n      tag_206\n      jump\t// in\n    tag_382:\n        /* \"#utility.yul\":16763:16899   */\n      pop\n        /* \"#utility.yul\":16710:16899   */\n      pop\n      pop\n      jump\t// out\n        /* \"#utility.yul\":16905:17091   */\n    tag_209:\n        /* \"#utility.yul\":16965:17085   */\n    tag_384:\n        /* \"#utility.yul\":16982:16985   */\n      dup2\n        /* \"#utility.yul\":16975:16980   */\n      dup2\n        /* \"#utility.yul\":16972:16986   */\n      lt\n        /* \"#utility.yul\":16965:17085   */\n      iszero\n      tag_386\n      jumpi\n        /* \"#utility.yul\":17036:17075   */\n      tag_387\n        /* \"#utility.yul\":17073:17074   */\n      0x00\n        /* \"#utility.yul\":17066:17071   */\n      dup3\n        /* \"#utility.yul\":17036:17075   */\n      tag_208\n      jump\t// in\n    tag_387:\n        /* \"#utility.yul\":17009:17010   */\n      0x01\n        /* \"#utility.yul\":17002:17007   */\n      dup2\n        /* \"#utility.yul\":16998:17011   */\n      add\n        /* \"#utility.yul\":16989:17011   */\n      swap1\n      pop\n        /* \"#utility.yul\":16965:17085   */\n      jump(tag_384)\n    tag_386:\n        /* \"#utility.yul\":16905:17091   */\n      pop\n      pop\n      jump\t// out\n        /* \"#utility.yul\":17097:17640   */\n    tag_210:\n        /* \"#utility.yul\":17198:17200   */\n      0x1f\n        /* \"#utility.yul\":17193:17196   */\n      dup3\n        /* \"#utility.yul\":17190:17201   */\n      gt\n        /* \"#utility.yul\":17187:17633   */\n      iszero\n      tag_389\n      jumpi\n        /* \"#utility.yul\":17232:17270   */\n      tag_390\n        /* \"#utility.yul\":17264:17269   */\n      dup2\n        /* \"#utility.yul\":17232:17270   */\n      tag_199\n      jump\t// in\n    tag_390:\n        /* \"#utility.yul\":17316:17345   */\n      tag_391\n        /* \"#utility.yul\":17334:17344   */\n      dup5\n        /* \"#utility.yul\":17316:17345   */\n      tag_200\n      jump\t// in\n    tag_391:\n        /* \"#utility.yul\":17306:17314   */\n      dup2\n        /* \"#utility.yul\":17302:17346   */\n      add\n        /* \"#utility.yul\":17499:17501   */\n      0x20\n        /* \"#utility.yul\":17487:17497   */\n      dup6\n        /* \"#utility.yul\":17484:17502   */\n      lt\n        /* \"#utility.yul\":17481:17530   */\n      iszero\n      tag_392\n      jumpi\n        /* \"#utility.yul\":17520:17528   */\n      dup2\n        /* \"#utility.yul\":17505:17528   */\n      swap1\n      pop\n        /* \"#utility.yul\":17481:17530   */\n    tag_392:\n        /* \"#utility.yul\":17543:17623   */\n      tag_393\n        /* \"#utility.yul\":17599:17621   */\n      tag_394\n        /* \"#utility.yul\":17617:17620   */\n      dup6\n        /* \"#utility.yul\":17599:17621   */\n      tag_200\n      jump\t// in\n    tag_394:\n        /* \"#utility.yul\":17589:17597   */\n      dup4\n        /* \"#utility.yul\":17585:17622   */\n      add\n        /* \"#utility.yul\":17572:17583   */\n      dup3\n        /* \"#utility.yul\":17543:17623   */\n      tag_209\n      jump\t// in\n    tag_393:\n        /* \"#utility.yul\":17202:17633   */\n      pop\n      pop\n        /* \"#utility.yul\":17187:17633   */\n    tag_389:\n        /* \"#utility.yul\":17097:17640   */\n      pop\n      pop\n      pop\n      jump\t// out\n        /* \"#utility.yul\":17646:17763   */\n    tag_211:\n        /* \"#utility.yul\":17700:17708   */\n      0x00\n        /* \"#utility.yul\":17750:17755   */\n      dup3\n        /* \"#utility.yul\":17744:17748   */\n      dup3\n        /* \"#utility.yul\":17740:17756   */\n      shr\n        /* \"#utility.yul\":17719:17756   */\n      swap1\n      pop\n        /* \"#utility.yul\":17646:17763   */\n      swap3\n      swap2\n      pop\n      pop\n      jump\t// out\n        /* \"#utility.yul\":17769:17938   */\n    tag_212:\n        /* \"#utility.yul\":17813:17819   */\n      0x00\n        /* \"#utility.yul\":17846:17897   */\n      tag_397\n        /* \"#utility.yul\":17894:17895   */\n      0x00\n        /* \"#utility.yul\":17890:17896   */\n      not\n        /* \"#utility.yul\":17882:17887   */\n      dup5\n        /* \"#utility.yul\":17879:17880   */\n      0x08\n        /* \"#utility.yul\":17875:17888   */\n      mul\n        /* \"#utility.yul\":17846:17897   */\n      tag_211\n      jump\t// in\n    tag_397:\n        /* \"#utility.yul\":17842:17898   */\n      not\n        /* \"#utility.yul\":17927:17931   */\n      dup1\n        /* \"#utility.yul\":17921:17925   */\n      dup4\n        /* \"#utility.yul\":17917:17932   */\n      and\n        /* \"#utility.yul\":17907:17932   */\n      swap2\n      pop\n        /* \"#utility.yul\":17820:17938   */\n      pop\n        /* \"#utility.yul\":17769:17938   */\n      swap3\n      swap2\n      pop\n      pop\n      jump\t// out\n        /* \"#utility.yul\":17943:18238   */\n    tag_213:\n        /* \"#utility.yul\":18019:18023   */\n      0x00\n        /* \"#utility.yul\":18165:18194   */\n      tag_399\n        /* \"#utility.yul\":18190:18193   */\n      dup4\n        /* \"#utility.yul\":18184:18188   */\n      dup4\n        /* \"#utility.yul\":18165:18194   */\n      tag_212\n      jump\t// in\n    tag_399:\n        /* \"#utility.yul\":18157:18194   */\n      swap2\n      pop\n        /* \"#utility.yul\":18227:18230   */\n      dup3\n        /* \"#utility.yul\":18224:18225   */\n      0x02\n        /* \"#utility.yul\":18220:18231   */\n      mul\n        /* \"#utility.yul\":18214:18218   */\n      dup3\n        /* \"#utility.yul\":18211:18232   */\n      or\n        /* \"#utility.yul\":18203:18232   */\n      swap1\n      pop\n        /* \"#utility.yul\":17943:18238   */\n      swap3\n      swap2\n      pop\n      pop\n      jump\t// out\n        /* \"#utility.yul\":18243:19638   */\n    tag_143:\n        /* \"#utility.yul\":18360:18397   */\n      tag_401\n        /* \"#utility.yul\":18393:18396   */\n      dup3\n        /* \"#utility.yul\":18360:18397   */\n      tag_171\n      jump\t// in\n    tag_401:\n        /* \"#utility.yul\":18462:18480   */\n      0xffffffffffffffff\n        /* \"#utility.yul\":18454:18460   */\n      dup2\n        /* \"#utility.yul\":18451:18481   */\n      gt\n        /* \"#utility.yul\":18448:18504   */\n      iszero\n      tag_402\n      jumpi\n        /* \"#utility.yul\":18484:18502   */\n      tag_403\n      tag_179\n      jump\t// in\n    tag_403:\n        /* \"#utility.yul\":18448:18504   */\n    tag_402:\n        /* \"#utility.yul\":18528:18566   */\n      tag_404\n        /* \"#utility.yul\":18560:18564   */\n      dup3\n        /* \"#utility.yul\":18554:18565   */\n      sload\n        /* \"#utility.yul\":18528:18566   */\n      tag_91\n      jump\t// in\n    tag_404:\n        /* \"#utility.yul\":18613:18680   */\n      tag_405\n        /* \"#utility.yul\":18673:18679   */\n      dup3\n        /* \"#utility.yul\":18665:18671   */\n      dup3\n        /* \"#utility.yul\":18659:18663   */\n      dup6\n        /* \"#utility.yul\":18613:18680   */\n      tag_210\n      jump\t// in\n    tag_405:\n        /* \"#utility.yul\":18707:18708   */\n      0x00\n        /* \"#utility.yul\":18731:18735   */\n      0x20\n        /* \"#utility.yul\":18718:18735   */\n      swap1\n      pop\n        /* \"#utility.yul\":18763:18765   */\n      0x1f\n        /* \"#utility.yul\":18755:18761   */\n      dup4\n        /* \"#utility.yul\":18752:18766   */\n      gt\n        /* \"#utility.yul\":18780:18781   */\n      0x01\n        /* \"#utility.yul\":18775:19393   */\n      dup2\n      eq\n      tag_407\n      jumpi\n        /* \"#utility.yul\":19437:19438   */\n      0x00\n        /* \"#utility.yul\":19454:19460   */\n      dup5\n        /* \"#utility.yul\":19451:19528   */\n      iszero\n      tag_408\n      jumpi\n        /* \"#utility.yul\":19503:19512   */\n      dup3\n        /* \"#utility.yul\":19498:19501   */\n      dup8\n        /* \"#utility.yul\":19494:19513   */\n      add\n        /* \"#utility.yul\":19488:19514   */\n      mload\n        /* \"#utility.yul\":19479:19514   */\n      swap1\n      pop\n        /* \"#utility.yul\":19451:19528   */\n    tag_408:\n        /* \"#utility.yul\":19554:19621   */\n      tag_409\n        /* \"#utility.yul\":19614:19620   */\n      dup6\n        /* \"#utility.yul\":19607:19612   */\n      dup3\n        /* \"#utility.yul\":19554:19621   */\n      tag_213\n      jump\t// in\n    tag_409:\n        /* \"#utility.yul\":19548:19552   */\n      dup7\n        /* \"#utility.yul\":19541:19622   */\n      sstore\n        /* \"#utility.yul\":19410:19632   */\n      pop\n        /* \"#utility.yul\":18745:19632   */\n      jump(tag_406)\n        /* \"#utility.yul\":18775:19393   */\n    tag_407:\n        /* \"#utility.yul\":18827:18831   */\n      0x1f\n        /* \"#utility.yul\":18823:18832   */\n      not\n        /* \"#utility.yul\":18815:18821   */\n      dup5\n        /* \"#utility.yul\":18811:18833   */\n      and\n        /* \"#utility.yul\":18861:18898   */\n      tag_410\n        /* \"#utility.yul\":18893:18897   */\n      dup7\n        /* \"#utility.yul\":18861:18898   */\n      tag_199\n      jump\t// in\n    tag_410:\n        /* \"#utility.yul\":18920:18921   */\n      0x00\n        /* \"#utility.yul\":18934:19142   */\n    tag_411:\n        /* \"#utility.yul\":18948:18955   */\n      dup3\n        /* \"#utility.yul\":18945:18946   */\n      dup2\n        /* \"#utility.yul\":18942:18956   */\n      lt\n        /* \"#utility.yul\":18934:19142   */\n      iszero\n      tag_413\n      jumpi\n        /* \"#utility.yul\":19027:19036   */\n      dup5\n        /* \"#utility.yul\":19022:19025   */\n      dup10\n        /* \"#utility.yul\":19018:19037   */\n      add\n        /* \"#utility.yul\":19012:19038   */\n      mload\n        /* \"#utility.yul\":19004:19010   */\n      dup3\n        /* \"#utility.yul\":18997:19039   */\n      sstore\n        /* \"#utility.yul\":19078:19079   */\n      0x01\n        /* \"#utility.yul\":19070:19076   */\n      dup3\n        /* \"#utility.yul\":19066:19080   */\n      add\n        /* \"#utility.yul\":19056:19080   */\n      swap2\n      pop\n        /* \"#utility.yul\":19125:19127   */\n      0x20\n        /* \"#utility.yul\":19114:19123   */\n      dup6\n        /* \"#utility.yul\":19110:19128   */\n      add\n        /* \"#utility.yul\":19097:19128   */\n      swap5\n      pop\n        /* \"#utility.yul\":18971:18975   */\n      0x20\n        /* \"#utility.yul\":18968:18969   */\n      dup2\n        /* \"#utility.yul\":18964:18976   */\n      add\n        /* \"#utility.yul\":18959:18976   */\n      swap1\n      pop\n        /* \"#utility.yul\":18934:19142   */\n      jump(tag_411)\n    tag_413:\n        /* \"#utility.yul\":19170:19176   */\n      dup7\n        /* \"#utility.yul\":19161:19168   */\n      dup4\n        /* \"#utility.yul\":19158:19177   */\n      lt\n        /* \"#utility.yul\":19155:19334   */\n      iszero\n      tag_414\n      jumpi\n        /* \"#utility.yul\":19228:19237   */\n      dup5\n        /* \"#utility.yul\":19223:19226   */\n      dup10\n        /* \"#utility.yul\":19219:19238   */\n      add\n        /* \"#utility.yul\":19213:19239   */\n      mload\n        /* \"#utility.yul\":19271:19319   */\n      tag_415\n        /* \"#utility.yul\":19313:19317   */\n      0x1f\n        /* \"#utility.yul\":19305:19311   */\n      dup10\n        /* \"#utility.yul\":19301:19318   */\n      and\n        /* \"#utility.yul\":19290:19299   */\n      dup3\n        /* \"#utility.yul\":19271:19319   */\n      tag_212\n      jump\t// in\n    tag_415:\n        /* \"#utility.yul\":19263:19269   */\n      dup4\n        /* \"#utility.yul\":19256:19320   */\n      sstore\n        /* \"#utility.yul\":19178:19334   */\n      pop\n        /* \"#utility.yul\":19155:19334   */\n    tag_414:\n        /* \"#utility.yul\":19380:19381   */\n      0x01\n        /* \"#utility.yul\":19376:19377   */\n      0x02\n        /* \"#utility.yul\":19368:19374   */\n      dup9\n        /* \"#utility.yul\":19364:19378   */\n      mul\n        /* \"#utility.yul\":19360:19382   */\n      add\n        /* \"#utility.yul\":19354:19358   */\n      dup9\n        /* \"#utility.yul\":19347:19383   */\n      sstore\n        /* \"#utility.yul\":18782:19393   */\n      pop\n      pop\n      pop\n        /* \"#utility.yul\":18745:19632   */\n    tag_406:\n      pop\n        /* \"#utility.yul\":18335:19638   */\n      pop\n      pop\n      pop\n        /* \"#utility.yul\":18243:19638   */\n      pop\n      pop\n      jump\t// out\n        /* \"#utility.yul\":19644:20379   */\n    tag_148:\n        /* \"#utility.yul\":19861:19865   */\n      0x00\n        /* \"#utility.yul\":19899:19902   */\n      0x80\n        /* \"#utility.yul\":19888:19897   */\n      dup3\n        /* \"#utility.yul\":19884:19903   */\n      add\n        /* \"#utility.yul\":19876:19903   */\n      swap1\n      pop\n        /* \"#utility.yul\":19949:19958   */\n      dup2\n        /* \"#utility.yul\":19943:19947   */\n      dup2\n        /* \"#utility.yul\":19939:19959   */\n      sub\n        /* \"#utility.yul\":19935:19936   */\n      0x00\n        /* \"#utility.yul\":19924:19933   */\n      dup4\n        /* \"#utility.yul\":19920:19937   */\n      add\n        /* \"#utility.yul\":19913:19960   */\n      mstore\n        /* \"#utility.yul\":19977:20055   */\n      tag_417\n        /* \"#utility.yul\":20050:20054   */\n      dup2\n        /* \"#utility.yul\":20041:20047   */\n      dup8\n        /* \"#utility.yul\":19977:20055   */\n      tag_175\n      jump\t// in\n    tag_417:\n        /* \"#utility.yul\":19969:20055   */\n      swap1\n      pop\n        /* \"#utility.yul\":20102:20111   */\n      dup2\n        /* \"#utility.yul\":20096:20100   */\n      dup2\n        /* \"#utility.yul\":20092:20112   */\n      sub\n        /* \"#utility.yul\":20087:20089   */\n      0x20\n        /* \"#utility.yul\":20076:20085   */\n      dup4\n        /* \"#utility.yul\":20072:20090   */\n      add\n        /* \"#utility.yul\":20065:20113   */\n      mstore\n        /* \"#utility.yul\":20130:20208   */\n      tag_418\n        /* \"#utility.yul\":20203:20207   */\n      dup2\n        /* \"#utility.yul\":20194:20200   */\n      dup7\n        /* \"#utility.yul\":20130:20208   */\n      tag_175\n      jump\t// in\n    tag_418:\n        /* \"#utility.yul\":20122:20208   */\n      swap1\n      pop\n        /* \"#utility.yul\":20218:20290   */\n      tag_419\n        /* \"#utility.yul\":20286:20288   */\n      0x40\n        /* \"#utility.yul\":20275:20284   */\n      dup4\n        /* \"#utility.yul\":20271:20289   */\n      add\n        /* \"#utility.yul\":20262:20268   */\n      dup6\n        /* \"#utility.yul\":20218:20290   */\n      tag_164\n      jump\t// in\n    tag_419:\n        /* \"#utility.yul\":20300:20372   */\n      tag_420\n        /* \"#utility.yul\":20368:20370   */\n      0x60\n        /* \"#utility.yul\":20357:20366   */\n      dup4\n        /* \"#utility.yul\":20353:20371   */\n      add\n        /* \"#utility.yul\":20344:20350   */\n      dup5\n        /* \"#utility.yul\":20300:20372   */\n      tag_164\n      jump\t// in\n    tag_420:\n        /* \"#utility.yul\":19644:20379   */\n      swap6\n      swap5\n      pop\n      pop\n      pop\n      pop\n      pop\n      jump\t// out\n\n    auxdata: 0xa2646970667358221220bbb82c267cbde44ed9f7bbf95a7bf05a839e01d4417ab9fc3818f2f53626a6ca64736f6c634300081a0033\n}\n",
				"bytecode": {
					"linkReferences": {},
					"object": "608060405234801561000f575f80fd5b5060405161196f38038061196f833981810160405281019061003191906101d7565b805f73ffffffffffffffffffffffffffffffffffffffff168173ffffffffffffffffffffffffffffffffffffffff16036100a2575f6040517f1e4fbdf70000000000000000000000000000000000000000000000000000000081526004016100999190610211565b60405180910390fd5b6100b1816100b860201b60201c565b505061022a565b5f805f9054906101000a900473ffffffffffffffffffffffffffffffffffffffff169050815f806101000a81548173ffffffffffffffffffffffffffffffffffffffff021916908373ffffffffffffffffffffffffffffffffffffffff1602179055508173ffffffffffffffffffffffffffffffffffffffff168173ffffffffffffffffffffffffffffffffffffffff167f8be0079c531659141344cd1fd0a4f28419497f9722a3daafe3b4186f6b6457e060405160405180910390a35050565b5f80fd5b5f73ffffffffffffffffffffffffffffffffffffffff82169050919050565b5f6101a68261017d565b9050919050565b6101b68161019c565b81146101c0575f80fd5b50565b5f815190506101d1816101ad565b92915050565b5f602082840312156101ec576101eb610179565b5b5f6101f9848285016101c3565b91505092915050565b61020b8161019c565b82525050565b5f6020820190506102245f830184610202565b92915050565b611738806102375f395ff3fe60806040526004361061009b575f3560e01c8063715018a611610063578063715018a6146101b357806383c2eaba146101c95780638c1af2e0146102055780638da5cb5b1461022d578063f2fde38b14610257578063f733719c1461027f5761009b565b80633af8c2d51461009f578063513073b8146100bb5780635745ae28146100f75780635ac3e19e146101335780636874404614610173575b5f80fd5b6100b960048036038101906100b49190610c7b565b6102a7565b005b3480156100c6575f80fd5b506100e160048036038101906100dc9190610cb9565b61045a565b6040516100ee9190610cf3565b60405180910390f35b348015610102575f80fd5b5061011d60048036038101906101189190610d66565b61047a565b60405161012a9190610dab565b60405180910390f35b34801561013e575f80fd5b5061015960048036038101906101549190610cb9565b610497565b60405161016a959493929190610e34565b60405180910390f35b34801561017e575f80fd5b5061019960048036038101906101949190610cb9565b610635565b6040516101aa959493929190610e34565b60405180910390f35b3480156101be575f80fd5b506101c761077f565b005b3480156101d4575f80fd5b506101ef60048036038101906101ea9190610cb9565b610792565b6040516101fc9190610ea2565b60405180910390f35b348015610210575f80fd5b5061022b60048036038101906102269190610c7b565b6107cd565b005b348015610238575f80fd5b506102416108c5565b60405161024e9190610ea2565b60405180910390f35b348015610262575f80fd5b5061027d60048036038101906102789190610d66565b6108ec565b005b34801561028a575f80fd5b506102a560048036038101906102a09190610fe7565b610970565b005b5f60015f8481526020019081526020015f209050806004015f9054906101000a900460ff1661030b576040517f08c379a0000000000000000000000000000000000000000000000000000000008152600401610302906110e0565b60405180910390fd5b8181600301541015610352576040517f08c379a000000000000000000000000000000000000000000000000000000000815260040161034990611148565b60405180910390fd5b5f670de0b6b3a76400008361036791906111c0565b826002015461037691906111f0565b90508034146103ba576040517f08c379a00000000000000000000000000000000000000000000000000000000081526004016103b19061127b565b60405180910390fd5b3373ffffffffffffffffffffffffffffffffffffffff16847f6c8d68b838f247ed7bcb21ea277e2e9304099fc25d2a89d666fb64482971e0fc856040516104019190610cf3565b60405180910390a36104116108c5565b73ffffffffffffffffffffffffffffffffffffffff166108fc3490811502906040515f60405180830381858888f19350505050158015610453573d5f803e3d5ffd5b5050505050565b60038181548110610469575f80fd5b905f5260205f20015f915090505481565b6002602052805f5260405f205f915054906101000a900460ff1681565b6060805f805f8060015f8881526020019081526020015f206040518060a00160405290815f820180546104c9906112c6565b80601f01602080910402602001604051908101604052809291908181526020018280546104f5906112c6565b80156105405780601f1061051757610100808354040283529160200191610540565b820191905f5260205f20905b81548152906001019060200180831161052357829003601f168201915b50505050508152602001600182018054610559906112c6565b80601f0160208091040260200160405190810160405280929190818152602001828054610585906112c6565b80156105d05780601f106105a7576101008083540402835291602001916105d0565b820191905f5260205f20905b8154815290600101906020018083116105b357829003601f168201915b505050505081526020016002820154815260200160038201548152602001600482015f9054906101000a900460ff1615151515815250509050805f01518160200151826040015183606001518460800151955095509550955095505091939590929450565b6001602052805f5260405f205f91509050805f018054610654906112c6565b80601f0160208091040260200160405190810160405280929190818152602001828054610680906112c6565b80156106cb5780601f106106a2576101008083540402835291602001916106cb565b820191905f5260205f20905b8154815290600101906020018083116106ae57829003601f168201915b5050505050908060010180546106e0906112c6565b80601f016020809104026020016040519081016040528092919081815260200182805461070c906112c6565b80156107575780601f1061072e57610100808354040283529160200191610757565b820191905f5260205f20905b81548152906001019060200180831161073a57829003601f168201915b505050505090806002015490806003015490806004015f9054906101000a900460ff16905085565b610787610ae8565b6107905f610b6f565b565b600481815481106107a1575f80fd5b905f5260205f20015f915054906101000a900473ffffffffffffffffffffffffffffffffffffffff1681565b6107d5610ae8565b5f60015f8481526020019081526020015f2090508181600301541015610830576040517f08c379a000000000000000000000000000000000000000000000000000000000815260040161082790611366565b60405180910390fd5b81816003015f8282546108439190611384565b925050819055505f816003015403610871575f816004015f6101000a81548160ff0219169083151502179055505b3373ffffffffffffffffffffffffffffffffffffffff16837f64d3c1cd49b6dedf0828bb9ccdeddcb5c406529c38385a4255e1938cdb77cbbb846040516108b89190610cf3565b60405180910390a3505050565b5f805f9054906101000a900473ffffffffffffffffffffffffffffffffffffffff16905090565b6108f4610ae8565b5f73ffffffffffffffffffffffffffffffffffffffff168173ffffffffffffffffffffffffffffffffffffffff1603610964575f6040517f1e4fbdf700000000000000000000000000000000000000000000000000000000815260040161095b9190610ea2565b60405180910390fd5b61096d81610b6f565b50565b610978610ae8565b5f60015f8781526020019081526020015f2060020154146109ce576040517f08c379a00000000000000000000000000000000000000000000000000000000081526004016109c590611427565b60405180910390fd5b6040518060a001604052808581526020018481526020018381526020018281526020015f8311151581525060015f8781526020019081526020015f205f820151815f019081610a1d91906115e2565b506020820151816001019081610a3391906115e2565b5060408201518160020155606082015181600301556080820151816004015f6101000a81548160ff021916908315150217905550905050600385908060018154018082558091505060019003905f5260205f20015f9091909190915055847f722c04650224f771c04ec5712c74689980b3ddb4eaa233cd8f9c72d7da7fbe298585670de0b6b3a764000086610ac891906111f0565b85604051610ad994939291906116b1565b60405180910390a25050505050565b610af0610c30565b73ffffffffffffffffffffffffffffffffffffffff16610b0e6108c5565b73ffffffffffffffffffffffffffffffffffffffff1614610b6d57610b31610c30565b6040517f118cdaa7000000000000000000000000000000000000000000000000000000008152600401610b649190610ea2565b60405180910390fd5b565b5f805f9054906101000a900473ffffffffffffffffffffffffffffffffffffffff169050815f806101000a81548173ffffffffffffffffffffffffffffffffffffffff021916908373ffffffffffffffffffffffffffffffffffffffff1602179055508173ffffffffffffffffffffffffffffffffffffffff168173ffffffffffffffffffffffffffffffffffffffff167f8be0079c531659141344cd1fd0a4f28419497f9722a3daafe3b4186f6b6457e060405160405180910390a35050565b5f33905090565b5f604051905090565b5f80fd5b5f80fd5b5f819050919050565b610c5a81610c48565b8114610c64575f80fd5b50565b5f81359050610c7581610c51565b92915050565b5f8060408385031215610c9157610c90610c40565b5b5f610c9e85828601610c67565b9250506020610caf85828601610c67565b9150509250929050565b5f60208284031215610cce57610ccd610c40565b5b5f610cdb84828501610c67565b91505092915050565b610ced81610c48565b82525050565b5f602082019050610d065f830184610ce4565b92915050565b5f73ffffffffffffffffffffffffffffffffffffffff82169050919050565b5f610d3582610d0c565b9050919050565b610d4581610d2b565b8114610d4f575f80fd5b50565b5f81359050610d6081610d3c565b92915050565b5f60208284031215610d7b57610d7a610c40565b5b5f610d8884828501610d52565b91505092915050565b5f8115159050919050565b610da581610d91565b82525050565b5f602082019050610dbe5f830184610d9c565b92915050565b5f81519050919050565b5f82825260208201905092915050565b8281835e5f83830152505050565b5f601f19601f8301169050919050565b5f610e0682610dc4565b610e108185610dce565b9350610e20818560208601610dde565b610e2981610dec565b840191505092915050565b5f60a0820190508181035f830152610e4c8188610dfc565b90508181036020830152610e608187610dfc565b9050610e6f6040830186610ce4565b610e7c6060830185610ce4565b610e896080830184610d9c565b9695505050505050565b610e9c81610d2b565b82525050565b5f602082019050610eb55f830184610e93565b92915050565b5f80fd5b5f80fd5b7f4e487b71000000000000000000000000000000000000000000000000000000005f52604160045260245ffd5b610ef982610dec565b810181811067ffffffffffffffff82111715610f1857610f17610ec3565b5b80604052505050565b5f610f2a610c37565b9050610f368282610ef0565b919050565b5f67ffffffffffffffff821115610f5557610f54610ec3565b5b610f5e82610dec565b9050602081019050919050565b828183375f83830152505050565b5f610f8b610f8684610f3b565b610f21565b905082815260208101848484011115610fa757610fa6610ebf565b5b610fb2848285610f6b565b509392505050565b5f82601f830112610fce57610fcd610ebb565b5b8135610fde848260208601610f79565b91505092915050565b5f805f805f60a0868803121561100057610fff610c40565b5b5f61100d88828901610c67565b955050602086013567ffffffffffffffff81111561102e5761102d610c44565b5b61103a88828901610fba565b945050604086013567ffffffffffffffff81111561105b5761105a610c44565b5b61106788828901610fba565b935050606061107888828901610c67565b925050608061108988828901610c67565b9150509295509295909350565b7f5468697320626f6f6b206973206e6f7420617661696c61626c652e00000000005f82015250565b5f6110ca601b83610dce565b91506110d582611096565b602082019050919050565b5f6020820190508181035f8301526110f7816110be565b9050919050565b7f4e6f7420656e6f7567682073746f636b20617661696c61626c652e00000000005f82015250565b5f611132601b83610dce565b915061113d826110fe565b602082019050919050565b5f6020820190508181035f83015261115f81611126565b9050919050565b7f4e487b71000000000000000000000000000000000000000000000000000000005f52601260045260245ffd5b7f4e487b71000000000000000000000000000000000000000000000000000000005f52601160045260245ffd5b5f6111ca82610c48565b91506111d583610c48565b9250826111e5576111e4611166565b5b828204905092915050565b5f6111fa82610c48565b915061120583610c48565b925082820261121381610c48565b9150828204841483151761122a57611229611193565b5b5092915050565b7f20496e636f7272656374207061796d656e7420616d6f756e74000000000000005f82015250565b5f611265601983610dce565b915061127082611231565b602082019050919050565b5f6020820190508181035f83015261129281611259565b9050919050565b7f4e487b71000000000000000000000000000000000000000000000000000000005f52602260045260245ffd5b5f60028204905060018216806112dd57607f821691505b6020821081036112f0576112ef611299565b5b50919050565b7f6e6f7420656e6f756768742073746f636b20746f20636f6e6669726d207075725f8201527f6368617365000000000000000000000000000000000000000000000000000000602082015250565b5f611350602583610dce565b915061135b826112f6565b604082019050919050565b5f6020820190508181035f83015261137d81611344565b9050919050565b5f61138e82610c48565b915061139983610c48565b92508282039050818111156113b1576113b0611193565b5b92915050565b7f426f6f6b20616c726561647920657869737473207769746820746869732049445f8201527f2e00000000000000000000000000000000000000000000000000000000000000602082015250565b5f611411602183610dce565b915061141c826113b7565b604082019050919050565b5f6020820190508181035f83015261143e81611405565b9050919050565b5f819050815f5260205f209050919050565b5f6020601f8301049050919050565b5f82821b905092915050565b5f600883026114a17fffffffffffffffffffffffffffffffffffffffffffffffffffffffffffffffff82611466565b6114ab8683611466565b95508019841693508086168417925050509392505050565b5f819050919050565b5f6114e66114e16114dc84610c48565b6114c3565b610c48565b9050919050565b5f819050919050565b6114ff836114cc565b61151361150b826114ed565b848454611472565b825550505050565b5f90565b61152761151b565b6115328184846114f6565b505050565b5b818110156115555761154a5f8261151f565b600181019050611538565b5050565b601f82111561159a5761156b81611445565b61157484611457565b81016020851015611583578190505b61159761158f85611457565b830182611537565b50505b505050565b5f82821c905092915050565b5f6115ba5f198460080261159f565b1980831691505092915050565b5f6115d283836115ab565b9150826002028217905092915050565b6115eb82610dc4565b67ffffffffffffffff81111561160457611603610ec3565b5b61160e82546112c6565b611619828285611559565b5f60209050601f83116001811461164a575f8415611638578287015190505b61164285826115c7565b8655506116a9565b601f19841661165886611445565b5f5b8281101561167f5784890151825560018201915060208501945060208101905061165a565b8683101561169c5784890151611698601f8916826115ab565b8355505b6001600288020188555050505b505050505050565b5f6080820190508181035f8301526116c98187610dfc565b905081810360208301526116dd8186610dfc565b90506116ec6040830185610ce4565b6116f96060830184610ce4565b9594505050505056fea2646970667358221220bbb82c267cbde44ed9f7bbf95a7bf05a839e01d4417ab9fc3818f2f53626a6ca64736f6c634300081a0033",
					"opcodes": "PUSH1 0x80 PUSH1 0x40 MSTORE CALLVALUE DUP1 ISZERO PUSH2 0xF JUMPI PUSH0 DUP1 REVERT JUMPDEST POP PUSH1 0x40 MLOAD PUSH2 0x196F CODESIZE SUB DUP1 PUSH2 0x196F DUP4 CODECOPY DUP2 DUP2 ADD PUSH1 0x40 MSTORE DUP2 ADD SWAP1 PUSH2 0x31 SWAP2 SWAP1 PUSH2 0x1D7 JUMP JUMPDEST DUP1 PUSH0 PUSH20 0xFFFFFFFFFFFFFFFFFFFFFFFFFFFFFFFFFFFFFFFF AND DUP2 PUSH20 0xFFFFFFFFFFFFFFFFFFFFFFFFFFFFFFFFFFFFFFFF AND SUB PUSH2 0xA2 JUMPI PUSH0 PUSH1 0x40 MLOAD PUSH32 0x1E4FBDF700000000000000000000000000000000000000000000000000000000 DUP2 MSTORE PUSH1 0x4 ADD PUSH2 0x99 SWAP2 SWAP1 PUSH2 0x211 JUMP JUMPDEST PUSH1 0x40 MLOAD DUP1 SWAP2 SUB SWAP1 REVERT JUMPDEST PUSH2 0xB1 DUP2 PUSH2 0xB8 PUSH1 0x20 SHL PUSH1 0x20 SHR JUMP JUMPDEST POP POP PUSH2 0x22A JUMP JUMPDEST PUSH0 DUP1 PUSH0 SWAP1 SLOAD SWAP1 PUSH2 0x100 EXP SWAP1 DIV PUSH20 0xFFFFFFFFFFFFFFFFFFFFFFFFFFFFFFFFFFFFFFFF AND SWAP1 POP DUP2 PUSH0 DUP1 PUSH2 0x100 EXP DUP2 SLOAD DUP2 PUSH20 0xFFFFFFFFFFFFFFFFFFFFFFFFFFFFFFFFFFFFFFFF MUL NOT AND SWAP1 DUP4 PUSH20 0xFFFFFFFFFFFFFFFFFFFFFFFFFFFFFFFFFFFFFFFF AND MUL OR SWAP1 SSTORE POP DUP2 PUSH20 0xFFFFFFFFFFFFFFFFFFFFFFFFFFFFFFFFFFFFFFFF AND DUP2 PUSH20 0xFFFFFFFFFFFFFFFFFFFFFFFFFFFFFFFFFFFFFFFF AND PUSH32 0x8BE0079C531659141344CD1FD0A4F28419497F9722A3DAAFE3B4186F6B6457E0 PUSH1 0x40 MLOAD PUSH1 0x40 MLOAD DUP1 SWAP2 SUB SWAP1 LOG3 POP POP JUMP JUMPDEST PUSH0 DUP1 REVERT JUMPDEST PUSH0 PUSH20 0xFFFFFFFFFFFFFFFFFFFFFFFFFFFFFFFFFFFFFFFF DUP3 AND SWAP1 POP SWAP2 SWAP1 POP JUMP JUMPDEST PUSH0 PUSH2 0x1A6 DUP3 PUSH2 0x17D JUMP JUMPDEST SWAP1 POP SWAP2 SWAP1 POP JUMP JUMPDEST PUSH2 0x1B6 DUP2 PUSH2 0x19C JUMP JUMPDEST DUP2 EQ PUSH2 0x1C0 JUMPI PUSH0 DUP1 REVERT JUMPDEST POP JUMP JUMPDEST PUSH0 DUP2 MLOAD SWAP1 POP PUSH2 0x1D1 DUP2 PUSH2 0x1AD JUMP JUMPDEST SWAP3 SWAP2 POP POP JUMP JUMPDEST PUSH0 PUSH1 0x20 DUP3 DUP5 SUB SLT ISZERO PUSH2 0x1EC JUMPI PUSH2 0x1EB PUSH2 0x179 JUMP JUMPDEST JUMPDEST PUSH0 PUSH2 0x1F9 DUP5 DUP3 DUP6 ADD PUSH2 0x1C3 JUMP JUMPDEST SWAP2 POP POP SWAP3 SWAP2 POP POP JUMP JUMPDEST PUSH2 0x20B DUP2 PUSH2 0x19C JUMP JUMPDEST DUP3 MSTORE POP POP JUMP JUMPDEST PUSH0 PUSH1 0x20 DUP3 ADD SWAP1 POP PUSH2 0x224 PUSH0 DUP4 ADD DUP5 PUSH2 0x202 JUMP JUMPDEST SWAP3 SWAP2 POP POP JUMP JUMPDEST PUSH2 0x1738 DUP1 PUSH2 0x237 PUSH0 CODECOPY PUSH0 RETURN INVALID PUSH1 0x80 PUSH1 0x40 MSTORE PUSH1 0x4 CALLDATASIZE LT PUSH2 0x9B JUMPI PUSH0 CALLDATALOAD PUSH1 0xE0 SHR DUP1 PUSH4 0x715018A6 GT PUSH2 0x63 JUMPI DUP1 PUSH4 0x715018A6 EQ PUSH2 0x1B3 JUMPI DUP1 PUSH4 0x83C2EABA EQ PUSH2 0x1C9 JUMPI DUP1 PUSH4 0x8C1AF2E0 EQ PUSH2 0x205 JUMPI DUP1 PUSH4 0x8DA5CB5B EQ PUSH2 0x22D JUMPI DUP1 PUSH4 0xF2FDE38B EQ PUSH2 0x257 JUMPI DUP1 PUSH4 0xF733719C EQ PUSH2 0x27F JUMPI PUSH2 0x9B JUMP JUMPDEST DUP1 PUSH4 0x3AF8C2D5 EQ PUSH2 0x9F JUMPI DUP1 PUSH4 0x513073B8 EQ PUSH2 0xBB JUMPI DUP1 PUSH4 0x5745AE28 EQ PUSH2 0xF7 JUMPI DUP1 PUSH4 0x5AC3E19E EQ PUSH2 0x133 JUMPI DUP1 PUSH4 0x68744046 EQ PUSH2 0x173 JUMPI JUMPDEST PUSH0 DUP1 REVERT JUMPDEST PUSH2 0xB9 PUSH1 0x4 DUP1 CALLDATASIZE SUB DUP2 ADD SWAP1 PUSH2 0xB4 SWAP2 SWAP1 PUSH2 0xC7B JUMP JUMPDEST PUSH2 0x2A7 JUMP JUMPDEST STOP JUMPDEST CALLVALUE DUP1 ISZERO PUSH2 0xC6 JUMPI PUSH0 DUP1 REVERT JUMPDEST POP PUSH2 0xE1 PUSH1 0x4 DUP1 CALLDATASIZE SUB DUP2 ADD SWAP1 PUSH2 0xDC SWAP2 SWAP1 PUSH2 0xCB9 JUMP JUMPDEST PUSH2 0x45A JUMP JUMPDEST PUSH1 0x40 MLOAD PUSH2 0xEE SWAP2 SWAP1 PUSH2 0xCF3 JUMP JUMPDEST PUSH1 0x40 MLOAD DUP1 SWAP2 SUB SWAP1 RETURN JUMPDEST CALLVALUE DUP1 ISZERO PUSH2 0x102 JUMPI PUSH0 DUP1 REVERT JUMPDEST POP PUSH2 0x11D PUSH1 0x4 DUP1 CALLDATASIZE SUB DUP2 ADD SWAP1 PUSH2 0x118 SWAP2 SWAP1 PUSH2 0xD66 JUMP JUMPDEST PUSH2 0x47A JUMP JUMPDEST PUSH1 0x40 MLOAD PUSH2 0x12A SWAP2 SWAP1 PUSH2 0xDAB JUMP JUMPDEST PUSH1 0x40 MLOAD DUP1 SWAP2 SUB SWAP1 RETURN JUMPDEST CALLVALUE DUP1 ISZERO PUSH2 0x13E JUMPI PUSH0 DUP1 REVERT JUMPDEST POP PUSH2 0x159 PUSH1 0x4 DUP1 CALLDATASIZE SUB DUP2 ADD SWAP1 PUSH2 0x154 SWAP2 SWAP1 PUSH2 0xCB9 JUMP JUMPDEST PUSH2 0x497 JUMP JUMPDEST PUSH1 0x40 MLOAD PUSH2 0x16A SWAP6 SWAP5 SWAP4 SWAP3 SWAP2 SWAP1 PUSH2 0xE34 JUMP JUMPDEST PUSH1 0x40 MLOAD DUP1 SWAP2 SUB SWAP1 RETURN JUMPDEST CALLVALUE DUP1 ISZERO PUSH2 0x17E JUMPI PUSH0 DUP1 REVERT JUMPDEST POP PUSH2 0x199 PUSH1 0x4 DUP1 CALLDATASIZE SUB DUP2 ADD SWAP1 PUSH2 0x194 SWAP2 SWAP1 PUSH2 0xCB9 JUMP JUMPDEST PUSH2 0x635 JUMP JUMPDEST PUSH1 0x40 MLOAD PUSH2 0x1AA SWAP6 SWAP5 SWAP4 SWAP3 SWAP2 SWAP1 PUSH2 0xE34 JUMP JUMPDEST PUSH1 0x40 MLOAD DUP1 SWAP2 SUB SWAP1 RETURN JUMPDEST CALLVALUE DUP1 ISZERO PUSH2 0x1BE JUMPI PUSH0 DUP1 REVERT JUMPDEST POP PUSH2 0x1C7 PUSH2 0x77F JUMP JUMPDEST STOP JUMPDEST CALLVALUE DUP1 ISZERO PUSH2 0x1D4 JUMPI PUSH0 DUP1 REVERT JUMPDEST POP PUSH2 0x1EF PUSH1 0x4 DUP1 CALLDATASIZE SUB DUP2 ADD SWAP1 PUSH2 0x1EA SWAP2 SWAP1 PUSH2 0xCB9 JUMP JUMPDEST PUSH2 0x792 JUMP JUMPDEST PUSH1 0x40 MLOAD PUSH2 0x1FC SWAP2 SWAP1 PUSH2 0xEA2 JUMP JUMPDEST PUSH1 0x40 MLOAD DUP1 SWAP2 SUB SWAP1 RETURN JUMPDEST CALLVALUE DUP1 ISZERO PUSH2 0x210 JUMPI PUSH0 DUP1 REVERT JUMPDEST POP PUSH2 0x22B PUSH1 0x4 DUP1 CALLDATASIZE SUB DUP2 ADD SWAP1 PUSH2 0x226 SWAP2 SWAP1 PUSH2 0xC7B JUMP JUMPDEST PUSH2 0x7CD JUMP JUMPDEST STOP JUMPDEST CALLVALUE DUP1 ISZERO PUSH2 0x238 JUMPI PUSH0 DUP1 REVERT JUMPDEST POP PUSH2 0x241 PUSH2 0x8C5 JUMP JUMPDEST PUSH1 0x40 MLOAD PUSH2 0x24E SWAP2 SWAP1 PUSH2 0xEA2 JUMP JUMPDEST PUSH1 0x40 MLOAD DUP1 SWAP2 SUB SWAP1 RETURN JUMPDEST CALLVALUE DUP1 ISZERO PUSH2 0x262 JUMPI PUSH0 DUP1 REVERT JUMPDEST POP PUSH2 0x27D PUSH1 0x4 DUP1 CALLDATASIZE SUB DUP2 ADD SWAP1 PUSH2 0x278 SWAP2 SWAP1 PUSH2 0xD66 JUMP JUMPDEST PUSH2 0x8EC JUMP JUMPDEST STOP JUMPDEST CALLVALUE DUP1 ISZERO PUSH2 0x28A JUMPI PUSH0 DUP1 REVERT JUMPDEST POP PUSH2 0x2A5 PUSH1 0x4 DUP1 CALLDATASIZE SUB DUP2 ADD SWAP1 PUSH2 0x2A0 SWAP2 SWAP1 PUSH2 0xFE7 JUMP JUMPDEST PUSH2 0x970 JUMP JUMPDEST STOP JUMPDEST PUSH0 PUSH1 0x1 PUSH0 DUP5 DUP2 MSTORE PUSH1 0x20 ADD SWAP1 DUP2 MSTORE PUSH1 0x20 ADD PUSH0 KECCAK256 SWAP1 POP DUP1 PUSH1 0x4 ADD PUSH0 SWAP1 SLOAD SWAP1 PUSH2 0x100 EXP SWAP1 DIV PUSH1 0xFF AND PUSH2 0x30B JUMPI PUSH1 0x40 MLOAD PUSH32 0x8C379A000000000000000000000000000000000000000000000000000000000 DUP2 MSTORE PUSH1 0x4 ADD PUSH2 0x302 SWAP1 PUSH2 0x10E0 JUMP JUMPDEST PUSH1 0x40 MLOAD DUP1 SWAP2 SUB SWAP1 REVERT JUMPDEST DUP2 DUP2 PUSH1 0x3 ADD SLOAD LT ISZERO PUSH2 0x352 JUMPI PUSH1 0x40 MLOAD PUSH32 0x8C379A000000000000000000000000000000000000000000000000000000000 DUP2 MSTORE PUSH1 0x4 ADD PUSH2 0x349 SWAP1 PUSH2 0x1148 JUMP JUMPDEST PUSH1 0x40 MLOAD DUP1 SWAP2 SUB SWAP1 REVERT JUMPDEST PUSH0 PUSH8 0xDE0B6B3A7640000 DUP4 PUSH2 0x367 SWAP2 SWAP1 PUSH2 0x11C0 JUMP JUMPDEST DUP3 PUSH1 0x2 ADD SLOAD PUSH2 0x376 SWAP2 SWAP1 PUSH2 0x11F0 JUMP JUMPDEST SWAP1 POP DUP1 CALLVALUE EQ PUSH2 0x3BA JUMPI PUSH1 0x40 MLOAD PUSH32 0x8C379A000000000000000000000000000000000000000000000000000000000 DUP2 MSTORE PUSH1 0x4 ADD PUSH2 0x3B1 SWAP1 PUSH2 0x127B JUMP JUMPDEST PUSH1 0x40 MLOAD DUP1 SWAP2 SUB SWAP1 REVERT JUMPDEST CALLER PUSH20 0xFFFFFFFFFFFFFFFFFFFFFFFFFFFFFFFFFFFFFFFF AND DUP5 PUSH32 0x6C8D68B838F247ED7BCB21EA277E2E9304099FC25D2A89D666FB64482971E0FC DUP6 PUSH1 0x40 MLOAD PUSH2 0x401 SWAP2 SWAP1 PUSH2 0xCF3 JUMP JUMPDEST PUSH1 0x40 MLOAD DUP1 SWAP2 SUB SWAP1 LOG3 PUSH2 0x411 PUSH2 0x8C5 JUMP JUMPDEST PUSH20 0xFFFFFFFFFFFFFFFFFFFFFFFFFFFFFFFFFFFFFFFF AND PUSH2 0x8FC CALLVALUE SWAP1 DUP2 ISZERO MUL SWAP1 PUSH1 0x40 MLOAD PUSH0 PUSH1 0x40 MLOAD DUP1 DUP4 SUB DUP2 DUP6 DUP9 DUP9 CALL SWAP4 POP POP POP POP ISZERO DUP1 ISZERO PUSH2 0x453 JUMPI RETURNDATASIZE PUSH0 DUP1 RETURNDATACOPY RETURNDATASIZE PUSH0 REVERT JUMPDEST POP POP POP POP POP JUMP JUMPDEST PUSH1 0x3 DUP2 DUP2 SLOAD DUP2 LT PUSH2 0x469 JUMPI PUSH0 DUP1 REVERT JUMPDEST SWAP1 PUSH0 MSTORE PUSH1 0x20 PUSH0 KECCAK256 ADD PUSH0 SWAP2 POP SWAP1 POP SLOAD DUP2 JUMP JUMPDEST PUSH1 0x2 PUSH1 0x20 MSTORE DUP1 PUSH0 MSTORE PUSH1 0x40 PUSH0 KECCAK256 PUSH0 SWAP2 POP SLOAD SWAP1 PUSH2 0x100 EXP SWAP1 DIV PUSH1 0xFF AND DUP2 JUMP JUMPDEST PUSH1 0x60 DUP1 PUSH0 DUP1 PUSH0 DUP1 PUSH1 0x1 PUSH0 DUP9 DUP2 MSTORE PUSH1 0x20 ADD SWAP1 DUP2 MSTORE PUSH1 0x20 ADD PUSH0 KECCAK256 PUSH1 0x40 MLOAD DUP1 PUSH1 0xA0 ADD PUSH1 0x40 MSTORE SWAP1 DUP2 PUSH0 DUP3 ADD DUP1 SLOAD PUSH2 0x4C9 SWAP1 PUSH2 0x12C6 JUMP JUMPDEST DUP1 PUSH1 0x1F ADD PUSH1 0x20 DUP1 SWAP2 DIV MUL PUSH1 0x20 ADD PUSH1 0x40 MLOAD SWAP1 DUP2 ADD PUSH1 0x40 MSTORE DUP1 SWAP3 SWAP2 SWAP1 DUP2 DUP2 MSTORE PUSH1 0x20 ADD DUP3 DUP1 SLOAD PUSH2 0x4F5 SWAP1 PUSH2 0x12C6 JUMP JUMPDEST DUP1 ISZERO PUSH2 0x540 JUMPI DUP1 PUSH1 0x1F LT PUSH2 0x517 JUMPI PUSH2 0x100 DUP1 DUP4 SLOAD DIV MUL DUP4 MSTORE SWAP2 PUSH1 0x20 ADD SWAP2 PUSH2 0x540 JUMP JUMPDEST DUP3 ADD SWAP2 SWAP1 PUSH0 MSTORE PUSH1 0x20 PUSH0 KECCAK256 SWAP1 JUMPDEST DUP2 SLOAD DUP2 MSTORE SWAP1 PUSH1 0x1 ADD SWAP1 PUSH1 0x20 ADD DUP1 DUP4 GT PUSH2 0x523 JUMPI DUP3 SWAP1 SUB PUSH1 0x1F AND DUP3 ADD SWAP2 JUMPDEST POP POP POP POP POP DUP2 MSTORE PUSH1 0x20 ADD PUSH1 0x1 DUP3 ADD DUP1 SLOAD PUSH2 0x559 SWAP1 PUSH2 0x12C6 JUMP JUMPDEST DUP1 PUSH1 0x1F ADD PUSH1 0x20 DUP1 SWAP2 DIV MUL PUSH1 0x20 ADD PUSH1 0x40 MLOAD SWAP1 DUP2 ADD PUSH1 0x40 MSTORE DUP1 SWAP3 SWAP2 SWAP1 DUP2 DUP2 MSTORE PUSH1 0x20 ADD DUP3 DUP1 SLOAD PUSH2 0x585 SWAP1 PUSH2 0x12C6 JUMP JUMPDEST DUP1 ISZERO PUSH2 0x5D0 JUMPI DUP1 PUSH1 0x1F LT PUSH2 0x5A7 JUMPI PUSH2 0x100 DUP1 DUP4 SLOAD DIV MUL DUP4 MSTORE SWAP2 PUSH1 0x20 ADD SWAP2 PUSH2 0x5D0 JUMP JUMPDEST DUP3 ADD SWAP2 SWAP1 PUSH0 MSTORE PUSH1 0x20 PUSH0 KECCAK256 SWAP1 JUMPDEST DUP2 SLOAD DUP2 MSTORE SWAP1 PUSH1 0x1 ADD SWAP1 PUSH1 0x20 ADD DUP1 DUP4 GT PUSH2 0x5B3 JUMPI DUP3 SWAP1 SUB PUSH1 0x1F AND DUP3 ADD SWAP2 JUMPDEST POP POP POP POP POP DUP2 MSTORE PUSH1 0x20 ADD PUSH1 0x2 DUP3 ADD SLOAD DUP2 MSTORE PUSH1 0x20 ADD PUSH1 0x3 DUP3 ADD SLOAD DUP2 MSTORE PUSH1 0x20 ADD PUSH1 0x4 DUP3 ADD PUSH0 SWAP1 SLOAD SWAP1 PUSH2 0x100 EXP SWAP1 DIV PUSH1 0xFF AND ISZERO ISZERO ISZERO ISZERO DUP2 MSTORE POP POP SWAP1 POP DUP1 PUSH0 ADD MLOAD DUP2 PUSH1 0x20 ADD MLOAD DUP3 PUSH1 0x40 ADD MLOAD DUP4 PUSH1 0x60 ADD MLOAD DUP5 PUSH1 0x80 ADD MLOAD SWAP6 POP SWAP6 POP SWAP6 POP SWAP6 POP SWAP6 POP POP SWAP2 SWAP4 SWAP6 SWAP1 SWAP3 SWAP5 POP JUMP JUMPDEST PUSH1 0x1 PUSH1 0x20 MSTORE DUP1 PUSH0 MSTORE PUSH1 0x40 PUSH0 KECCAK256 PUSH0 SWAP2 POP SWAP1 POP DUP1 PUSH0 ADD DUP1 SLOAD PUSH2 0x654 SWAP1 PUSH2 0x12C6 JUMP JUMPDEST DUP1 PUSH1 0x1F ADD PUSH1 0x20 DUP1 SWAP2 DIV MUL PUSH1 0x20 ADD PUSH1 0x40 MLOAD SWAP1 DUP2 ADD PUSH1 0x40 MSTORE DUP1 SWAP3 SWAP2 SWAP1 DUP2 DUP2 MSTORE PUSH1 0x20 ADD DUP3 DUP1 SLOAD PUSH2 0x680 SWAP1 PUSH2 0x12C6 JUMP JUMPDEST DUP1 ISZERO PUSH2 0x6CB JUMPI DUP1 PUSH1 0x1F LT PUSH2 0x6A2 JUMPI PUSH2 0x100 DUP1 DUP4 SLOAD DIV MUL DUP4 MSTORE SWAP2 PUSH1 0x20 ADD SWAP2 PUSH2 0x6CB JUMP JUMPDEST DUP3 ADD SWAP2 SWAP1 PUSH0 MSTORE PUSH1 0x20 PUSH0 KECCAK256 SWAP1 JUMPDEST DUP2 SLOAD DUP2 MSTORE SWAP1 PUSH1 0x1 ADD SWAP1 PUSH1 0x20 ADD DUP1 DUP4 GT PUSH2 0x6AE JUMPI DUP3 SWAP1 SUB PUSH1 0x1F AND DUP3 ADD SWAP2 JUMPDEST POP POP POP POP POP SWAP1 DUP1 PUSH1 0x1 ADD DUP1 SLOAD PUSH2 0x6E0 SWAP1 PUSH2 0x12C6 JUMP JUMPDEST DUP1 PUSH1 0x1F ADD PUSH1 0x20 DUP1 SWAP2 DIV MUL PUSH1 0x20 ADD PUSH1 0x40 MLOAD SWAP1 DUP2 ADD PUSH1 0x40 MSTORE DUP1 SWAP3 SWAP2 SWAP1 DUP2 DUP2 MSTORE PUSH1 0x20 ADD DUP3 DUP1 SLOAD PUSH2 0x70C SWAP1 PUSH2 0x12C6 JUMP JUMPDEST DUP1 ISZERO PUSH2 0x757 JUMPI DUP1 PUSH1 0x1F LT PUSH2 0x72E JUMPI PUSH2 0x100 DUP1 DUP4 SLOAD DIV MUL DUP4 MSTORE SWAP2 PUSH1 0x20 ADD SWAP2 PUSH2 0x757 JUMP JUMPDEST DUP3 ADD SWAP2 SWAP1 PUSH0 MSTORE PUSH1 0x20 PUSH0 KECCAK256 SWAP1 JUMPDEST DUP2 SLOAD DUP2 MSTORE SWAP1 PUSH1 0x1 ADD SWAP1 PUSH1 0x20 ADD DUP1 DUP4 GT PUSH2 0x73A JUMPI DUP3 SWAP1 SUB PUSH1 0x1F AND DUP3 ADD SWAP2 JUMPDEST POP POP POP POP POP SWAP1 DUP1 PUSH1 0x2 ADD SLOAD SWAP1 DUP1 PUSH1 0x3 ADD SLOAD SWAP1 DUP1 PUSH1 0x4 ADD PUSH0 SWAP1 SLOAD SWAP1 PUSH2 0x100 EXP SWAP1 DIV PUSH1 0xFF AND SWAP1 POP DUP6 JUMP JUMPDEST PUSH2 0x787 PUSH2 0xAE8 JUMP JUMPDEST PUSH2 0x790 PUSH0 PUSH2 0xB6F JUMP JUMPDEST JUMP JUMPDEST PUSH1 0x4 DUP2 DUP2 SLOAD DUP2 LT PUSH2 0x7A1 JUMPI PUSH0 DUP1 REVERT JUMPDEST SWAP1 PUSH0 MSTORE PUSH1 0x20 PUSH0 KECCAK256 ADD PUSH0 SWAP2 POP SLOAD SWAP1 PUSH2 0x100 EXP SWAP1 DIV PUSH20 0xFFFFFFFFFFFFFFFFFFFFFFFFFFFFFFFFFFFFFFFF AND DUP2 JUMP JUMPDEST PUSH2 0x7D5 PUSH2 0xAE8 JUMP JUMPDEST PUSH0 PUSH1 0x1 PUSH0 DUP5 DUP2 MSTORE PUSH1 0x20 ADD SWAP1 DUP2 MSTORE PUSH1 0x20 ADD PUSH0 KECCAK256 SWAP1 POP DUP2 DUP2 PUSH1 0x3 ADD SLOAD LT ISZERO PUSH2 0x830 JUMPI PUSH1 0x40 MLOAD PUSH32 0x8C379A000000000000000000000000000000000000000000000000000000000 DUP2 MSTORE PUSH1 0x4 ADD PUSH2 0x827 SWAP1 PUSH2 0x1366 JUMP JUMPDEST PUSH1 0x40 MLOAD DUP1 SWAP2 SUB SWAP1 REVERT JUMPDEST DUP2 DUP2 PUSH1 0x3 ADD PUSH0 DUP3 DUP3 SLOAD PUSH2 0x843 SWAP2 SWAP1 PUSH2 0x1384 JUMP JUMPDEST SWAP3 POP POP DUP2 SWAP1 SSTORE POP PUSH0 DUP2 PUSH1 0x3 ADD SLOAD SUB PUSH2 0x871 JUMPI PUSH0 DUP2 PUSH1 0x4 ADD PUSH0 PUSH2 0x100 EXP DUP2 SLOAD DUP2 PUSH1 0xFF MUL NOT AND SWAP1 DUP4 ISZERO ISZERO MUL OR SWAP1 SSTORE POP JUMPDEST CALLER PUSH20 0xFFFFFFFFFFFFFFFFFFFFFFFFFFFFFFFFFFFFFFFF AND DUP4 PUSH32 0x64D3C1CD49B6DEDF0828BB9CCDEDDCB5C406529C38385A4255E1938CDB77CBBB DUP5 PUSH1 0x40 MLOAD PUSH2 0x8B8 SWAP2 SWAP1 PUSH2 0xCF3 JUMP JUMPDEST PUSH1 0x40 MLOAD DUP1 SWAP2 SUB SWAP1 LOG3 POP POP POP JUMP JUMPDEST PUSH0 DUP1 PUSH0 SWAP1 SLOAD SWAP1 PUSH2 0x100 EXP SWAP1 DIV PUSH20 0xFFFFFFFFFFFFFFFFFFFFFFFFFFFFFFFFFFFFFFFF AND SWAP1 POP SWAP1 JUMP JUMPDEST PUSH2 0x8F4 PUSH2 0xAE8 JUMP JUMPDEST PUSH0 PUSH20 0xFFFFFFFFFFFFFFFFFFFFFFFFFFFFFFFFFFFFFFFF AND DUP2 PUSH20 0xFFFFFFFFFFFFFFFFFFFFFFFFFFFFFFFFFFFFFFFF AND SUB PUSH2 0x964 JUMPI PUSH0 PUSH1 0x40 MLOAD PUSH32 0x1E4FBDF700000000000000000000000000000000000000000000000000000000 DUP2 MSTORE PUSH1 0x4 ADD PUSH2 0x95B SWAP2 SWAP1 PUSH2 0xEA2 JUMP JUMPDEST PUSH1 0x40 MLOAD DUP1 SWAP2 SUB SWAP1 REVERT JUMPDEST PUSH2 0x96D DUP2 PUSH2 0xB6F JUMP JUMPDEST POP JUMP JUMPDEST PUSH2 0x978 PUSH2 0xAE8 JUMP JUMPDEST PUSH0 PUSH1 0x1 PUSH0 DUP8 DUP2 MSTORE PUSH1 0x20 ADD SWAP1 DUP2 MSTORE PUSH1 0x20 ADD PUSH0 KECCAK256 PUSH1 0x2 ADD SLOAD EQ PUSH2 0x9CE JUMPI PUSH1 0x40 MLOAD PUSH32 0x8C379A000000000000000000000000000000000000000000000000000000000 DUP2 MSTORE PUSH1 0x4 ADD PUSH2 0x9C5 SWAP1 PUSH2 0x1427 JUMP JUMPDEST PUSH1 0x40 MLOAD DUP1 SWAP2 SUB SWAP1 REVERT JUMPDEST PUSH1 0x40 MLOAD DUP1 PUSH1 0xA0 ADD PUSH1 0x40 MSTORE DUP1 DUP6 DUP2 MSTORE PUSH1 0x20 ADD DUP5 DUP2 MSTORE PUSH1 0x20 ADD DUP4 DUP2 MSTORE PUSH1 0x20 ADD DUP3 DUP2 MSTORE PUSH1 0x20 ADD PUSH0 DUP4 GT ISZERO ISZERO DUP2 MSTORE POP PUSH1 0x1 PUSH0 DUP8 DUP2 MSTORE PUSH1 0x20 ADD SWAP1 DUP2 MSTORE PUSH1 0x20 ADD PUSH0 KECCAK256 PUSH0 DUP3 ADD MLOAD DUP2 PUSH0 ADD SWAP1 DUP2 PUSH2 0xA1D SWAP2 SWAP1 PUSH2 0x15E2 JUMP JUMPDEST POP PUSH1 0x20 DUP3 ADD MLOAD DUP2 PUSH1 0x1 ADD SWAP1 DUP2 PUSH2 0xA33 SWAP2 SWAP1 PUSH2 0x15E2 JUMP JUMPDEST POP PUSH1 0x40 DUP3 ADD MLOAD DUP2 PUSH1 0x2 ADD SSTORE PUSH1 0x60 DUP3 ADD MLOAD DUP2 PUSH1 0x3 ADD SSTORE PUSH1 0x80 DUP3 ADD MLOAD DUP2 PUSH1 0x4 ADD PUSH0 PUSH2 0x100 EXP DUP2 SLOAD DUP2 PUSH1 0xFF MUL NOT AND SWAP1 DUP4 ISZERO ISZERO MUL OR SWAP1 SSTORE POP SWAP1 POP POP PUSH1 0x3 DUP6 SWAP1 DUP1 PUSH1 0x1 DUP2 SLOAD ADD DUP1 DUP3 SSTORE DUP1 SWAP2 POP POP PUSH1 0x1 SWAP1 SUB SWAP1 PUSH0 MSTORE PUSH1 0x20 PUSH0 KECCAK256 ADD PUSH0 SWAP1 SWAP2 SWAP1 SWAP2 SWAP1 SWAP2 POP SSTORE DUP5 PUSH32 0x722C04650224F771C04EC5712C74689980B3DDB4EAA233CD8F9C72D7DA7FBE29 DUP6 DUP6 PUSH8 0xDE0B6B3A7640000 DUP7 PUSH2 0xAC8 SWAP2 SWAP1 PUSH2 0x11F0 JUMP JUMPDEST DUP6 PUSH1 0x40 MLOAD PUSH2 0xAD9 SWAP5 SWAP4 SWAP3 SWAP2 SWAP1 PUSH2 0x16B1 JUMP JUMPDEST PUSH1 0x40 MLOAD DUP1 SWAP2 SUB SWAP1 LOG2 POP POP POP POP POP JUMP JUMPDEST PUSH2 0xAF0 PUSH2 0xC30 JUMP JUMPDEST PUSH20 0xFFFFFFFFFFFFFFFFFFFFFFFFFFFFFFFFFFFFFFFF AND PUSH2 0xB0E PUSH2 0x8C5 JUMP JUMPDEST PUSH20 0xFFFFFFFFFFFFFFFFFFFFFFFFFFFFFFFFFFFFFFFF AND EQ PUSH2 0xB6D JUMPI PUSH2 0xB31 PUSH2 0xC30 JUMP JUMPDEST PUSH1 0x40 MLOAD PUSH32 0x118CDAA700000000000000000000000000000000000000000000000000000000 DUP2 MSTORE PUSH1 0x4 ADD PUSH2 0xB64 SWAP2 SWAP1 PUSH2 0xEA2 JUMP JUMPDEST PUSH1 0x40 MLOAD DUP1 SWAP2 SUB SWAP1 REVERT JUMPDEST JUMP JUMPDEST PUSH0 DUP1 PUSH0 SWAP1 SLOAD SWAP1 PUSH2 0x100 EXP SWAP1 DIV PUSH20 0xFFFFFFFFFFFFFFFFFFFFFFFFFFFFFFFFFFFFFFFF AND SWAP1 POP DUP2 PUSH0 DUP1 PUSH2 0x100 EXP DUP2 SLOAD DUP2 PUSH20 0xFFFFFFFFFFFFFFFFFFFFFFFFFFFFFFFFFFFFFFFF MUL NOT AND SWAP1 DUP4 PUSH20 0xFFFFFFFFFFFFFFFFFFFFFFFFFFFFFFFFFFFFFFFF AND MUL OR SWAP1 SSTORE POP DUP2 PUSH20 0xFFFFFFFFFFFFFFFFFFFFFFFFFFFFFFFFFFFFFFFF AND DUP2 PUSH20 0xFFFFFFFFFFFFFFFFFFFFFFFFFFFFFFFFFFFFFFFF AND PUSH32 0x8BE0079C531659141344CD1FD0A4F28419497F9722A3DAAFE3B4186F6B6457E0 PUSH1 0x40 MLOAD PUSH1 0x40 MLOAD DUP1 SWAP2 SUB SWAP1 LOG3 POP POP JUMP JUMPDEST PUSH0 CALLER SWAP1 POP SWAP1 JUMP JUMPDEST PUSH0 PUSH1 0x40 MLOAD SWAP1 POP SWAP1 JUMP JUMPDEST PUSH0 DUP1 REVERT JUMPDEST PUSH0 DUP1 REVERT JUMPDEST PUSH0 DUP2 SWAP1 POP SWAP2 SWAP1 POP JUMP JUMPDEST PUSH2 0xC5A DUP2 PUSH2 0xC48 JUMP JUMPDEST DUP2 EQ PUSH2 0xC64 JUMPI PUSH0 DUP1 REVERT JUMPDEST POP JUMP JUMPDEST PUSH0 DUP2 CALLDATALOAD SWAP1 POP PUSH2 0xC75 DUP2 PUSH2 0xC51 JUMP JUMPDEST SWAP3 SWAP2 POP POP JUMP JUMPDEST PUSH0 DUP1 PUSH1 0x40 DUP4 DUP6 SUB SLT ISZERO PUSH2 0xC91 JUMPI PUSH2 0xC90 PUSH2 0xC40 JUMP JUMPDEST JUMPDEST PUSH0 PUSH2 0xC9E DUP6 DUP3 DUP7 ADD PUSH2 0xC67 JUMP JUMPDEST SWAP3 POP POP PUSH1 0x20 PUSH2 0xCAF DUP6 DUP3 DUP7 ADD PUSH2 0xC67 JUMP JUMPDEST SWAP2 POP POP SWAP3 POP SWAP3 SWAP1 POP JUMP JUMPDEST PUSH0 PUSH1 0x20 DUP3 DUP5 SUB SLT ISZERO PUSH2 0xCCE JUMPI PUSH2 0xCCD PUSH2 0xC40 JUMP JUMPDEST JUMPDEST PUSH0 PUSH2 0xCDB DUP5 DUP3 DUP6 ADD PUSH2 0xC67 JUMP JUMPDEST SWAP2 POP POP SWAP3 SWAP2 POP POP JUMP JUMPDEST PUSH2 0xCED DUP2 PUSH2 0xC48 JUMP JUMPDEST DUP3 MSTORE POP POP JUMP JUMPDEST PUSH0 PUSH1 0x20 DUP3 ADD SWAP1 POP PUSH2 0xD06 PUSH0 DUP4 ADD DUP5 PUSH2 0xCE4 JUMP JUMPDEST SWAP3 SWAP2 POP POP JUMP JUMPDEST PUSH0 PUSH20 0xFFFFFFFFFFFFFFFFFFFFFFFFFFFFFFFFFFFFFFFF DUP3 AND SWAP1 POP SWAP2 SWAP1 POP JUMP JUMPDEST PUSH0 PUSH2 0xD35 DUP3 PUSH2 0xD0C JUMP JUMPDEST SWAP1 POP SWAP2 SWAP1 POP JUMP JUMPDEST PUSH2 0xD45 DUP2 PUSH2 0xD2B JUMP JUMPDEST DUP2 EQ PUSH2 0xD4F JUMPI PUSH0 DUP1 REVERT JUMPDEST POP JUMP JUMPDEST PUSH0 DUP2 CALLDATALOAD SWAP1 POP PUSH2 0xD60 DUP2 PUSH2 0xD3C JUMP JUMPDEST SWAP3 SWAP2 POP POP JUMP JUMPDEST PUSH0 PUSH1 0x20 DUP3 DUP5 SUB SLT ISZERO PUSH2 0xD7B JUMPI PUSH2 0xD7A PUSH2 0xC40 JUMP JUMPDEST JUMPDEST PUSH0 PUSH2 0xD88 DUP5 DUP3 DUP6 ADD PUSH2 0xD52 JUMP JUMPDEST SWAP2 POP POP SWAP3 SWAP2 POP POP JUMP JUMPDEST PUSH0 DUP2 ISZERO ISZERO SWAP1 POP SWAP2 SWAP1 POP JUMP JUMPDEST PUSH2 0xDA5 DUP2 PUSH2 0xD91 JUMP JUMPDEST DUP3 MSTORE POP POP JUMP JUMPDEST PUSH0 PUSH1 0x20 DUP3 ADD SWAP1 POP PUSH2 0xDBE PUSH0 DUP4 ADD DUP5 PUSH2 0xD9C JUMP JUMPDEST SWAP3 SWAP2 POP POP JUMP JUMPDEST PUSH0 DUP2 MLOAD SWAP1 POP SWAP2 SWAP1 POP JUMP JUMPDEST PUSH0 DUP3 DUP3 MSTORE PUSH1 0x20 DUP3 ADD SWAP1 POP SWAP3 SWAP2 POP POP JUMP JUMPDEST DUP3 DUP2 DUP4 MCOPY PUSH0 DUP4 DUP4 ADD MSTORE POP POP POP JUMP JUMPDEST PUSH0 PUSH1 0x1F NOT PUSH1 0x1F DUP4 ADD AND SWAP1 POP SWAP2 SWAP1 POP JUMP JUMPDEST PUSH0 PUSH2 0xE06 DUP3 PUSH2 0xDC4 JUMP JUMPDEST PUSH2 0xE10 DUP2 DUP6 PUSH2 0xDCE JUMP JUMPDEST SWAP4 POP PUSH2 0xE20 DUP2 DUP6 PUSH1 0x20 DUP7 ADD PUSH2 0xDDE JUMP JUMPDEST PUSH2 0xE29 DUP2 PUSH2 0xDEC JUMP JUMPDEST DUP5 ADD SWAP2 POP POP SWAP3 SWAP2 POP POP JUMP JUMPDEST PUSH0 PUSH1 0xA0 DUP3 ADD SWAP1 POP DUP2 DUP2 SUB PUSH0 DUP4 ADD MSTORE PUSH2 0xE4C DUP2 DUP9 PUSH2 0xDFC JUMP JUMPDEST SWAP1 POP DUP2 DUP2 SUB PUSH1 0x20 DUP4 ADD MSTORE PUSH2 0xE60 DUP2 DUP8 PUSH2 0xDFC JUMP JUMPDEST SWAP1 POP PUSH2 0xE6F PUSH1 0x40 DUP4 ADD DUP7 PUSH2 0xCE4 JUMP JUMPDEST PUSH2 0xE7C PUSH1 0x60 DUP4 ADD DUP6 PUSH2 0xCE4 JUMP JUMPDEST PUSH2 0xE89 PUSH1 0x80 DUP4 ADD DUP5 PUSH2 0xD9C JUMP JUMPDEST SWAP7 SWAP6 POP POP POP POP POP POP JUMP JUMPDEST PUSH2 0xE9C DUP2 PUSH2 0xD2B JUMP JUMPDEST DUP3 MSTORE POP POP JUMP JUMPDEST PUSH0 PUSH1 0x20 DUP3 ADD SWAP1 POP PUSH2 0xEB5 PUSH0 DUP4 ADD DUP5 PUSH2 0xE93 JUMP JUMPDEST SWAP3 SWAP2 POP POP JUMP JUMPDEST PUSH0 DUP1 REVERT JUMPDEST PUSH0 DUP1 REVERT JUMPDEST PUSH32 0x4E487B7100000000000000000000000000000000000000000000000000000000 PUSH0 MSTORE PUSH1 0x41 PUSH1 0x4 MSTORE PUSH1 0x24 PUSH0 REVERT JUMPDEST PUSH2 0xEF9 DUP3 PUSH2 0xDEC JUMP JUMPDEST DUP2 ADD DUP2 DUP2 LT PUSH8 0xFFFFFFFFFFFFFFFF DUP3 GT OR ISZERO PUSH2 0xF18 JUMPI PUSH2 0xF17 PUSH2 0xEC3 JUMP JUMPDEST JUMPDEST DUP1 PUSH1 0x40 MSTORE POP POP POP JUMP JUMPDEST PUSH0 PUSH2 0xF2A PUSH2 0xC37 JUMP JUMPDEST SWAP1 POP PUSH2 0xF36 DUP3 DUP3 PUSH2 0xEF0 JUMP JUMPDEST SWAP2 SWAP1 POP JUMP JUMPDEST PUSH0 PUSH8 0xFFFFFFFFFFFFFFFF DUP3 GT ISZERO PUSH2 0xF55 JUMPI PUSH2 0xF54 PUSH2 0xEC3 JUMP JUMPDEST JUMPDEST PUSH2 0xF5E DUP3 PUSH2 0xDEC JUMP JUMPDEST SWAP1 POP PUSH1 0x20 DUP2 ADD SWAP1 POP SWAP2 SWAP1 POP JUMP JUMPDEST DUP3 DUP2 DUP4 CALLDATACOPY PUSH0 DUP4 DUP4 ADD MSTORE POP POP POP JUMP JUMPDEST PUSH0 PUSH2 0xF8B PUSH2 0xF86 DUP5 PUSH2 0xF3B JUMP JUMPDEST PUSH2 0xF21 JUMP JUMPDEST SWAP1 POP DUP3 DUP2 MSTORE PUSH1 0x20 DUP2 ADD DUP5 DUP5 DUP5 ADD GT ISZERO PUSH2 0xFA7 JUMPI PUSH2 0xFA6 PUSH2 0xEBF JUMP JUMPDEST JUMPDEST PUSH2 0xFB2 DUP5 DUP3 DUP6 PUSH2 0xF6B JUMP JUMPDEST POP SWAP4 SWAP3 POP POP POP JUMP JUMPDEST PUSH0 DUP3 PUSH1 0x1F DUP4 ADD SLT PUSH2 0xFCE JUMPI PUSH2 0xFCD PUSH2 0xEBB JUMP JUMPDEST JUMPDEST DUP2 CALLDATALOAD PUSH2 0xFDE DUP5 DUP3 PUSH1 0x20 DUP7 ADD PUSH2 0xF79 JUMP JUMPDEST SWAP2 POP POP SWAP3 SWAP2 POP POP JUMP JUMPDEST PUSH0 DUP1 PUSH0 DUP1 PUSH0 PUSH1 0xA0 DUP7 DUP9 SUB SLT ISZERO PUSH2 0x1000 JUMPI PUSH2 0xFFF PUSH2 0xC40 JUMP JUMPDEST JUMPDEST PUSH0 PUSH2 0x100D DUP9 DUP3 DUP10 ADD PUSH2 0xC67 JUMP JUMPDEST SWAP6 POP POP PUSH1 0x20 DUP7 ADD CALLDATALOAD PUSH8 0xFFFFFFFFFFFFFFFF DUP2 GT ISZERO PUSH2 0x102E JUMPI PUSH2 0x102D PUSH2 0xC44 JUMP JUMPDEST JUMPDEST PUSH2 0x103A DUP9 DUP3 DUP10 ADD PUSH2 0xFBA JUMP JUMPDEST SWAP5 POP POP PUSH1 0x40 DUP7 ADD CALLDATALOAD PUSH8 0xFFFFFFFFFFFFFFFF DUP2 GT ISZERO PUSH2 0x105B JUMPI PUSH2 0x105A PUSH2 0xC44 JUMP JUMPDEST JUMPDEST PUSH2 0x1067 DUP9 DUP3 DUP10 ADD PUSH2 0xFBA JUMP JUMPDEST SWAP4 POP POP PUSH1 0x60 PUSH2 0x1078 DUP9 DUP3 DUP10 ADD PUSH2 0xC67 JUMP JUMPDEST SWAP3 POP POP PUSH1 0x80 PUSH2 0x1089 DUP9 DUP3 DUP10 ADD PUSH2 0xC67 JUMP JUMPDEST SWAP2 POP POP SWAP3 SWAP6 POP SWAP3 SWAP6 SWAP1 SWAP4 POP JUMP JUMPDEST PUSH32 0x5468697320626F6F6B206973206E6F7420617661696C61626C652E0000000000 PUSH0 DUP3 ADD MSTORE POP JUMP JUMPDEST PUSH0 PUSH2 0x10CA PUSH1 0x1B DUP4 PUSH2 0xDCE JUMP JUMPDEST SWAP2 POP PUSH2 0x10D5 DUP3 PUSH2 0x1096 JUMP JUMPDEST PUSH1 0x20 DUP3 ADD SWAP1 POP SWAP2 SWAP1 POP JUMP JUMPDEST PUSH0 PUSH1 0x20 DUP3 ADD SWAP1 POP DUP2 DUP2 SUB PUSH0 DUP4 ADD MSTORE PUSH2 0x10F7 DUP2 PUSH2 0x10BE JUMP JUMPDEST SWAP1 POP SWAP2 SWAP1 POP JUMP JUMPDEST PUSH32 0x4E6F7420656E6F7567682073746F636B20617661696C61626C652E0000000000 PUSH0 DUP3 ADD MSTORE POP JUMP JUMPDEST PUSH0 PUSH2 0x1132 PUSH1 0x1B DUP4 PUSH2 0xDCE JUMP JUMPDEST SWAP2 POP PUSH2 0x113D DUP3 PUSH2 0x10FE JUMP JUMPDEST PUSH1 0x20 DUP3 ADD SWAP1 POP SWAP2 SWAP1 POP JUMP JUMPDEST PUSH0 PUSH1 0x20 DUP3 ADD SWAP1 POP DUP2 DUP2 SUB PUSH0 DUP4 ADD MSTORE PUSH2 0x115F DUP2 PUSH2 0x1126 JUMP JUMPDEST SWAP1 POP SWAP2 SWAP1 POP JUMP JUMPDEST PUSH32 0x4E487B7100000000000000000000000000000000000000000000000000000000 PUSH0 MSTORE PUSH1 0x12 PUSH1 0x4 MSTORE PUSH1 0x24 PUSH0 REVERT JUMPDEST PUSH32 0x4E487B7100000000000000000000000000000000000000000000000000000000 PUSH0 MSTORE PUSH1 0x11 PUSH1 0x4 MSTORE PUSH1 0x24 PUSH0 REVERT JUMPDEST PUSH0 PUSH2 0x11CA DUP3 PUSH2 0xC48 JUMP JUMPDEST SWAP2 POP PUSH2 0x11D5 DUP4 PUSH2 0xC48 JUMP JUMPDEST SWAP3 POP DUP3 PUSH2 0x11E5 JUMPI PUSH2 0x11E4 PUSH2 0x1166 JUMP JUMPDEST JUMPDEST DUP3 DUP3 DIV SWAP1 POP SWAP3 SWAP2 POP POP JUMP JUMPDEST PUSH0 PUSH2 0x11FA DUP3 PUSH2 0xC48 JUMP JUMPDEST SWAP2 POP PUSH2 0x1205 DUP4 PUSH2 0xC48 JUMP JUMPDEST SWAP3 POP DUP3 DUP3 MUL PUSH2 0x1213 DUP2 PUSH2 0xC48 JUMP JUMPDEST SWAP2 POP DUP3 DUP3 DIV DUP5 EQ DUP4 ISZERO OR PUSH2 0x122A JUMPI PUSH2 0x1229 PUSH2 0x1193 JUMP JUMPDEST JUMPDEST POP SWAP3 SWAP2 POP POP JUMP JUMPDEST PUSH32 0x20496E636F7272656374207061796D656E7420616D6F756E7400000000000000 PUSH0 DUP3 ADD MSTORE POP JUMP JUMPDEST PUSH0 PUSH2 0x1265 PUSH1 0x19 DUP4 PUSH2 0xDCE JUMP JUMPDEST SWAP2 POP PUSH2 0x1270 DUP3 PUSH2 0x1231 JUMP JUMPDEST PUSH1 0x20 DUP3 ADD SWAP1 POP SWAP2 SWAP1 POP JUMP JUMPDEST PUSH0 PUSH1 0x20 DUP3 ADD SWAP1 POP DUP2 DUP2 SUB PUSH0 DUP4 ADD MSTORE PUSH2 0x1292 DUP2 PUSH2 0x1259 JUMP JUMPDEST SWAP1 POP SWAP2 SWAP1 POP JUMP JUMPDEST PUSH32 0x4E487B7100000000000000000000000000000000000000000000000000000000 PUSH0 MSTORE PUSH1 0x22 PUSH1 0x4 MSTORE PUSH1 0x24 PUSH0 REVERT JUMPDEST PUSH0 PUSH1 0x2 DUP3 DIV SWAP1 POP PUSH1 0x1 DUP3 AND DUP1 PUSH2 0x12DD JUMPI PUSH1 0x7F DUP3 AND SWAP2 POP JUMPDEST PUSH1 0x20 DUP3 LT DUP2 SUB PUSH2 0x12F0 JUMPI PUSH2 0x12EF PUSH2 0x1299 JUMP JUMPDEST JUMPDEST POP SWAP2 SWAP1 POP JUMP JUMPDEST PUSH32 0x6E6F7420656E6F756768742073746F636B20746F20636F6E6669726D20707572 PUSH0 DUP3 ADD MSTORE PUSH32 0x6368617365000000000000000000000000000000000000000000000000000000 PUSH1 0x20 DUP3 ADD MSTORE POP JUMP JUMPDEST PUSH0 PUSH2 0x1350 PUSH1 0x25 DUP4 PUSH2 0xDCE JUMP JUMPDEST SWAP2 POP PUSH2 0x135B DUP3 PUSH2 0x12F6 JUMP JUMPDEST PUSH1 0x40 DUP3 ADD SWAP1 POP SWAP2 SWAP1 POP JUMP JUMPDEST PUSH0 PUSH1 0x20 DUP3 ADD SWAP1 POP DUP2 DUP2 SUB PUSH0 DUP4 ADD MSTORE PUSH2 0x137D DUP2 PUSH2 0x1344 JUMP JUMPDEST SWAP1 POP SWAP2 SWAP1 POP JUMP JUMPDEST PUSH0 PUSH2 0x138E DUP3 PUSH2 0xC48 JUMP JUMPDEST SWAP2 POP PUSH2 0x1399 DUP4 PUSH2 0xC48 JUMP JUMPDEST SWAP3 POP DUP3 DUP3 SUB SWAP1 POP DUP2 DUP2 GT ISZERO PUSH2 0x13B1 JUMPI PUSH2 0x13B0 PUSH2 0x1193 JUMP JUMPDEST JUMPDEST SWAP3 SWAP2 POP POP JUMP JUMPDEST PUSH32 0x426F6F6B20616C72656164792065786973747320776974682074686973204944 PUSH0 DUP3 ADD MSTORE PUSH32 0x2E00000000000000000000000000000000000000000000000000000000000000 PUSH1 0x20 DUP3 ADD MSTORE POP JUMP JUMPDEST PUSH0 PUSH2 0x1411 PUSH1 0x21 DUP4 PUSH2 0xDCE JUMP JUMPDEST SWAP2 POP PUSH2 0x141C DUP3 PUSH2 0x13B7 JUMP JUMPDEST PUSH1 0x40 DUP3 ADD SWAP1 POP SWAP2 SWAP1 POP JUMP JUMPDEST PUSH0 PUSH1 0x20 DUP3 ADD SWAP1 POP DUP2 DUP2 SUB PUSH0 DUP4 ADD MSTORE PUSH2 0x143E DUP2 PUSH2 0x1405 JUMP JUMPDEST SWAP1 POP SWAP2 SWAP1 POP JUMP JUMPDEST PUSH0 DUP2 SWAP1 POP DUP2 PUSH0 MSTORE PUSH1 0x20 PUSH0 KECCAK256 SWAP1 POP SWAP2 SWAP1 POP JUMP JUMPDEST PUSH0 PUSH1 0x20 PUSH1 0x1F DUP4 ADD DIV SWAP1 POP SWAP2 SWAP1 POP JUMP JUMPDEST PUSH0 DUP3 DUP3 SHL SWAP1 POP SWAP3 SWAP2 POP POP JUMP JUMPDEST PUSH0 PUSH1 0x8 DUP4 MUL PUSH2 0x14A1 PUSH32 0xFFFFFFFFFFFFFFFFFFFFFFFFFFFFFFFFFFFFFFFFFFFFFFFFFFFFFFFFFFFFFFFF DUP3 PUSH2 0x1466 JUMP JUMPDEST PUSH2 0x14AB DUP7 DUP4 PUSH2 0x1466 JUMP JUMPDEST SWAP6 POP DUP1 NOT DUP5 AND SWAP4 POP DUP1 DUP7 AND DUP5 OR SWAP3 POP POP POP SWAP4 SWAP3 POP POP POP JUMP JUMPDEST PUSH0 DUP2 SWAP1 POP SWAP2 SWAP1 POP JUMP JUMPDEST PUSH0 PUSH2 0x14E6 PUSH2 0x14E1 PUSH2 0x14DC DUP5 PUSH2 0xC48 JUMP JUMPDEST PUSH2 0x14C3 JUMP JUMPDEST PUSH2 0xC48 JUMP JUMPDEST SWAP1 POP SWAP2 SWAP1 POP JUMP JUMPDEST PUSH0 DUP2 SWAP1 POP SWAP2 SWAP1 POP JUMP JUMPDEST PUSH2 0x14FF DUP4 PUSH2 0x14CC JUMP JUMPDEST PUSH2 0x1513 PUSH2 0x150B DUP3 PUSH2 0x14ED JUMP JUMPDEST DUP5 DUP5 SLOAD PUSH2 0x1472 JUMP JUMPDEST DUP3 SSTORE POP POP POP POP JUMP JUMPDEST PUSH0 SWAP1 JUMP JUMPDEST PUSH2 0x1527 PUSH2 0x151B JUMP JUMPDEST PUSH2 0x1532 DUP2 DUP5 DUP5 PUSH2 0x14F6 JUMP JUMPDEST POP POP POP JUMP JUMPDEST JUMPDEST DUP2 DUP2 LT ISZERO PUSH2 0x1555 JUMPI PUSH2 0x154A PUSH0 DUP3 PUSH2 0x151F JUMP JUMPDEST PUSH1 0x1 DUP2 ADD SWAP1 POP PUSH2 0x1538 JUMP JUMPDEST POP POP JUMP JUMPDEST PUSH1 0x1F DUP3 GT ISZERO PUSH2 0x159A JUMPI PUSH2 0x156B DUP2 PUSH2 0x1445 JUMP JUMPDEST PUSH2 0x1574 DUP5 PUSH2 0x1457 JUMP JUMPDEST DUP2 ADD PUSH1 0x20 DUP6 LT ISZERO PUSH2 0x1583 JUMPI DUP2 SWAP1 POP JUMPDEST PUSH2 0x1597 PUSH2 0x158F DUP6 PUSH2 0x1457 JUMP JUMPDEST DUP4 ADD DUP3 PUSH2 0x1537 JUMP JUMPDEST POP POP JUMPDEST POP POP POP JUMP JUMPDEST PUSH0 DUP3 DUP3 SHR SWAP1 POP SWAP3 SWAP2 POP POP JUMP JUMPDEST PUSH0 PUSH2 0x15BA PUSH0 NOT DUP5 PUSH1 0x8 MUL PUSH2 0x159F JUMP JUMPDEST NOT DUP1 DUP4 AND SWAP2 POP POP SWAP3 SWAP2 POP POP JUMP JUMPDEST PUSH0 PUSH2 0x15D2 DUP4 DUP4 PUSH2 0x15AB JUMP JUMPDEST SWAP2 POP DUP3 PUSH1 0x2 MUL DUP3 OR SWAP1 POP SWAP3 SWAP2 POP POP JUMP JUMPDEST PUSH2 0x15EB DUP3 PUSH2 0xDC4 JUMP JUMPDEST PUSH8 0xFFFFFFFFFFFFFFFF DUP2 GT ISZERO PUSH2 0x1604 JUMPI PUSH2 0x1603 PUSH2 0xEC3 JUMP JUMPDEST JUMPDEST PUSH2 0x160E DUP3 SLOAD PUSH2 0x12C6 JUMP JUMPDEST PUSH2 0x1619 DUP3 DUP3 DUP6 PUSH2 0x1559 JUMP JUMPDEST PUSH0 PUSH1 0x20 SWAP1 POP PUSH1 0x1F DUP4 GT PUSH1 0x1 DUP2 EQ PUSH2 0x164A JUMPI PUSH0 DUP5 ISZERO PUSH2 0x1638 JUMPI DUP3 DUP8 ADD MLOAD SWAP1 POP JUMPDEST PUSH2 0x1642 DUP6 DUP3 PUSH2 0x15C7 JUMP JUMPDEST DUP7 SSTORE POP PUSH2 0x16A9 JUMP JUMPDEST PUSH1 0x1F NOT DUP5 AND PUSH2 0x1658 DUP7 PUSH2 0x1445 JUMP JUMPDEST PUSH0 JUMPDEST DUP3 DUP2 LT ISZERO PUSH2 0x167F JUMPI DUP5 DUP10 ADD MLOAD DUP3 SSTORE PUSH1 0x1 DUP3 ADD SWAP2 POP PUSH1 0x20 DUP6 ADD SWAP5 POP PUSH1 0x20 DUP2 ADD SWAP1 POP PUSH2 0x165A JUMP JUMPDEST DUP7 DUP4 LT ISZERO PUSH2 0x169C JUMPI DUP5 DUP10 ADD MLOAD PUSH2 0x1698 PUSH1 0x1F DUP10 AND DUP3 PUSH2 0x15AB JUMP JUMPDEST DUP4 SSTORE POP JUMPDEST PUSH1 0x1 PUSH1 0x2 DUP9 MUL ADD DUP9 SSTORE POP POP POP JUMPDEST POP POP POP POP POP POP JUMP JUMPDEST PUSH0 PUSH1 0x80 DUP3 ADD SWAP1 POP DUP2 DUP2 SUB PUSH0 DUP4 ADD MSTORE PUSH2 0x16C9 DUP2 DUP8 PUSH2 0xDFC JUMP JUMPDEST SWAP1 POP DUP2 DUP2 SUB PUSH1 0x20 DUP4 ADD MSTORE PUSH2 0x16DD DUP2 DUP7 PUSH2 0xDFC JUMP JUMPDEST SWAP1 POP PUSH2 0x16EC PUSH1 0x40 DUP4 ADD DUP6 PUSH2 0xCE4 JUMP JUMPDEST PUSH2 0x16F9 PUSH1 0x60 DUP4 ADD DUP5 PUSH2 0xCE4 JUMP JUMPDEST SWAP6 SWAP5 POP POP POP POP POP JUMP INVALID LOG2 PUSH5 0x6970667358 0x22 SLT KECCAK256 0xBB 0xB8 0x2C 0x26 PUSH29 0xBDE44ED9F7BBF95A7BF05A839E01D4417AB9FC3818F2F53626A6CA6473 PUSH16 0x6C634300081A00330000000000000000 "
				},
				"gasEstimates": {
					"creation": {
						"codeDepositCost": "1188800",
						"executionCost": "infinite",
						"totalCost": "infinite"
					},
					"external": {
						"addBook(uint256,string,string,uint256,uint256)": "infinite",
						"bookIds(uint256)": "infinite",
						"books(uint256)": "infinite",
						"buyBook(uint256,uint256)": "infinite",
						"confirmPurchase(uint256,uint256)": "infinite",
						"getBooks(uint256)": "infinite",
						"owner()": "2581",
						"renounceOwnership()": "infinite",
						"subscriberList(uint256)": "4966",
						"subscribers(address)": "2878",
						"transferOwnership(address)": "infinite"
					}
				},
				"methodIdentifiers": {
					"addBook(uint256,string,string,uint256,uint256)": "f733719c",
					"bookIds(uint256)": "513073b8",
					"books(uint256)": "68744046",
					"buyBook(uint256,uint256)": "3af8c2d5",
					"confirmPurchase(uint256,uint256)": "8c1af2e0",
					"getBooks(uint256)": "5ac3e19e",
					"owner()": "8da5cb5b",
					"renounceOwnership()": "715018a6",
					"subscriberList(uint256)": "83c2eaba",
					"subscribers(address)": "5745ae28",
					"transferOwnership(address)": "f2fde38b"
				}
			},
			"storageLayout": {
				"storage": [
					{
						"astId": 8,
						"contract": "BookStore.sol:BookStore",
						"label": "_owner",
						"offset": 0,
						"slot": "0",
						"type": "t_address"
					},
					{
						"astId": 219,
						"contract": "BookStore.sol:BookStore",
						"label": "books",
						"offset": 0,
						"slot": "1",
						"type": "t_mapping(t_uint256,t_struct(Book)214_storage)"
					},
					{
						"astId": 223,
						"contract": "BookStore.sol:BookStore",
						"label": "subscribers",
						"offset": 0,
						"slot": "2",
						"type": "t_mapping(t_address,t_bool)"
					},
					{
						"astId": 226,
						"contract": "BookStore.sol:BookStore",
						"label": "bookIds",
						"offset": 0,
						"slot": "3",
						"type": "t_array(t_uint256)dyn_storage"
					},
					{
						"astId": 229,
						"contract": "BookStore.sol:BookStore",
						"label": "subscriberList",
						"offset": 0,
						"slot": "4",
						"type": "t_array(t_address)dyn_storage"
					}
				],
				"types": {
					"t_address": {
						"encoding": "inplace",
						"label": "address",
						"numberOfBytes": "20"
					},
					"t_array(t_address)dyn_storage": {
						"base": "t_address",
						"encoding": "dynamic_array",
						"label": "address[]",
						"numberOfBytes": "32"
					},
					"t_array(t_uint256)dyn_storage": {
						"base": "t_uint256",
						"encoding": "dynamic_array",
						"label": "uint256[]",
						"numberOfBytes": "32"
					},
					"t_bool": {
						"encoding": "inplace",
						"label": "bool",
						"numberOfBytes": "1"
					},
					"t_mapping(t_address,t_bool)": {
						"encoding": "mapping",
						"key": "t_address",
						"label": "mapping(address => bool)",
						"numberOfBytes": "32",
						"value": "t_bool"
					},
					"t_mapping(t_uint256,t_struct(Book)214_storage)": {
						"encoding": "mapping",
						"key": "t_uint256",
						"label": "mapping(uint256 => struct BookStore.Book)",
						"numberOfBytes": "32",
						"value": "t_struct(Book)214_storage"
					},
					"t_string_storage": {
						"encoding": "bytes",
						"label": "string",
						"numberOfBytes": "32"
					},
					"t_struct(Book)214_storage": {
						"encoding": "inplace",
						"label": "struct BookStore.Book",
						"members": [
							{
								"astId": 205,
								"contract": "BookStore.sol:BookStore",
								"label": "title",
								"offset": 0,
								"slot": "0",
								"type": "t_string_storage"
							},
							{
								"astId": 207,
								"contract": "BookStore.sol:BookStore",
								"label": "author",
								"offset": 0,
								"slot": "1",
								"type": "t_string_storage"
							},
							{
								"astId": 209,
								"contract": "BookStore.sol:BookStore",
								"label": "price",
								"offset": 0,
								"slot": "2",
								"type": "t_uint256"
							},
							{
								"astId": 211,
								"contract": "BookStore.sol:BookStore",
								"label": "stock",
								"offset": 0,
								"slot": "3",
								"type": "t_uint256"
							},
							{
								"astId": 213,
								"contract": "BookStore.sol:BookStore",
								"label": "isAvailable",
								"offset": 0,
								"slot": "4",
								"type": "t_bool"
							}
						],
						"numberOfBytes": "160"
					},
					"t_uint256": {
						"encoding": "inplace",
						"label": "uint256",
						"numberOfBytes": "32"
					}
				}
			},
			"userdoc": {
				"kind": "user",
				"methods": {},
				"version": 1
			}
		}
	}
}